{
  "contractName": "DPKI",
  "abi": [
    {
      "constant": true,
      "inputs": [
        {
          "internalType": "address",
          "name": "",
          "type": "address"
        }
      ],
      "name": "keyRings",
      "outputs": [
        {
          "internalType": "address",
          "name": "ringOwner",
          "type": "address"
        }
      ],
      "payable": false,
      "stateMutability": "view",
      "type": "function"
    },
    {
      "constant": true,
      "inputs": [
        {
          "internalType": "bytes32",
          "name": "",
          "type": "bytes32"
        }
      ],
      "name": "publicKeys",
      "outputs": [
        {
          "internalType": "address",
          "name": "",
          "type": "address"
        }
      ],
      "payable": false,
      "stateMutability": "view",
      "type": "function"
    },
    {
      "constant": true,
      "inputs": [
        {
          "internalType": "bytes32",
          "name": "",
          "type": "bytes32"
        }
      ],
      "name": "revokedKeys",
      "outputs": [
        {
          "internalType": "bool",
          "name": "",
          "type": "bool"
        }
      ],
      "payable": false,
      "stateMutability": "view",
      "type": "function"
    },
    {
      "constant": false,
      "inputs": [
        {
          "internalType": "bytes32",
          "name": "keyHash",
          "type": "bytes32"
        },
        {
          "internalType": "uint256[2]",
          "name": "rs",
          "type": "uint256[2]"
        },
        {
          "internalType": "uint256[2]",
          "name": "Q",
          "type": "uint256[2]"
        }
      ],
      "name": "addKey",
      "outputs": [],
      "payable": false,
      "stateMutability": "nonpayable",
      "type": "function"
    },
    {
      "constant": false,
      "inputs": [
        {
          "internalType": "bytes32",
          "name": "keyHash",
          "type": "bytes32"
        }
      ],
      "name": "revokeKey",
      "outputs": [],
      "payable": false,
      "stateMutability": "nonpayable",
      "type": "function"
    },
    {
      "constant": true,
      "inputs": [
        {
          "internalType": "address",
          "name": "keyRing",
          "type": "address"
        },
        {
          "internalType": "bytes32",
          "name": "keyHash",
          "type": "bytes32"
        },
        {
          "internalType": "string",
          "name": "aud",
          "type": "string"
        }
      ],
      "name": "verifyAccess",
      "outputs": [
        {
          "internalType": "string",
          "name": "scope",
          "type": "string"
        },
        {
          "internalType": "uint256",
          "name": "expiry",
          "type": "uint256"
        }
      ],
      "payable": false,
      "stateMutability": "view",
      "type": "function"
    },
    {
      "constant": false,
      "inputs": [],
      "name": "createKeyRing",
      "outputs": [],
      "payable": false,
      "stateMutability": "nonpayable",
      "type": "function"
    },
    {
      "constant": false,
      "inputs": [
        {
          "internalType": "bytes32",
          "name": "keyHash",
          "type": "bytes32"
        },
        {
          "internalType": "string",
          "name": "aud",
          "type": "string"
        },
        {
          "internalType": "string",
          "name": "scope",
          "type": "string"
        },
        {
          "internalType": "uint256",
          "name": "expiry",
          "type": "uint256"
        }
      ],
      "name": "giveAccess",
      "outputs": [],
      "payable": false,
      "stateMutability": "nonpayable",
      "type": "function"
    },
    {
      "constant": false,
      "inputs": [
        {
          "internalType": "bytes32",
          "name": "keyHash",
          "type": "bytes32"
        },
        {
          "internalType": "string",
          "name": "aud",
          "type": "string"
        },
        {
          "internalType": "uint256",
          "name": "expiry",
          "type": "uint256"
        }
      ],
      "name": "updateExpiry",
      "outputs": [],
      "payable": false,
      "stateMutability": "nonpayable",
      "type": "function"
    },
    {
      "constant": false,
      "inputs": [
        {
          "internalType": "bytes32",
          "name": "keyHash",
          "type": "bytes32"
        },
        {
          "internalType": "string",
          "name": "aud",
          "type": "string"
        },
        {
          "internalType": "string",
          "name": "scope",
          "type": "string"
        }
      ],
      "name": "changeScope",
      "outputs": [],
      "payable": false,
      "stateMutability": "nonpayable",
      "type": "function"
    },
    {
      "constant": false,
      "inputs": [
        {
          "internalType": "address",
          "name": "ringAddress",
          "type": "address"
        }
      ],
      "name": "trustRing",
      "outputs": [],
      "payable": false,
      "stateMutability": "nonpayable",
      "type": "function"
    },
    {
      "constant": false,
      "inputs": [
        {
          "internalType": "uint256",
          "name": "index",
          "type": "uint256"
        }
      ],
      "name": "untrustRing",
      "outputs": [],
      "payable": false,
      "stateMutability": "nonpayable",
      "type": "function"
    },
    {
      "constant": true,
      "inputs": [
        {
          "internalType": "address",
          "name": "ringAddress",
          "type": "address"
        }
      ],
      "name": "getTrustedRingsCount",
      "outputs": [
        {
          "internalType": "uint256",
          "name": "",
          "type": "uint256"
        }
      ],
      "payable": false,
      "stateMutability": "view",
      "type": "function"
    },
    {
      "constant": true,
      "inputs": [
        {
          "internalType": "address",
          "name": "ringAddress",
          "type": "address"
        },
        {
          "internalType": "uint256",
          "name": "index",
          "type": "uint256"
        }
      ],
      "name": "getTrustedRingAddress",
      "outputs": [
        {
          "internalType": "address",
          "name": "",
          "type": "address"
        }
      ],
      "payable": false,
      "stateMutability": "view",
      "type": "function"
    },
    {
      "constant": true,
      "inputs": [
        {
          "internalType": "bytes32",
          "name": "message",
          "type": "bytes32"
        },
        {
          "internalType": "uint256[2]",
          "name": "rs",
          "type": "uint256[2]"
        },
        {
          "internalType": "uint256[2]",
          "name": "Q",
          "type": "uint256[2]"
        }
      ],
      "name": "validateSignature",
      "outputs": [
        {
          "internalType": "bool",
          "name": "",
          "type": "bool"
        }
      ],
      "payable": false,
      "stateMutability": "pure",
      "type": "function"
    }
  ],
  "bytecode": "0x608060405234801561001057600080fd5b5061310b806100206000396000f3fe608060405234801561001057600080fd5b50600436106100f55760003560e01c8063798a74ba11610097578063caf7c50d11610066578063caf7c50d14610825578063f03dc5ef14610853578063f42f6f2f146108c1578063f662bcf014610a26576100f5565b8063798a74ba1461053b5780639ee616b5146105eb578063afb07a6714610751578063c749a35b14610797576100f5565b806336bd9fe8116100d357806336bd9fe8146102e95780634186539f14610445578063572f2210146104c95780636d09a399146104f7576100f5565b806304e960d7146100fa5780632b165771146101c2578063307b05ff14610291575b600080fd5b6101a8600480360360a081101561011057600080fd5b810190808035906020019092919080604001906002806020026040519081016040528092919082600260200280828437600081840152601f19601f820116905080830192505050505050919291929080604001906002806020026040519081016040528092919082600260200280828437600081840152601f19601f8201169050808301925050505050509192919290505050610a30565b604051808215151515815260200191505060405180910390f35b61028f600480360360608110156101d857600080fd5b8101908080359060200190929190803590602001906401000000008111156101ff57600080fd5b82018360208201111561021157600080fd5b8035906020019184600183028401116401000000008311171561023357600080fd5b91908080601f016020809104026020016040519081016040528093929190818152602001838380828437600081840152601f19601f82011690508083019250505050505050919291929080359060200190929190505050610d4e565b005b6102d3600480360360208110156102a757600080fd5b81019080803573ffffffffffffffffffffffffffffffffffffffff169060200190929190505050610ee0565b6040518082815260200191505060405180910390f35b610443600480360360608110156102ff57600080fd5b81019080803590602001909291908035906020019064010000000081111561032657600080fd5b82018360208201111561033857600080fd5b8035906020019184600183028401116401000000008311171561035a57600080fd5b91908080601f016020809104026020016040519081016040528093929190818152602001838380828437600081840152601f19601f820116905080830192505050505050509192919290803590602001906401000000008111156103bd57600080fd5b8201836020820111156103cf57600080fd5b803590602001918460018302840111640100000000831117156103f157600080fd5b91908080601f016020809104026020016040519081016040528093929190818152602001838380828437600081840152601f19601f820116905080830192505050505050509192919290505050610fb7565b005b6104876004803603602081101561045b57600080fd5b81019080803573ffffffffffffffffffffffffffffffffffffffff16906020019092919050505061124f565b604051808273ffffffffffffffffffffffffffffffffffffffff1673ffffffffffffffffffffffffffffffffffffffff16815260200191505060405180910390f35b6104f5600480360360208110156104df57600080fd5b810190808035906020019092919050505061128d565b005b6105396004803603602081101561050d57600080fd5b81019080803573ffffffffffffffffffffffffffffffffffffffff169060200190929190505050611463565b005b6105e9600480360360a081101561055157600080fd5b810190808035906020019092919080604001906002806020026040519081016040528092919082600260200280828437600081840152601f19601f820116905080830192505050505050919291929080604001906002806020026040519081016040528092919082600260200280828437600081840152601f19601f82011690508083019250505050505091929192905050506115d7565b005b61074f6004803603608081101561060157600080fd5b81019080803590602001909291908035906020019064010000000081111561062857600080fd5b82018360208201111561063a57600080fd5b8035906020019184600183028401116401000000008311171561065c57600080fd5b91908080601f016020809104026020016040519081016040528093929190818152602001838380828437600081840152601f19601f820116905080830192505050505050509192919290803590602001906401000000008111156106bf57600080fd5b8201836020820111156106d157600080fd5b803590602001918460018302840111640100000000831117156106f357600080fd5b91908080601f016020809104026020016040519081016040528093929190818152602001838380828437600081840152601f19601f82011690508083019250505050505050919291929080359060200190929190505050611785565b005b61077d6004803603602081101561076757600080fd5b81019080803590602001909291905050506119e9565b604051808215151515815260200191505060405180910390f35b6107e3600480360360408110156107ad57600080fd5b81019080803573ffffffffffffffffffffffffffffffffffffffff16906020019092919080359060200190929190505050611a09565b604051808273ffffffffffffffffffffffffffffffffffffffff1673ffffffffffffffffffffffffffffffffffffffff16815260200191505060405180910390f35b6108516004803603602081101561083b57600080fd5b8101908080359060200190929190505050611a8b565b005b61087f6004803603602081101561086957600080fd5b8101908080359060200190929190505050611bd3565b604051808273ffffffffffffffffffffffffffffffffffffffff1673ffffffffffffffffffffffffffffffffffffffff16815260200191505060405180910390f35b6109a4600480360360608110156108d757600080fd5b81019080803573ffffffffffffffffffffffffffffffffffffffff169060200190929190803590602001909291908035906020019064010000000081111561091e57600080fd5b82018360208201111561093057600080fd5b8035906020019184600183028401116401000000008311171561095257600080fd5b91908080601f016020809104026020016040519081016040528093929190818152602001838380828437600081840152601f19601f820116905080830192505050505050509192919290505050611c06565b6040518080602001838152602001828103825284818151815260200191508051906020019080838360005b838110156109ea5780820151818401526020810190506109cf565b50505050905090810190601f168015610a175780820380516001836020036101000a031916815260200191505b50935050505060405180910390f35b610a2e611e13565b005b60008083600060028110610a4057fe5b60200201511480610a8257507fffffffff00000000ffffffffffffffffbce6faada7179e84f3b9cac2fc63255183600060028110610a7a57fe5b602002015110155b80610a9e5750600083600160028110610a9757fe5b6020020151145b15610aac5760009050610d47565b610ad882600060028110610abc57fe5b602002015183600160028110610ace57fe5b6020020151611f62565b610ae55760009050610d47565b6000806000806000610b2888600160028110610afd57fe5b60200201517fffffffff00000000ffffffffffffffffbce6faada7179e84f3b9cac2fc632551612181565b9050610ba27f6b17d1f2e12c4247f8bce6e563a440f277037d812deb33a0f4a13945d898c2967f4fe342e2fe1a7f9b8ee7eb4a7c0f9e162bce33576b315ececbb6406837bf51f57fffffffff00000000ffffffffffffffffbce6faada7179e84f3b9cac2fc63255180610b9757fe5b848d60001c09612231565b8094508196505050610c1287600060028110610bba57fe5b602002015188600160028110610bcc57fe5b60200201517fffffffff00000000ffffffffffffffffbce6faada7179e84f3b9cac2fc63255180610bf957fe5b848c600060028110610c0757fe5b602002015109612231565b8093508195505050610c22612f8f565b610c2e86858786612333565b9050600081600260038110610c3f57fe5b60200201511415610c595760009650505050505050610d47565b6000610c9682600260038110610c6b57fe5b60200201517fffffffff00000001000000000000000000000000ffffffffffffffffffffffff612181565b90507fffffffff00000001000000000000000000000000ffffffffffffffffffffffff80610cc057fe5b7fffffffff00000001000000000000000000000000ffffffffffffffffffffffff80610ce857fe5b82830983600060038110610cf857fe5b602002015109905089600060028110610d0d57fe5b60200201517fffffffff00000000ffffffffffffffffbce6faada7179e84f3b9cac2fc6325518281610d3b57fe5b06149750505050505050505b9392505050565b6000600260003373ffffffffffffffffffffffffffffffffffffffff1673ffffffffffffffffffffffffffffffffffffffff16815260200190815260200160002090503373ffffffffffffffffffffffffffffffffffffffff168160000160009054906101000a900473ffffffffffffffffffffffffffffffffffffffff1673ffffffffffffffffffffffffffffffffffffffff1614610e56576040517f08c379a00000000000000000000000000000000000000000000000000000000081526004018080602001828103825260118152602001807f6e6f74206b657952696e67204f776e657200000000000000000000000000000081525060200191505060405180910390fd5b81816002016000868152602001908152602001600020846040518082805190602001908083835b60208310610ea05780518252602082019150602081019050602083039250610e7d565b6001836020036101000a03801982511681845116808217855250505050505090500191505090815260200160405180910390206001018190555050505050565b60006060600260008473ffffffffffffffffffffffffffffffffffffffff1673ffffffffffffffffffffffffffffffffffffffff168152602001908152602001600020600101805480602002602001604051908101604052809291908181526020018280548015610fa657602002820191906000526020600020905b8160009054906101000a900473ffffffffffffffffffffffffffffffffffffffff1673ffffffffffffffffffffffffffffffffffffffff1681526020019060010190808311610f5c575b505050505090508051915050919050565b6000600260003373ffffffffffffffffffffffffffffffffffffffff1673ffffffffffffffffffffffffffffffffffffffff16815260200190815260200160002090503373ffffffffffffffffffffffffffffffffffffffff168160000160009054906101000a900473ffffffffffffffffffffffffffffffffffffffff1673ffffffffffffffffffffffffffffffffffffffff16146110bf576040517f08c379a00000000000000000000000000000000000000000000000000000000081526004018080602001828103825260118152602001807f6e6f74206b657952696e67204f776e657200000000000000000000000000000081525060200191505060405180910390fd5b6000816002016000868152602001908152602001600020846040518082805190602001908083835b6020831061110a57805182526020820191506020810190506020830392506110e7565b6001836020036101000a03801982511681845116808217855250505050505090500191505090815260200160405180910390206001015414156111b5576040517f08c379a00000000000000000000000000000000000000000000000000000000081526004018080602001828103825260098152602001807f6e6f20657870697279000000000000000000000000000000000000000000000081525060200191505060405180910390fd5b81816002016000868152602001908152602001600020846040518082805190602001908083835b602083106111ff57805182526020820191506020810190506020830392506111dc565b6001836020036101000a03801982511681845116808217855250505050505090500191505090815260200160405180910390206000019080519060200190611248929190612fb1565b5050505050565b60026020528060005260406000206000915090508060000160009054906101000a900473ffffffffffffffffffffffffffffffffffffffff16905081565b600073ffffffffffffffffffffffffffffffffffffffff1660008083815260200190815260200160002060009054906101000a900473ffffffffffffffffffffffffffffffffffffffff1673ffffffffffffffffffffffffffffffffffffffff161415611362576040517f08c379a00000000000000000000000000000000000000000000000000000000081526004018080602001828103825260108152602001807f6b6579206e6f74206578697374696e670000000000000000000000000000000081525060200191505060405180910390fd5b3373ffffffffffffffffffffffffffffffffffffffff1660008083815260200190815260200160002060009054906101000a900473ffffffffffffffffffffffffffffffffffffffff1673ffffffffffffffffffffffffffffffffffffffff1614611435576040517f08c379a00000000000000000000000000000000000000000000000000000000081526004018080602001828103825260138152602001807f6e6f207065726d697420746f207265766f6b650000000000000000000000000081525060200191505060405180910390fd5b600180600083815260200190815260200160002060006101000a81548160ff02191690831515021790555050565b6000600260003373ffffffffffffffffffffffffffffffffffffffff1673ffffffffffffffffffffffffffffffffffffffff16815260200190815260200160002090503373ffffffffffffffffffffffffffffffffffffffff168160000160009054906101000a900473ffffffffffffffffffffffffffffffffffffffff1673ffffffffffffffffffffffffffffffffffffffff161461156b576040517f08c379a00000000000000000000000000000000000000000000000000000000081526004018080602001828103825260118152602001807f6e6f74206b657952696e67204f776e657200000000000000000000000000000081525060200191505060405180910390fd5b806001018290806001815401808255809150509060018203906000526020600020016000909192909190916101000a81548173ffffffffffffffffffffffffffffffffffffffff021916908373ffffffffffffffffffffffffffffffffffffffff160217905550505050565b600073ffffffffffffffffffffffffffffffffffffffff1660008085815260200190815260200160002060009054906101000a900473ffffffffffffffffffffffffffffffffffffffff1673ffffffffffffffffffffffffffffffffffffffff16146116ab576040517f08c379a000000000000000000000000000000000000000000000000000000000815260040180806020018281038252600c8152602001807f6b6579206578697374696e67000000000000000000000000000000000000000081525060200191505060405180910390fd5b600115156116ba848484610a30565b15151461172f576040517f08c379a00000000000000000000000000000000000000000000000000000000081526004018080602001828103825260138152602001807f7369676e6174757265206d6973736d617463680000000000000000000000000081525060200191505060405180910390fd5b3360008085815260200190815260200160002060006101000a81548173ffffffffffffffffffffffffffffffffffffffff021916908373ffffffffffffffffffffffffffffffffffffffff160217905550505050565b6000600260003373ffffffffffffffffffffffffffffffffffffffff1673ffffffffffffffffffffffffffffffffffffffff16815260200190815260200160002090503373ffffffffffffffffffffffffffffffffffffffff168160000160009054906101000a900473ffffffffffffffffffffffffffffffffffffffff1673ffffffffffffffffffffffffffffffffffffffff161461188d576040517f08c379a00000000000000000000000000000000000000000000000000000000081526004018080602001828103825260118152602001807f6e6f74206b657952696e67204f776e657200000000000000000000000000000081525060200191505060405180910390fd5b600015156001600087815260200190815260200160002060009054906101000a900460ff16151514611927576040517f08c379a000000000000000000000000000000000000000000000000000000000815260040180806020018281038252600e8152602001807f6b6579206973207265766f6b656400000000000000000000000000000000000081525060200191505060405180910390fd5b604051806040016040528084815260200183815250816002016000878152602001908152602001600020856040518082805190602001908083835b602083106119855780518252602082019150602081019050602083039250611962565b6001836020036101000a038019825116818451168082178552505050505050905001915050908152602001604051809103902060008201518160000190805190602001906119d4929190613031565b50602082015181600101559050505050505050565b60016020528060005260406000206000915054906101000a900460ff1681565b6000600260008473ffffffffffffffffffffffffffffffffffffffff1673ffffffffffffffffffffffffffffffffffffffff1681526020019081526020016000206001018281548110611a5857fe5b9060005260206000200160009054906101000a900473ffffffffffffffffffffffffffffffffffffffff16905092915050565b6000600260003373ffffffffffffffffffffffffffffffffffffffff1673ffffffffffffffffffffffffffffffffffffffff16815260200190815260200160002090503373ffffffffffffffffffffffffffffffffffffffff168160000160009054906101000a900473ffffffffffffffffffffffffffffffffffffffff1673ffffffffffffffffffffffffffffffffffffffff1614611b93576040517f08c379a00000000000000000000000000000000000000000000000000000000081526004018080602001828103825260118152602001807f6e6f74206b657952696e67204f776e657200000000000000000000000000000081525060200191505060405180910390fd5b806001018281548110611ba257fe5b9060005260206000200160006101000a81549073ffffffffffffffffffffffffffffffffffffffff02191690555050565b60006020528060005260406000206000915054906101000a900473ffffffffffffffffffffffffffffffffffffffff1681565b606060008015156001600086815260200190815260200160002060009054906101000a900460ff16151514611ca3576040517f08c379a000000000000000000000000000000000000000000000000000000000815260040180806020018281038252600e8152602001807f6b6579206973207265766f6b656400000000000000000000000000000000000081525060200191505060405180910390fd5b6000600260008773ffffffffffffffffffffffffffffffffffffffff1673ffffffffffffffffffffffffffffffffffffffff1681526020019081526020016000206002016000868152602001908152602001600020846040518082805190602001908083835b60208310611d2c5780518252602082019150602081019050602083039250611d09565b6001836020036101000a03801982511681845116808217855250505050505090500191505090815260200160405180910390209050806000018160010154818054600181600116156101000203166002900480601f016020809104026020016040519081016040528092919081815260200182805460018160011615610100020316600290048015611dff5780601f10611dd457610100808354040283529160200191611dff565b820191906000526020600020905b815481529060010190602001808311611de257829003601f168201915b505050505091509250925050935093915050565b6000600260003373ffffffffffffffffffffffffffffffffffffffff1673ffffffffffffffffffffffffffffffffffffffff1681526020019081526020016000209050600073ffffffffffffffffffffffffffffffffffffffff168160000160009054906101000a900473ffffffffffffffffffffffffffffffffffffffff1673ffffffffffffffffffffffffffffffffffffffff1614611f1c576040517f08c379a00000000000000000000000000000000000000000000000000000000081526004018080602001828103825260108152602001807f6b657952696e67206578697374696e670000000000000000000000000000000081525060200191505060405180910390fd5b338160000160006101000a81548173ffffffffffffffffffffffffffffffffffffffff021916908373ffffffffffffffffffffffffffffffffffffffff16021790555050565b60008260001480611f9257507fffffffff00000001000000000000000000000000ffffffffffffffffffffffff83145b80611f9d5750816000145b80611fc757507fffffffff00000001000000000000000000000000ffffffffffffffffffffffff82145b15611fd5576000905061217b565b60007fffffffff00000001000000000000000000000000ffffffffffffffffffffffff80611fff57fe5b838409905060007fffffffff00000001000000000000000000000000ffffffffffffffffffffffff8061202e57fe5b857fffffffff00000001000000000000000000000000ffffffffffffffffffffffff8061205757fe5b87880909905060007fffffffff00000001000000000000000000000000fffffffffffffffffffffffc146120fd577fffffffff00000001000000000000000000000000ffffffffffffffffffffffff806120ad57fe5b7fffffffff00000001000000000000000000000000ffffffffffffffffffffffff806120d557fe5b7fffffffff00000001000000000000000000000000fffffffffffffffffffffffc8709820890505b60007f5ac635d8aa3a93e7b3ebbd55769886bc651d06b0cc53b0f63bce3c3e27d2604b14612173577fffffffff00000001000000000000000000000000ffffffffffffffffffffffff8061214d57fe5b7f5ac635d8aa3a93e7b3ebbd55769886bc651d06b0cc53b0f63bce3c3e27d2604b820890505b808214925050505b92915050565b60008083148061219057508183145b8061219b5750600082145b156121a9576000905061222b565b818311156121be578183816121ba57fe5b0692505b600080600190506000849050600086905060005b60008214612207578183816121e357fe5b049050838482028603838484028603809550819650829750839850505050506121d2565b6000851215612222578460000387039550505050505061222b565b84955050505050505b92915050565b600080600083141561224e57612245612368565b9150915061232b565b60018314156122625784849150915061232b565b600283141561227e57612275858561237c565b9150915061232b565b600085905060008590506000600190506000600190508895508794506000600288816122a657fe5b0614156122b557600094508495505b600187901c96505b6000871115612317576122d18484846123b0565b8094508195508296505050506001600288816122e957fe5b06141561230b576122fe848484898986612858565b8093508197508298505050505b600187901c96506122bd565b6123228686836129ee565b95509550505050505b935093915050565b61233b612f8f565b60008061234a87878787612a82565b809250819350505061235c8282612abc565b92505050949350505050565b600080600080819150809050915091509091565b600080600061238d858560016123b0565b8093508196508297505050506123a48585836129ee565b92509250509250929050565b60008060008060008060006123c58a8a612bb1565b156123e1576123d2612bdb565b9650965096505050505061284f565b7fffffffff00000001000000000000000000000000ffffffffffffffffffffffff8061240957fe5b888a0992507fffffffff00000001000000000000000000000000ffffffffffffffffffffffff8061243657fe5b6002840992507fffffffff00000001000000000000000000000000ffffffffffffffffffffffff8061246457fe5b8a840991507fffffffff00000001000000000000000000000000ffffffffffffffffffffffff8061249157fe5b89830991507fffffffff00000001000000000000000000000000ffffffffffffffffffffffff806124be57fe5b6002830991507fffffffff00000001000000000000000000000000ffffffffffffffffffffffff806124ec57fe5b8a8b0999507fffffffff00000001000000000000000000000000ffffffffffffffffffffffff8061251957fe5b60038b0993507fffffffff00000001000000000000000000000000ffffffffffffffffffffffff8061254757fe5b88890997507fffffffff00000001000000000000000000000000ffffffffffffffffffffffff8061257457fe5b7fffffffff00000001000000000000000000000000fffffffffffffffffffffffc890997507fffffffff00000001000000000000000000000000ffffffffffffffffffffffff806125c157fe5b88850893507fffffffff00000001000000000000000000000000ffffffffffffffffffffffff806125ee57fe5b84850990507fffffffff00000001000000000000000000000000ffffffffffffffffffffffff8061261b57fe5b8260020999507fffffffff00000001000000000000000000000000ffffffffffffffffffffffff8061264957fe5b8a7fffffffff00000001000000000000000000000000ffffffffffffffffffffffff03820890507fffffffff00000001000000000000000000000000ffffffffffffffffffffffff8061269857fe5b817fffffffff00000001000000000000000000000000ffffffffffffffffffffffff03830899507fffffffff00000001000000000000000000000000ffffffffffffffffffffffff806126e757fe5b8a850999507fffffffff00000001000000000000000000000000ffffffffffffffffffffffff8061271457fe5b838a0998507fffffffff00000001000000000000000000000000ffffffffffffffffffffffff8061274157fe5b898a0998507fffffffff00000001000000000000000000000000ffffffffffffffffffffffff8061276e57fe5b8960020998507fffffffff00000001000000000000000000000000ffffffffffffffffffffffff8061279c57fe5b897fffffffff00000001000000000000000000000000ffffffffffffffffffffffff038b0895507fffffffff00000001000000000000000000000000ffffffffffffffffffffffff806127eb57fe5b81840996507fffffffff00000001000000000000000000000000ffffffffffffffffffffffff8061281857fe5b83840994507fffffffff00000001000000000000000000000000ffffffffffffffffffffffff8061284557fe5b8386099450505050505b93509350939050565b600080600080600080600061286d8d8d612bb1565b1561288457898989965096509650505050506129e2565b61288e8a8a612bb1565b156128a5578c8c8c965096509650505050506129e2565b7fffffffff00000001000000000000000000000000ffffffffffffffffffffffff806128cd57fe5b888d0993507fffffffff00000001000000000000000000000000ffffffffffffffffffffffff806128fa57fe5b8b8a0992507fffffffff00000001000000000000000000000000ffffffffffffffffffffffff8061292757fe5b888e0991507fffffffff00000001000000000000000000000000ffffffffffffffffffffffff8061295457fe5b8b8b0990508082141561299a5782841415612983576129748d8d8d6123b0565b965096509650505050506129e2565b61298b612bdb565b965096509650505050506129e2565b6129d17fffffffff00000001000000000000000000000000ffffffffffffffffffffffff806129c557fe5b898d0983838688612bf9565b809750819850829950505050505050505b96509650969350505050565b6000806000612a1d847fffffffff00000001000000000000000000000000ffffffffffffffffffffffff612181565b90507fffffffff00000001000000000000000000000000ffffffffffffffffffffffff80612a4757fe5b81870992507fffffffff00000001000000000000000000000000ffffffffffffffffffffffff80612a7457fe5b818609915050935093915050565b6000806000612a978787600188886001612858565b809350819850829950505050612aae8787836129ee565b925092505094509492505050565b612ac4612f8f565b7fffffffff00000001000000000000000000000000ffffffffffffffffffffffff80612aec57fe5b600160000881600260038110612afe57fe5b6020020181815250507fffffffff00000001000000000000000000000000ffffffffffffffffffffffff80612b2f57fe5b81600260038110612b3c57fe5b6020020151840981600060038110612b5057fe5b6020020181815250507fffffffff00000001000000000000000000000000ffffffffffffffffffffffff80612b8157fe5b81600260038110612b8e57fe5b6020020151830981600160038110612ba257fe5b60200201818152505092915050565b60008083148015612bc25750600082145b15612bd05760019050612bd5565b600090505b92915050565b60008060008060016000829250819150809050925092509250909192565b6000806000806000806000807fffffffff00000001000000000000000000000000ffffffffffffffffffffffff80612c2d57fe5b8a7fffffffff00000001000000000000000000000000ffffffffffffffffffffffff038a0890507fffffffff00000001000000000000000000000000ffffffffffffffffffffffff80612c7c57fe5b8b7fffffffff00000001000000000000000000000000ffffffffffffffffffffffff038d0894507fffffffff00000001000000000000000000000000ffffffffffffffffffffffff80612ccb57fe5b85860993507fffffffff00000001000000000000000000000000ffffffffffffffffffffffff80612cf857fe5b81820991507fffffffff00000001000000000000000000000000ffffffffffffffffffffffff80612d2557fe5b8d830991507fffffffff00000001000000000000000000000000ffffffffffffffffffffffff80612d5257fe5b8c8c089a507fffffffff00000001000000000000000000000000ffffffffffffffffffffffff80612d7f57fe5b848c099a507fffffffff00000001000000000000000000000000ffffffffffffffffffffffff80612dac57fe5b8b7fffffffff00000001000000000000000000000000ffffffffffffffffffffffff03830891507fffffffff00000001000000000000000000000000ffffffffffffffffffffffff80612dfb57fe5b82860997507fffffffff00000001000000000000000000000000ffffffffffffffffffffffff80612e2857fe5b85850992507fffffffff00000001000000000000000000000000ffffffffffffffffffffffff80612e5557fe5b848d099b507fffffffff00000001000000000000000000000000ffffffffffffffffffffffff80612e8257fe5b827fffffffff00000001000000000000000000000000ffffffffffffffffffffffff038d089b507fffffffff00000001000000000000000000000000ffffffffffffffffffffffff80612ed157fe5b8c820990507fffffffff00000001000000000000000000000000ffffffffffffffffffffffff80612efe57fe5b838a0998507fffffffff00000001000000000000000000000000ffffffffffffffffffffffff80612f2b57fe5b897fffffffff00000001000000000000000000000000ffffffffffffffffffffffff03820896507fffffffff00000001000000000000000000000000ffffffffffffffffffffffff80612f7a57fe5b8d840995505050505050955095509592505050565b6040518060600160405280600390602082028038833980820191505090505090565b828054600181600116156101000203166002900490600052602060002090601f016020900481019282601f10612ff257805160ff1916838001178555613020565b82800160010185558215613020579182015b8281111561301f578251825591602001919060010190613004565b5b50905061302d91906130b1565b5090565b828054600181600116156101000203166002900490600052602060002090601f016020900481019282601f1061307257805160ff19168380011785556130a0565b828001600101855582156130a0579182015b8281111561309f578251825591602001919060010190613084565b5b5090506130ad91906130b1565b5090565b6130d391905b808211156130cf5760008160009055506001016130b7565b5090565b9056fea265627a7a723158200ff9195446d337a41261a5939f2cd8db05bd8a6a063f676ed2f58af6292bbf1664736f6c634300050c0032",
  "source": "pragma solidity 0.5.12;\n\ncontract DPKI{\n\n    mapping (bytes32 => address) public publicKeys;\n    mapping (bytes32 => bool) public revokedKeys;\n\n    function addKey(bytes32 keyHash, uint[2] memory rs, uint[2] memory Q) public{\n        require(publicKeys[keyHash] == address(0), 'key existing');\n        require(validateSignature(keyHash, rs, Q) == true, 'signature missmatch');\n        publicKeys[keyHash] = msg.sender;\n    }\n\n\n    // why not having a key can can be shared for revoking keys instead of using msg.sender?\n    function revokeKey(bytes32 keyHash) public{\n        require(publicKeys[keyHash] != address(0), 'key not existing');\n        require(publicKeys[keyHash] == msg.sender, 'no permit to revoke');\n        revokedKeys[keyHash] = true;\n    }\n\n    mapping (address => KeyRing) public keyRings;\n    //maybe define the trust depth of the ring?\n    struct KeyRing{\n        address ringOwner;\n        address[] trustedRings;\n        mapping (bytes32 => mapping(string => Access)) keyAccess;\n    }\n\n    struct Access{\n       string scope;\n       uint expiry;\n    }\n\n    function verifyAccess(address keyRing, bytes32 keyHash, string memory aud) public view returns(string memory scope, uint expiry){\n        require(revokedKeys[keyHash] == false, 'key is revoked');\n        Access storage access = keyRings[keyRing].keyAccess[keyHash][aud];\n        return (access.scope, access.expiry);\n    }\n\n    function createKeyRing() public{\n        KeyRing storage keyRing = keyRings[msg.sender];\n        require(keyRing.ringOwner == address(0), 'keyRing existing');\n        keyRing.ringOwner = msg.sender;\n    }\n\n    function giveAccess(bytes32 keyHash, string memory aud, string memory scope, uint expiry) public{\n        KeyRing storage keyRing = keyRings[msg.sender];\n        require(keyRing.ringOwner == msg.sender, 'not keyRing Owner');\n        require(revokedKeys[keyHash] == false, 'key is revoked');\n        keyRing.keyAccess[keyHash][aud] = Access(scope, expiry);\n    }\n\n    function updateExpiry(bytes32 keyHash, string memory aud, uint expiry) public{\n        KeyRing storage keyRing = keyRings[msg.sender];\n        require(keyRing.ringOwner == msg.sender, 'not keyRing Owner');\n        keyRing.keyAccess[keyHash][aud].expiry = expiry;\n    }\n\n    function changeScope(bytes32 keyHash, string memory aud, string memory scope) public{\n        KeyRing storage keyRing = keyRings[msg.sender];\n        require(keyRing.ringOwner == msg.sender, 'not keyRing Owner');\n        require(keyRing.keyAccess[keyHash][aud].expiry != 0, 'no expiry');\n        keyRing.keyAccess[keyHash][aud].scope = scope;\n    }\n\n    function trustRing(address ringAddress) public{\n        KeyRing storage keyRing = keyRings[msg.sender];\n        require(keyRing.ringOwner == msg.sender, 'not keyRing Owner');\n        keyRing.trustedRings.push(ringAddress);\n    }\n\n    function untrustRing(uint index) public{\n        KeyRing storage keyRing = keyRings[msg.sender];\n        require(keyRing.ringOwner == msg.sender, 'not keyRing Owner');\n        delete keyRing.trustedRings[index];\n    }\n\n    function getTrustedRingsCount(address ringAddress) public view returns(uint){\n        address[] memory ringAddresses = keyRings[ringAddress].trustedRings;\n        return (ringAddresses.length);\n    }\n\n    function getTrustedRingAddress(address ringAddress, uint index) public view returns(address){\n        return keyRings[ringAddress].trustedRings[index];\n    }\n\n    /**\n    * @title   EllipticCurve\n    *\n    * @author  Tilman Drerup;\n    *  https://github.com/tdrerup/elliptic-curve-solidity\n    * @notice  Implements elliptic curve math; Parametrized for SECP256R1.\n    *\n    *          Includes components of code by Andreas Olofsson, Alexander Vlasov\n    *          (https://github.com/BANKEX/CurveArithmetics), and Avi Asayag\n    *          (https://github.com/orbs-network/elliptic-curve-solidity)\n    *\n    * @dev     NOTE: To disambiguate public keys when verifying signatures, activate\n    *          condition 'rs[1] > lowSmax' in validateSignature().\n    */\n    // Set parameters for curve.\n    uint constant a = 0xFFFFFFFF00000001000000000000000000000000FFFFFFFFFFFFFFFFFFFFFFFC;\n    uint constant b = 0x5AC635D8AA3A93E7B3EBBD55769886BC651D06B0CC53B0F63BCE3C3E27D2604B;\n    uint constant gx = 0x6B17D1F2E12C4247F8BCE6E563A440F277037D812DEB33A0F4A13945D898C296;\n    uint constant gy = 0x4FE342E2FE1A7F9B8EE7EB4A7C0F9E162BCE33576B315ECECBB6406837BF51F5;\n    uint constant p = 0xFFFFFFFF00000001000000000000000000000000FFFFFFFFFFFFFFFFFFFFFFFF;\n    uint constant n = 0xFFFFFFFF00000000FFFFFFFFFFFFFFFFBCE6FAADA7179E84F3B9CAC2FC632551;\n\n    uint constant lowSmax = 0x7FFFFFFFFFFFFFFFFFFFFFFFFFFFFFFF5D576E7357A4501DDFE92F46681B20A0;\n\n    /**\n     * @dev Inverse of u in the field of modulo m.\n     */\n    function inverseMod(uint u, uint m) private pure\n        returns (uint)\n    {\n        if (u == 0 || u == m || m == 0)\n            return 0;\n        if (u > m)\n            u = u % m;\n\n        int t1;\n        int t2 = 1;\n        uint r1 = m;\n        uint r2 = u;\n        uint q;\n\n        while (r2 != 0) {\n            q = r1 / r2;\n            (t1, t2, r1, r2) = (t2, t1 - int(q) * t2, r2, r1 - q * r2);\n        }\n\n        if (t1 < 0)\n            return (m - uint(-t1));\n\n        return uint(t1);\n    }\n\n    /**\n     * @dev Transform affine coordinates into projective coordinates.\n     */\n    function toProjectivePoint(uint x0, uint y0) private pure\n        returns (uint[3] memory P)\n    {\n        P[2] = addmod(0, 1, p);\n        P[0] = mulmod(x0, P[2], p);\n        P[1] = mulmod(y0, P[2], p);\n    }\n\n    /**\n     * @dev Add two points in affine coordinates and return projective point.\n     */\n    function addAndReturnProjectivePoint(uint x1, uint y1, uint x2, uint y2) private pure\n        returns (uint[3] memory P)\n    {\n        uint x;\n        uint y;\n        (x, y) = add(x1, y1, x2, y2);\n        P = toProjectivePoint(x, y);\n    }\n\n    /**\n     * @dev Transform from projective to affine coordinates.\n     */\n    function toAffinePoint(uint x0, uint y0, uint z0) private pure\n        returns (uint x1, uint y1)\n    {\n        uint z0Inv;\n        z0Inv = inverseMod(z0, p);\n        x1 = mulmod(x0, z0Inv, p);\n        y1 = mulmod(y0, z0Inv, p);\n    }\n\n    /**\n     * @dev Return the zero curve in projective coordinates.\n     */\n    function zeroProj() private pure\n        returns (uint x, uint y, uint z)\n    {\n        return (0, 1, 0);\n    }\n\n    /**\n     * @dev Return the zero curve in affine coordinates.\n     */\n    function zeroAffine() private pure\n        returns (uint x, uint y)\n    {\n        return (0, 0);\n    }\n\n    /**\n     * @dev Check if the curve is the zero curve.\n     */\n    function isZeroCurve(uint x0, uint y0) private pure\n        returns (bool isZero)\n    {\n        if(x0 == 0 && y0 == 0) {\n            return true;\n        }\n        return false;\n    }\n\n    /**\n     * @dev Check if a point in affine coordinates is on the curve.\n     */\n    function isOnCurve(uint x, uint y) private pure\n        returns (bool)\n    {\n        if (0 == x || x == p || 0 == y || y == p) {\n            return false;\n        }\n\n        uint LHS = mulmod(y, y, p); // y^2\n        uint RHS = mulmod(mulmod(x, x, p), x, p); // x^3\n\n        if (a != 0) {\n            RHS = addmod(RHS, mulmod(x, a, p), p); // x^3 + a*x\n        }\n        if (b != 0) {\n            RHS = addmod(RHS, b, p); // x^3 + a*x + b\n        }\n\n        return LHS == RHS;\n    }\n\n    /**\n     * @dev Double an elliptic curve point in projective coordinates. See\n     * https://www.nayuki.io/page/elliptic-curve-point-addition-in-projective-coordinates\n     */\n    function twiceProj(uint x0, uint y0, uint z0) private pure\n        returns (uint x1, uint y1, uint z1)\n    {\n        uint t;\n        uint u;\n        uint v;\n        uint w;\n\n        if(isZeroCurve(x0, y0)) {\n            return zeroProj();\n        }\n\n        u = mulmod(y0, z0, p);\n        u = mulmod(u, 2, p);\n\n        v = mulmod(u, x0, p);\n        v = mulmod(v, y0, p);\n        v = mulmod(v, 2, p);\n\n        x0 = mulmod(x0, x0, p);\n        t = mulmod(x0, 3, p);\n\n        z0 = mulmod(z0, z0, p);\n        z0 = mulmod(z0, a, p);\n        t = addmod(t, z0, p);\n\n        w = mulmod(t, t, p);\n        x0 = mulmod(2, v, p);\n        w = addmod(w, p-x0, p);\n\n        x0 = addmod(v, p-w, p);\n        x0 = mulmod(t, x0, p);\n        y0 = mulmod(y0, u, p);\n        y0 = mulmod(y0, y0, p);\n        y0 = mulmod(2, y0, p);\n        y1 = addmod(x0, p-y0, p);\n\n        x1 = mulmod(u, w, p);\n\n        z1 = mulmod(u, u, p);\n        z1 = mulmod(z1, u, p);\n    }\n\n    /**\n     * @dev Add two elliptic curve points in projective coordinates. See\n     * https://www.nayuki.io/page/elliptic-curve-point-addition-in-projective-coordinates\n     */\n    function addProj(uint x0, uint y0, uint z0, uint x1, uint y1, uint z1) private pure\n        returns (uint x2, uint y2, uint z2)\n    {\n        uint t0;\n        uint t1;\n        uint u0;\n        uint u1;\n\n        if (isZeroCurve(x0, y0)) {\n            return (x1, y1, z1);\n        }\n        else if (isZeroCurve(x1, y1)) {\n            return (x0, y0, z0);\n        }\n\n        t0 = mulmod(y0, z1, p);\n        t1 = mulmod(y1, z0, p);\n\n        u0 = mulmod(x0, z1, p);\n        u1 = mulmod(x1, z0, p);\n\n        if (u0 == u1) {\n            if (t0 == t1) {\n                return twiceProj(x0, y0, z0);\n            }\n            else {\n                return zeroProj();\n            }\n        }\n\n        (x2, y2, z2) = addProj2(mulmod(z0, z1, p), u0, u1, t1, t0);\n    }\n\n    /**\n     * @dev Helper function that splits addProj to avoid too many local variables.\n     */\n    function addProj2(uint v, uint u0, uint u1, uint t1, uint t0) private pure\n        returns (uint x2, uint y2, uint z2)\n    {\n        uint u;\n        uint u2;\n        uint u3;\n        uint w;\n        uint t;\n\n        t = addmod(t0, p-t1, p);\n        u = addmod(u0, p-u1, p);\n        u2 = mulmod(u, u, p);\n\n        w = mulmod(t, t, p);\n        w = mulmod(w, v, p);\n        u1 = addmod(u1, u0, p);\n        u1 = mulmod(u1, u2, p);\n        w = addmod(w, p-u1, p);\n\n        x2 = mulmod(u, w, p);\n\n        u3 = mulmod(u2, u, p);\n        u0 = mulmod(u0, u2, p);\n        u0 = addmod(u0, p-w, p);\n        t = mulmod(t, u0, p);\n        t0 = mulmod(t0, u3, p);\n\n        y2 = addmod(t, p-t0, p);\n\n        z2 = mulmod(u3, v, p);\n    }\n\n    /**\n     * @dev Add two elliptic curve points in affine coordinates.\n     */\n    function add(uint x0, uint y0, uint x1, uint y1) private pure\n        returns (uint, uint)\n    {\n        uint z0;\n\n        (x0, y0, z0) = addProj(x0, y0, 1, x1, y1, 1);\n\n        return toAffinePoint(x0, y0, z0);\n    }\n\n    /**\n     * @dev Double an elliptic curve point in affine coordinates.\n     */\n    function twice(uint x0, uint y0) private pure\n        returns (uint, uint)\n    {\n        uint z0;\n\n        (x0, y0, z0) = twiceProj(x0, y0, 1);\n\n        return toAffinePoint(x0, y0, z0);\n    }\n\n    /**\n     * @dev Multiply an elliptic curve point by a 2 power base (i.e., (2^exp)*P)).\n     */\n    function multiplyPowerBase2(uint x0, uint y0, uint exp) private pure\n        returns (uint, uint)\n    {\n        uint base2X = x0;\n        uint base2Y = y0;\n        uint base2Z = 1;\n\n        for(uint i = 0; i < exp; i++) {\n            (base2X, base2Y, base2Z) = twiceProj(base2X, base2Y, base2Z);\n        }\n\n        return toAffinePoint(base2X, base2Y, base2Z);\n    }\n\n    /**\n     * @dev Multiply an elliptic curve point by a scalar.\n     */\n    function multiplyScalar(uint x0, uint y0, uint scalar) private pure\n        returns (uint x1, uint y1)\n    {\n        if(scalar == 0) {\n            return zeroAffine();\n        }\n        else if (scalar == 1) {\n            return (x0, y0);\n        }\n        else if (scalar == 2) {\n            return twice(x0, y0);\n        }\n\n        uint base2X = x0;\n        uint base2Y = y0;\n        uint base2Z = 1;\n        uint z1 = 1;\n        x1 = x0;\n        y1 = y0;\n\n        if(scalar%2 == 0) {\n            x1 = y1 = 0;\n        }\n\n        scalar = scalar >> 1;\n\n        while(scalar > 0) {\n            (base2X, base2Y, base2Z) = twiceProj(base2X, base2Y, base2Z);\n\n            if(scalar%2 == 1) {\n                (x1, y1, z1) = addProj(base2X, base2Y, base2Z, x1, y1, z1);\n            }\n\n            scalar = scalar >> 1;\n        }\n\n        return toAffinePoint(x1, y1, z1);\n    }\n\n    /**\n     * @dev Multiply the curve's generator point by a scalar.\n     */\n    function multipleGeneratorByScalar(uint scalar) private pure\n        returns (uint, uint)\n    {\n        return multiplyScalar(gx, gy, scalar);\n    }\n\n    /**\n     * @dev Validate combination of message, signature, and public key.\n     */\n    function validateSignature(bytes32 message, uint[2] memory rs, uint[2] memory Q) public pure\n        returns (bool)\n    {\n\n        // To disambiguate between public key solutions, include comment below.\n        if(rs[0] == 0 || rs[0] >= n || rs[1] == 0) {// || rs[1] > lowSmax)\n            return false;\n        }\n        if (!isOnCurve(Q[0], Q[1])) {\n            return false;\n        }\n\n        uint x1;\n        uint x2;\n        uint y1;\n        uint y2;\n\n        uint sInv = inverseMod(rs[1], n);\n        (x1, y1) = multiplyScalar(gx, gy, mulmod(uint(message), sInv, n));\n        (x2, y2) = multiplyScalar(Q[0], Q[1], mulmod(rs[0], sInv, n));\n        uint[3] memory P = addAndReturnProjectivePoint(x1, y1, x2, y2);\n\n        if (P[2] == 0) {\n            return false;\n        }\n\n        uint Px = inverseMod(P[2], p);\n        Px = mulmod(P[0], mulmod(Px, Px, p), p);\n\n        return Px % n == rs[0];\n    }\n}",
  "sourcePath": "/Users/admin/Desktop/MasterThesis/MT/DPKI/contracts/DPKI.sol",
  "compiler": {
    "name": "solc",
    "version": "0.5.12+commit.7709ece9.Emscripten.clang"
  },
  "schemaVersion": "3.0.16",
  "updatedAt": "2019-11-12T09:38:30.318Z",
  "devdoc": {
    "methods": {
      "validateSignature(bytes32,uint256[2],uint256[2])": {
        "details": "Validate combination of message, signature, and public key."
      }
    }
  },
  "userdoc": {
    "methods": {}
  }
}