{
  "contractName": "DPKI",
  "abi": [
    {
      "constant": false,
      "inputs": [
        {
          "internalType": "uint256",
          "name": "x",
          "type": "uint256"
        },
        {
          "internalType": "uint256",
          "name": "y",
          "type": "uint256"
        },
        {
          "internalType": "uint256",
          "name": "signature",
          "type": "uint256"
        }
      ],
      "name": "createKeyRing",
      "outputs": [],
      "payable": false,
      "stateMutability": "nonpayable",
      "type": "function"
    },
    {
      "constant": false,
      "inputs": [
        {
          "internalType": "uint256",
          "name": "x",
          "type": "uint256"
        },
        {
          "internalType": "uint256",
          "name": "y",
          "type": "uint256"
        },
        {
          "internalType": "address",
          "name": "subject",
          "type": "address"
        },
        {
          "internalType": "uint256",
          "name": "signature",
          "type": "uint256"
        }
      ],
      "name": "addPublicKey",
      "outputs": [],
      "payable": false,
      "stateMutability": "nonpayable",
      "type": "function"
    },
    {
      "constant": false,
      "inputs": [
        {
          "internalType": "address",
          "name": "ringOwnerId",
          "type": "address"
        },
        {
          "internalType": "uint256",
          "name": "x",
          "type": "uint256"
        },
        {
          "internalType": "uint256",
          "name": "y",
          "type": "uint256"
        },
        {
          "internalType": "uint256",
          "name": "signature",
          "type": "uint256"
        }
      ],
      "name": "addSignature",
      "outputs": [],
      "payable": false,
      "stateMutability": "nonpayable",
      "type": "function"
    },
    {
      "constant": true,
      "inputs": [
        {
          "internalType": "address",
          "name": "ringOwnerId",
          "type": "address"
        },
        {
          "internalType": "uint256",
          "name": "x",
          "type": "uint256"
        },
        {
          "internalType": "uint256",
          "name": "y",
          "type": "uint256"
        }
      ],
      "name": "getSignatureCount",
      "outputs": [
        {
          "internalType": "uint256",
          "name": "",
          "type": "uint256"
        }
      ],
      "payable": false,
      "stateMutability": "view",
      "type": "function"
    },
    {
      "constant": true,
      "inputs": [
        {
          "internalType": "address",
          "name": "ringOwnerId",
          "type": "address"
        },
        {
          "internalType": "uint256",
          "name": "x",
          "type": "uint256"
        },
        {
          "internalType": "uint256",
          "name": "y",
          "type": "uint256"
        },
        {
          "internalType": "uint256",
          "name": "index",
          "type": "uint256"
        }
      ],
      "name": "getSignature",
      "outputs": [
        {
          "internalType": "address",
          "name": "signerId",
          "type": "address"
        },
        {
          "internalType": "uint256",
          "name": "signature",
          "type": "uint256"
        }
      ],
      "payable": false,
      "stateMutability": "view",
      "type": "function"
    },
    {
      "constant": true,
      "inputs": [],
      "name": "get",
      "outputs": [
        {
          "internalType": "uint256",
          "name": "",
          "type": "uint256"
        }
      ],
      "payable": false,
      "stateMutability": "view",
      "type": "function"
    }
  ],
  "bytecode": "0x608060405234801561001057600080fd5b50610c12806100206000396000f3fe608060405234801561001057600080fd5b50600436106100625760003560e01c80633ea635ba1461006757806359053af5146100a95780636d4ce63c14610115578063919c8e4814610133578063babeb105146101dc578063ef7caaff1461023e575b600080fd5b6100a76004803603606081101561007d57600080fd5b810190808035906020019092919080359060200190929190803590602001909291905050506102a0565b005b6100ff600480360360608110156100bf57600080fd5b81019080803573ffffffffffffffffffffffffffffffffffffffff169060200190929190803590602001909291908035906020019092919050505061050e565b6040518082815260200191505060405180910390f35b61011d610583565b6040518082815260200191505060405180910390f35b6101936004803603608081101561014957600080fd5b81019080803573ffffffffffffffffffffffffffffffffffffffff16906020019092919080359060200190929190803590602001909291908035906020019092919050505061058c565b604051808373ffffffffffffffffffffffffffffffffffffffff1673ffffffffffffffffffffffffffffffffffffffff1681526020018281526020019250505060405180910390f35b61023c600480360360808110156101f257600080fd5b81019080803573ffffffffffffffffffffffffffffffffffffffff16906020019092919080359060200190929190803590602001909291908035906020019092919050505061069b565b005b61029e6004803603608081101561025457600080fd5b810190808035906020019092919080359060200190929190803573ffffffffffffffffffffffffffffffffffffffff16906020019092919080359060200190929190505050610879565b005b60008060003373ffffffffffffffffffffffffffffffffffffffff1673ffffffffffffffffffffffffffffffffffffffff1681526020019081526020016000209050600015158160000160149054906101000a900460ff1615151461036d576040517f08c379a00000000000000000000000000000000000000000000000000000000081526004018080602001828103825260108152602001807f6b657952696e67206578697374696e670000000000000000000000000000000081525060200191505060405180910390fd5b338160000160006101000a81548173ffffffffffffffffffffffffffffffffffffffff021916908373ffffffffffffffffffffffffffffffffffffffff16021790555033816001016000868152602001908152602001600020600085815260200190815260200160002060000160006101000a81548173ffffffffffffffffffffffffffffffffffffffff021916908373ffffffffffffffffffffffffffffffffffffffff160217905550806001016000858152602001908152602001600020600084815260200190815260200160002060010160405180604001604052803373ffffffffffffffffffffffffffffffffffffffff168152602001848152509080600181540180825580915050906001820390600052602060002090600202016000909192909190915060008201518160000160006101000a81548173ffffffffffffffffffffffffffffffffffffffff021916908373ffffffffffffffffffffffffffffffffffffffff1602179055506020820151816001015550505060018160000160146101000a81548160ff02191690831515021790555050505050565b60008060008573ffffffffffffffffffffffffffffffffffffffff1673ffffffffffffffffffffffffffffffffffffffff168152602001908152602001600020600101600084815260200190815260200160002060008381526020019081526020016000206001018054905090509392505050565b6000600a905090565b600080610597610bad565b6000808873ffffffffffffffffffffffffffffffffffffffff1673ffffffffffffffffffffffffffffffffffffffff16815260200190815260200160002060010160008781526020019081526020016000206000868152602001908152602001600020600101848154811061060857fe5b90600052602060002090600202016040518060400160405290816000820160009054906101000a900473ffffffffffffffffffffffffffffffffffffffff1673ffffffffffffffffffffffffffffffffffffffff1673ffffffffffffffffffffffffffffffffffffffff168152602001600182015481525050905080600001518160200151925092505094509492505050565b600115156000808673ffffffffffffffffffffffffffffffffffffffff1673ffffffffffffffffffffffffffffffffffffffff16815260200190815260200160002060000160149054906101000a900460ff16151514610763576040517f08c379a00000000000000000000000000000000000000000000000000000000081526004018080602001828103825260148152602001807f6b657952696e67206e6f74206578697374696e6700000000000000000000000081525060200191505060405180910390fd5b6000808573ffffffffffffffffffffffffffffffffffffffff1673ffffffffffffffffffffffffffffffffffffffff1681526020019081526020016000206001016000848152602001908152602001600020600083815260200190815260200160002060010160405180604001604052803373ffffffffffffffffffffffffffffffffffffffff168152602001838152509080600181540180825580915050906001820390600052602060002090600202016000909192909190915060008201518160000160006101000a81548173ffffffffffffffffffffffffffffffffffffffff021916908373ffffffffffffffffffffffffffffffffffffffff1602179055506020820151816001015550505050505050565b60008060003373ffffffffffffffffffffffffffffffffffffffff1673ffffffffffffffffffffffffffffffffffffffff16815260200190815260200160002090503373ffffffffffffffffffffffffffffffffffffffff168160000160009054906101000a900473ffffffffffffffffffffffffffffffffffffffff1673ffffffffffffffffffffffffffffffffffffffff1614610980576040517f08c379a00000000000000000000000000000000000000000000000000000000081526004018080602001828103825260108152602001807f6e6f74206b657952696e674f776e65720000000000000000000000000000000081525060200191505060405180910390fd5b600073ffffffffffffffffffffffffffffffffffffffff16816001016000878152602001908152602001600020600086815260200190815260200160002060000160009054906101000a900473ffffffffffffffffffffffffffffffffffffffff1673ffffffffffffffffffffffffffffffffffffffff1614610a6b576040517f08c379a000000000000000000000000000000000000000000000000000000000815260040180806020018281038252600c8152602001807f6b6579206578697374696e67000000000000000000000000000000000000000081525060200191505060405180910390fd5b82816001016000878152602001908152602001600020600086815260200190815260200160002060000160006101000a81548173ffffffffffffffffffffffffffffffffffffffff021916908373ffffffffffffffffffffffffffffffffffffffff160217905550806001016000868152602001908152602001600020600085815260200190815260200160002060010160405180604001604052808573ffffffffffffffffffffffffffffffffffffffff168152602001848152509080600181540180825580915050906001820390600052602060002090600202016000909192909190915060008201518160000160006101000a81548173ffffffffffffffffffffffffffffffffffffffff021916908373ffffffffffffffffffffffffffffffffffffffff160217905550602082015181600101555050505050505050565b6040518060400160405280600073ffffffffffffffffffffffffffffffffffffffff16815260200160008152509056fea265627a7a723158200bd7c443b5924764a7ba2b94e4ba645c30543005771394b67700a5b747e0a45964736f6c634300050b0032",
  "source": "pragma solidity 0.5.11;\n\ncontract DPKI{\n\n    mapping (address => KeyRing) keyRings;\n\n    struct KeyRing{\n        address ringOwnerId;\n        bool isSet;\n        mapping (uint => mapping(uint => PublicKey)) publicKeys;\n    }\n\n    struct PublicKey{\n        address keyOwnerId;\n        Signature[] signatures;\n    }\n\n    struct Signature{\n        address signerId;\n        uint signature;\n    }\n\n    function createKeyRing(uint x, uint y, uint signature) public{\n        KeyRing storage keyRing = keyRings[msg.sender];\n        require(keyRing.isSet == false, 'keyRing existing');\n        keyRing.ringOwnerId = msg.sender;\n        keyRing.publicKeys[x][y].keyOwnerId = msg.sender;\n        keyRing.publicKeys[x][y].signatures.push(Signature(msg.sender, signature));\n        keyRing.isSet = true;\n        //assert(keyRing.isSet == true);\n    }\n\n    function addPublicKey(uint x, uint y, address subject, uint signature) public {\n        KeyRing storage keyRing = keyRings[msg.sender];\n        require(keyRing.ringOwnerId == msg.sender, 'not keyRingOwner');\n        require(keyRing.publicKeys[x][y].keyOwnerId == address(0), 'key existing');\n        keyRing.publicKeys[x][y].keyOwnerId = subject;\n        keyRing.publicKeys[x][y].signatures.push(Signature(subject, signature));\n    }\n\n    function addSignature(address ringOwnerId, uint x, uint y, uint signature) public{\n        require(keyRings[ringOwnerId].isSet == true, 'keyRing not existing');\n        keyRings[ringOwnerId].publicKeys[x][y].signatures.push(Signature(msg.sender, signature));\n    }\n\n    function getSignatureCount(address ringOwnerId, uint x, uint y) public view returns(uint){\n        return keyRings[ringOwnerId].publicKeys[x][y].signatures.length;\n    }\n\n    function getSignature(address ringOwnerId, uint x, uint y, uint index) public view returns(address signerId, uint signature){\n        Signature memory currSignature = keyRings[ringOwnerId].publicKeys[x][y].signatures[index];\n        return(currSignature.signerId, currSignature.signature);\n    }\n\n    function get() public view returns(uint){\n        return(10);\n    }\n}",
  "sourcePath": "/Users/admin/Desktop/MasterThesis/DPKI/contracts/DPKI.sol",
  "compiler": {
    "name": "solc",
    "version": "0.5.11+commit.c082d0b4.Emscripten.clang"
  },
  "schemaVersion": "3.0.16",
  "updatedAt": "2019-10-23T10:04:42.549Z",
  "devdoc": {
    "methods": {}
  },
  "userdoc": {
    "methods": {}
  }
}