{
  "contractName": "DPKI",
  "abi": [
    {
      "constant": true,
      "inputs": [
        {
          "internalType": "address",
          "name": "",
          "type": "address"
        }
      ],
      "name": "keyRings",
      "outputs": [
        {
          "internalType": "address",
          "name": "ringOwner",
          "type": "address"
        }
      ],
      "payable": false,
      "stateMutability": "view",
      "type": "function"
    },
    {
      "constant": true,
      "inputs": [
        {
          "internalType": "bytes32",
          "name": "",
          "type": "bytes32"
        }
      ],
      "name": "publicKeys",
      "outputs": [
        {
          "internalType": "address",
          "name": "",
          "type": "address"
        }
      ],
      "payable": false,
      "stateMutability": "view",
      "type": "function"
    },
    {
      "constant": true,
      "inputs": [
        {
          "internalType": "bytes32",
          "name": "",
          "type": "bytes32"
        }
      ],
      "name": "revokedKeys",
      "outputs": [
        {
          "internalType": "bool",
          "name": "",
          "type": "bool"
        }
      ],
      "payable": false,
      "stateMutability": "view",
      "type": "function"
    },
    {
      "constant": false,
      "inputs": [
        {
          "internalType": "bytes32",
          "name": "keyHash",
          "type": "bytes32"
        },
        {
          "internalType": "uint256[2]",
          "name": "rs",
          "type": "uint256[2]"
        },
        {
          "internalType": "uint256[2]",
          "name": "Q",
          "type": "uint256[2]"
        }
      ],
      "name": "addKey",
      "outputs": [],
      "payable": false,
      "stateMutability": "nonpayable",
      "type": "function"
    },
    {
      "constant": false,
      "inputs": [
        {
          "internalType": "bytes32",
          "name": "keyHash",
          "type": "bytes32"
        }
      ],
      "name": "revokeKey",
      "outputs": [],
      "payable": false,
      "stateMutability": "nonpayable",
      "type": "function"
    },
    {
      "constant": false,
      "inputs": [],
      "name": "createKeyRing",
      "outputs": [],
      "payable": false,
      "stateMutability": "nonpayable",
      "type": "function"
    },
    {
      "constant": false,
      "inputs": [
        {
          "internalType": "bytes32",
          "name": "keyHash",
          "type": "bytes32"
        },
        {
          "internalType": "string",
          "name": "aud",
          "type": "string"
        },
        {
          "internalType": "string",
          "name": "scope",
          "type": "string"
        },
        {
          "internalType": "uint256",
          "name": "expiry",
          "type": "uint256"
        }
      ],
      "name": "giveAccess",
      "outputs": [],
      "payable": false,
      "stateMutability": "nonpayable",
      "type": "function"
    },
    {
      "constant": false,
      "inputs": [
        {
          "internalType": "bytes32",
          "name": "keyHash",
          "type": "bytes32"
        },
        {
          "internalType": "string",
          "name": "aud",
          "type": "string"
        },
        {
          "internalType": "uint256",
          "name": "expiry",
          "type": "uint256"
        }
      ],
      "name": "updateExpiry",
      "outputs": [],
      "payable": false,
      "stateMutability": "nonpayable",
      "type": "function"
    },
    {
      "constant": false,
      "inputs": [
        {
          "internalType": "bytes32",
          "name": "keyHash",
          "type": "bytes32"
        },
        {
          "internalType": "string",
          "name": "aud",
          "type": "string"
        },
        {
          "internalType": "string",
          "name": "scope",
          "type": "string"
        }
      ],
      "name": "changeScope",
      "outputs": [],
      "payable": false,
      "stateMutability": "nonpayable",
      "type": "function"
    },
    {
      "constant": false,
      "inputs": [
        {
          "internalType": "address",
          "name": "ringAddress",
          "type": "address"
        }
      ],
      "name": "trustRing",
      "outputs": [],
      "payable": false,
      "stateMutability": "nonpayable",
      "type": "function"
    },
    {
      "constant": false,
      "inputs": [
        {
          "internalType": "uint256",
          "name": "index",
          "type": "uint256"
        }
      ],
      "name": "untrustRing",
      "outputs": [],
      "payable": false,
      "stateMutability": "nonpayable",
      "type": "function"
    },
    {
      "constant": true,
      "inputs": [
        {
          "internalType": "address",
          "name": "ringAddress",
          "type": "address"
        }
      ],
      "name": "getTrustedRingsCount",
      "outputs": [
        {
          "internalType": "uint256",
          "name": "",
          "type": "uint256"
        }
      ],
      "payable": false,
      "stateMutability": "view",
      "type": "function"
    },
    {
      "constant": true,
      "inputs": [
        {
          "internalType": "address",
          "name": "ringAddress",
          "type": "address"
        },
        {
          "internalType": "uint256",
          "name": "index",
          "type": "uint256"
        }
      ],
      "name": "getTrustedRingAddress",
      "outputs": [
        {
          "internalType": "address",
          "name": "",
          "type": "address"
        }
      ],
      "payable": false,
      "stateMutability": "view",
      "type": "function"
    },
    {
      "constant": true,
      "inputs": [
        {
          "internalType": "bytes32",
          "name": "message",
          "type": "bytes32"
        },
        {
          "internalType": "uint256[2]",
          "name": "rs",
          "type": "uint256[2]"
        },
        {
          "internalType": "uint256[2]",
          "name": "Q",
          "type": "uint256[2]"
        }
      ],
      "name": "validateSignature",
      "outputs": [
        {
          "internalType": "bool",
          "name": "",
          "type": "bool"
        }
      ],
      "payable": false,
      "stateMutability": "pure",
      "type": "function"
    }
  ],
  "bytecode": "0x608060405234801561001057600080fd5b50612d8e806100206000396000f3fe608060405234801561001057600080fd5b50600436106100ea5760003560e01c8063798a74ba1161008c578063c749a35b11610066578063c749a35b1461078c578063caf7c50d1461081a578063f03dc5ef14610848578063f662bcf0146108b6576100ea565b8063798a74ba146105305780639ee616b5146105e0578063afb07a6714610746576100ea565b806336bd9fe8116100c857806336bd9fe8146102de5780634186539f1461043a578063572f2210146104be5780636d09a399146104ec576100ea565b806304e960d7146100ef5780632b165771146101b7578063307b05ff14610286575b600080fd5b61019d600480360360a081101561010557600080fd5b810190808035906020019092919080604001906002806020026040519081016040528092919082600260200280828437600081840152601f19601f820116905080830192505050505050919291929080604001906002806020026040519081016040528092919082600260200280828437600081840152601f19601f82011690508083019250505050505091929192905050506108c0565b604051808215151515815260200191505060405180910390f35b610284600480360360608110156101cd57600080fd5b8101908080359060200190929190803590602001906401000000008111156101f457600080fd5b82018360208201111561020657600080fd5b8035906020019184600183028401116401000000008311171561022857600080fd5b91908080601f016020809104026020016040519081016040528093929190818152602001838380828437600081840152601f19601f82011690508083019250505050505050919291929080359060200190929190505050610bde565b005b6102c86004803603602081101561029c57600080fd5b81019080803573ffffffffffffffffffffffffffffffffffffffff169060200190929190505050610d70565b6040518082815260200191505060405180910390f35b610438600480360360608110156102f457600080fd5b81019080803590602001909291908035906020019064010000000081111561031b57600080fd5b82018360208201111561032d57600080fd5b8035906020019184600183028401116401000000008311171561034f57600080fd5b91908080601f016020809104026020016040519081016040528093929190818152602001838380828437600081840152601f19601f820116905080830192505050505050509192919290803590602001906401000000008111156103b257600080fd5b8201836020820111156103c457600080fd5b803590602001918460018302840111640100000000831117156103e657600080fd5b91908080601f016020809104026020016040519081016040528093929190818152602001838380828437600081840152601f19601f820116905080830192505050505050509192919290505050610e47565b005b61047c6004803603602081101561045057600080fd5b81019080803573ffffffffffffffffffffffffffffffffffffffff1690602001909291905050506110df565b604051808273ffffffffffffffffffffffffffffffffffffffff1673ffffffffffffffffffffffffffffffffffffffff16815260200191505060405180910390f35b6104ea600480360360208110156104d457600080fd5b810190808035906020019092919050505061111d565b005b61052e6004803603602081101561050257600080fd5b81019080803573ffffffffffffffffffffffffffffffffffffffff1690602001909291905050506112f3565b005b6105de600480360360a081101561054657600080fd5b810190808035906020019092919080604001906002806020026040519081016040528092919082600260200280828437600081840152601f19601f820116905080830192505050505050919291929080604001906002806020026040519081016040528092919082600260200280828437600081840152601f19601f8201169050808301925050505050509192919290505050611467565b005b610744600480360360808110156105f657600080fd5b81019080803590602001909291908035906020019064010000000081111561061d57600080fd5b82018360208201111561062f57600080fd5b8035906020019184600183028401116401000000008311171561065157600080fd5b91908080601f016020809104026020016040519081016040528093929190818152602001838380828437600081840152601f19601f820116905080830192505050505050509192919290803590602001906401000000008111156106b457600080fd5b8201836020820111156106c657600080fd5b803590602001918460018302840111640100000000831117156106e857600080fd5b91908080601f016020809104026020016040519081016040528093929190818152602001838380828437600081840152601f19601f82011690508083019250505050505050919291929080359060200190929190505050611615565b005b6107726004803603602081101561075c57600080fd5b8101908080359060200190929190505050611879565b604051808215151515815260200191505060405180910390f35b6107d8600480360360408110156107a257600080fd5b81019080803573ffffffffffffffffffffffffffffffffffffffff16906020019092919080359060200190929190505050611899565b604051808273ffffffffffffffffffffffffffffffffffffffff1673ffffffffffffffffffffffffffffffffffffffff16815260200191505060405180910390f35b6108466004803603602081101561083057600080fd5b810190808035906020019092919050505061191b565b005b6108746004803603602081101561085e57600080fd5b8101908080359060200190929190505050611a63565b604051808273ffffffffffffffffffffffffffffffffffffffff1673ffffffffffffffffffffffffffffffffffffffff16815260200191505060405180910390f35b6108be611a96565b005b600080836000600281106108d057fe5b6020020151148061091257507fffffffff00000000ffffffffffffffffbce6faada7179e84f3b9cac2fc6325518360006002811061090a57fe5b602002015110155b8061092e575060008360016002811061092757fe5b6020020151145b1561093c5760009050610bd7565b6109688260006002811061094c57fe5b60200201518360016002811061095e57fe5b6020020151611be5565b6109755760009050610bd7565b60008060008060006109b88860016002811061098d57fe5b60200201517fffffffff00000000ffffffffffffffffbce6faada7179e84f3b9cac2fc632551611e04565b9050610a327f6b17d1f2e12c4247f8bce6e563a440f277037d812deb33a0f4a13945d898c2967f4fe342e2fe1a7f9b8ee7eb4a7c0f9e162bce33576b315ececbb6406837bf51f57fffffffff00000000ffffffffffffffffbce6faada7179e84f3b9cac2fc63255180610a2757fe5b848d60001c09611eb4565b8094508196505050610aa287600060028110610a4a57fe5b602002015188600160028110610a5c57fe5b60200201517fffffffff00000000ffffffffffffffffbce6faada7179e84f3b9cac2fc63255180610a8957fe5b848c600060028110610a9757fe5b602002015109611eb4565b8093508195505050610ab2612c12565b610abe86858786611fb6565b9050600081600260038110610acf57fe5b60200201511415610ae95760009650505050505050610bd7565b6000610b2682600260038110610afb57fe5b60200201517fffffffff00000001000000000000000000000000ffffffffffffffffffffffff611e04565b90507fffffffff00000001000000000000000000000000ffffffffffffffffffffffff80610b5057fe5b7fffffffff00000001000000000000000000000000ffffffffffffffffffffffff80610b7857fe5b82830983600060038110610b8857fe5b602002015109905089600060028110610b9d57fe5b60200201517fffffffff00000000ffffffffffffffffbce6faada7179e84f3b9cac2fc6325518281610bcb57fe5b06149750505050505050505b9392505050565b6000600260003373ffffffffffffffffffffffffffffffffffffffff1673ffffffffffffffffffffffffffffffffffffffff16815260200190815260200160002090503373ffffffffffffffffffffffffffffffffffffffff168160000160009054906101000a900473ffffffffffffffffffffffffffffffffffffffff1673ffffffffffffffffffffffffffffffffffffffff1614610ce6576040517f08c379a00000000000000000000000000000000000000000000000000000000081526004018080602001828103825260118152602001807f6e6f74206b657952696e67204f776e657200000000000000000000000000000081525060200191505060405180910390fd5b81816002016000868152602001908152602001600020846040518082805190602001908083835b60208310610d305780518252602082019150602081019050602083039250610d0d565b6001836020036101000a03801982511681845116808217855250505050505090500191505090815260200160405180910390206001018190555050505050565b60006060600260008473ffffffffffffffffffffffffffffffffffffffff1673ffffffffffffffffffffffffffffffffffffffff168152602001908152602001600020600101805480602002602001604051908101604052809291908181526020018280548015610e3657602002820191906000526020600020905b8160009054906101000a900473ffffffffffffffffffffffffffffffffffffffff1673ffffffffffffffffffffffffffffffffffffffff1681526020019060010190808311610dec575b505050505090508051915050919050565b6000600260003373ffffffffffffffffffffffffffffffffffffffff1673ffffffffffffffffffffffffffffffffffffffff16815260200190815260200160002090503373ffffffffffffffffffffffffffffffffffffffff168160000160009054906101000a900473ffffffffffffffffffffffffffffffffffffffff1673ffffffffffffffffffffffffffffffffffffffff1614610f4f576040517f08c379a00000000000000000000000000000000000000000000000000000000081526004018080602001828103825260118152602001807f6e6f74206b657952696e67204f776e657200000000000000000000000000000081525060200191505060405180910390fd5b6000816002016000868152602001908152602001600020846040518082805190602001908083835b60208310610f9a5780518252602082019150602081019050602083039250610f77565b6001836020036101000a0380198251168184511680821785525050505050509050019150509081526020016040518091039020600101541415611045576040517f08c379a00000000000000000000000000000000000000000000000000000000081526004018080602001828103825260098152602001807f6e6f20657870697279000000000000000000000000000000000000000000000081525060200191505060405180910390fd5b81816002016000868152602001908152602001600020846040518082805190602001908083835b6020831061108f578051825260208201915060208101905060208303925061106c565b6001836020036101000a038019825116818451168082178552505050505050905001915050908152602001604051809103902060000190805190602001906110d8929190612c34565b5050505050565b60026020528060005260406000206000915090508060000160009054906101000a900473ffffffffffffffffffffffffffffffffffffffff16905081565b600073ffffffffffffffffffffffffffffffffffffffff1660008083815260200190815260200160002060009054906101000a900473ffffffffffffffffffffffffffffffffffffffff1673ffffffffffffffffffffffffffffffffffffffff1614156111f2576040517f08c379a00000000000000000000000000000000000000000000000000000000081526004018080602001828103825260108152602001807f6b6579206e6f74206578697374696e670000000000000000000000000000000081525060200191505060405180910390fd5b3373ffffffffffffffffffffffffffffffffffffffff1660008083815260200190815260200160002060009054906101000a900473ffffffffffffffffffffffffffffffffffffffff1673ffffffffffffffffffffffffffffffffffffffff16146112c5576040517f08c379a00000000000000000000000000000000000000000000000000000000081526004018080602001828103825260138152602001807f6e6f207065726d697420746f207265766f6b650000000000000000000000000081525060200191505060405180910390fd5b600180600083815260200190815260200160002060006101000a81548160ff02191690831515021790555050565b6000600260003373ffffffffffffffffffffffffffffffffffffffff1673ffffffffffffffffffffffffffffffffffffffff16815260200190815260200160002090503373ffffffffffffffffffffffffffffffffffffffff168160000160009054906101000a900473ffffffffffffffffffffffffffffffffffffffff1673ffffffffffffffffffffffffffffffffffffffff16146113fb576040517f08c379a00000000000000000000000000000000000000000000000000000000081526004018080602001828103825260118152602001807f6e6f74206b657952696e67204f776e657200000000000000000000000000000081525060200191505060405180910390fd5b806001018290806001815401808255809150509060018203906000526020600020016000909192909190916101000a81548173ffffffffffffffffffffffffffffffffffffffff021916908373ffffffffffffffffffffffffffffffffffffffff160217905550505050565b600073ffffffffffffffffffffffffffffffffffffffff1660008085815260200190815260200160002060009054906101000a900473ffffffffffffffffffffffffffffffffffffffff1673ffffffffffffffffffffffffffffffffffffffff161461153b576040517f08c379a000000000000000000000000000000000000000000000000000000000815260040180806020018281038252600c8152602001807f6b6579206578697374696e67000000000000000000000000000000000000000081525060200191505060405180910390fd5b6001151561154a8484846108c0565b1515146115bf576040517f08c379a00000000000000000000000000000000000000000000000000000000081526004018080602001828103825260138152602001807f7369676e6174757265206d6973736d617463680000000000000000000000000081525060200191505060405180910390fd5b3360008085815260200190815260200160002060006101000a81548173ffffffffffffffffffffffffffffffffffffffff021916908373ffffffffffffffffffffffffffffffffffffffff160217905550505050565b6000600260003373ffffffffffffffffffffffffffffffffffffffff1673ffffffffffffffffffffffffffffffffffffffff16815260200190815260200160002090503373ffffffffffffffffffffffffffffffffffffffff168160000160009054906101000a900473ffffffffffffffffffffffffffffffffffffffff1673ffffffffffffffffffffffffffffffffffffffff161461171d576040517f08c379a00000000000000000000000000000000000000000000000000000000081526004018080602001828103825260118152602001807f6e6f74206b657952696e67204f776e657200000000000000000000000000000081525060200191505060405180910390fd5b600015156001600087815260200190815260200160002060009054906101000a900460ff161515146117b7576040517f08c379a000000000000000000000000000000000000000000000000000000000815260040180806020018281038252600e8152602001807f6b6579206973207265766f6b656400000000000000000000000000000000000081525060200191505060405180910390fd5b604051806040016040528084815260200183815250816002016000878152602001908152602001600020856040518082805190602001908083835b6020831061181557805182526020820191506020810190506020830392506117f2565b6001836020036101000a03801982511681845116808217855250505050505090500191505090815260200160405180910390206000820151816000019080519060200190611864929190612cb4565b50602082015181600101559050505050505050565b60016020528060005260406000206000915054906101000a900460ff1681565b6000600260008473ffffffffffffffffffffffffffffffffffffffff1673ffffffffffffffffffffffffffffffffffffffff16815260200190815260200160002060010182815481106118e857fe5b9060005260206000200160009054906101000a900473ffffffffffffffffffffffffffffffffffffffff16905092915050565b6000600260003373ffffffffffffffffffffffffffffffffffffffff1673ffffffffffffffffffffffffffffffffffffffff16815260200190815260200160002090503373ffffffffffffffffffffffffffffffffffffffff168160000160009054906101000a900473ffffffffffffffffffffffffffffffffffffffff1673ffffffffffffffffffffffffffffffffffffffff1614611a23576040517f08c379a00000000000000000000000000000000000000000000000000000000081526004018080602001828103825260118152602001807f6e6f74206b657952696e67204f776e657200000000000000000000000000000081525060200191505060405180910390fd5b806001018281548110611a3257fe5b9060005260206000200160006101000a81549073ffffffffffffffffffffffffffffffffffffffff02191690555050565b60006020528060005260406000206000915054906101000a900473ffffffffffffffffffffffffffffffffffffffff1681565b6000600260003373ffffffffffffffffffffffffffffffffffffffff1673ffffffffffffffffffffffffffffffffffffffff1681526020019081526020016000209050600073ffffffffffffffffffffffffffffffffffffffff168160000160009054906101000a900473ffffffffffffffffffffffffffffffffffffffff1673ffffffffffffffffffffffffffffffffffffffff1614611b9f576040517f08c379a00000000000000000000000000000000000000000000000000000000081526004018080602001828103825260108152602001807f6b657952696e67206578697374696e670000000000000000000000000000000081525060200191505060405180910390fd5b338160000160006101000a81548173ffffffffffffffffffffffffffffffffffffffff021916908373ffffffffffffffffffffffffffffffffffffffff16021790555050565b60008260001480611c1557507fffffffff00000001000000000000000000000000ffffffffffffffffffffffff83145b80611c205750816000145b80611c4a57507fffffffff00000001000000000000000000000000ffffffffffffffffffffffff82145b15611c585760009050611dfe565b60007fffffffff00000001000000000000000000000000ffffffffffffffffffffffff80611c8257fe5b838409905060007fffffffff00000001000000000000000000000000ffffffffffffffffffffffff80611cb157fe5b857fffffffff00000001000000000000000000000000ffffffffffffffffffffffff80611cda57fe5b87880909905060007fffffffff00000001000000000000000000000000fffffffffffffffffffffffc14611d80577fffffffff00000001000000000000000000000000ffffffffffffffffffffffff80611d3057fe5b7fffffffff00000001000000000000000000000000ffffffffffffffffffffffff80611d5857fe5b7fffffffff00000001000000000000000000000000fffffffffffffffffffffffc8709820890505b60007f5ac635d8aa3a93e7b3ebbd55769886bc651d06b0cc53b0f63bce3c3e27d2604b14611df6577fffffffff00000001000000000000000000000000ffffffffffffffffffffffff80611dd057fe5b7f5ac635d8aa3a93e7b3ebbd55769886bc651d06b0cc53b0f63bce3c3e27d2604b820890505b808214925050505b92915050565b600080831480611e1357508183145b80611e1e5750600082145b15611e2c5760009050611eae565b81831115611e4157818381611e3d57fe5b0692505b600080600190506000849050600086905060005b60008214611e8a57818381611e6657fe5b04905083848202860383848402860380955081965082975083985050505050611e55565b6000851215611ea55784600003870395505050505050611eae565b84955050505050505b92915050565b6000806000831415611ed157611ec8611feb565b91509150611fae565b6001831415611ee557848491509150611fae565b6002831415611f0157611ef88585611fff565b91509150611fae565b60008590506000859050600060019050600060019050889550879450600060028881611f2957fe5b061415611f3857600094508495505b600187901c96505b6000871115611f9a57611f54848484612033565b809450819550829650505050600160028881611f6c57fe5b061415611f8e57611f818484848989866124db565b8093508197508298505050505b600187901c9650611f40565b611fa5868683612671565b95509550505050505b935093915050565b611fbe612c12565b600080611fcd87878787612705565b8092508193505050611fdf828261273f565b92505050949350505050565b600080600080819150809050915091509091565b600080600061201085856001612033565b809350819650829750505050612027858583612671565b92509250509250929050565b60008060008060008060006120488a8a612834565b156120645761205561285e565b965096509650505050506124d2565b7fffffffff00000001000000000000000000000000ffffffffffffffffffffffff8061208c57fe5b888a0992507fffffffff00000001000000000000000000000000ffffffffffffffffffffffff806120b957fe5b6002840992507fffffffff00000001000000000000000000000000ffffffffffffffffffffffff806120e757fe5b8a840991507fffffffff00000001000000000000000000000000ffffffffffffffffffffffff8061211457fe5b89830991507fffffffff00000001000000000000000000000000ffffffffffffffffffffffff8061214157fe5b6002830991507fffffffff00000001000000000000000000000000ffffffffffffffffffffffff8061216f57fe5b8a8b0999507fffffffff00000001000000000000000000000000ffffffffffffffffffffffff8061219c57fe5b60038b0993507fffffffff00000001000000000000000000000000ffffffffffffffffffffffff806121ca57fe5b88890997507fffffffff00000001000000000000000000000000ffffffffffffffffffffffff806121f757fe5b7fffffffff00000001000000000000000000000000fffffffffffffffffffffffc890997507fffffffff00000001000000000000000000000000ffffffffffffffffffffffff8061224457fe5b88850893507fffffffff00000001000000000000000000000000ffffffffffffffffffffffff8061227157fe5b84850990507fffffffff00000001000000000000000000000000ffffffffffffffffffffffff8061229e57fe5b8260020999507fffffffff00000001000000000000000000000000ffffffffffffffffffffffff806122cc57fe5b8a7fffffffff00000001000000000000000000000000ffffffffffffffffffffffff03820890507fffffffff00000001000000000000000000000000ffffffffffffffffffffffff8061231b57fe5b817fffffffff00000001000000000000000000000000ffffffffffffffffffffffff03830899507fffffffff00000001000000000000000000000000ffffffffffffffffffffffff8061236a57fe5b8a850999507fffffffff00000001000000000000000000000000ffffffffffffffffffffffff8061239757fe5b838a0998507fffffffff00000001000000000000000000000000ffffffffffffffffffffffff806123c457fe5b898a0998507fffffffff00000001000000000000000000000000ffffffffffffffffffffffff806123f157fe5b8960020998507fffffffff00000001000000000000000000000000ffffffffffffffffffffffff8061241f57fe5b897fffffffff00000001000000000000000000000000ffffffffffffffffffffffff038b0895507fffffffff00000001000000000000000000000000ffffffffffffffffffffffff8061246e57fe5b81840996507fffffffff00000001000000000000000000000000ffffffffffffffffffffffff8061249b57fe5b83840994507fffffffff00000001000000000000000000000000ffffffffffffffffffffffff806124c857fe5b8386099450505050505b93509350939050565b60008060008060008060006124f08d8d612834565b156125075789898996509650965050505050612665565b6125118a8a612834565b15612528578c8c8c96509650965050505050612665565b7fffffffff00000001000000000000000000000000ffffffffffffffffffffffff8061255057fe5b888d0993507fffffffff00000001000000000000000000000000ffffffffffffffffffffffff8061257d57fe5b8b8a0992507fffffffff00000001000000000000000000000000ffffffffffffffffffffffff806125aa57fe5b888e0991507fffffffff00000001000000000000000000000000ffffffffffffffffffffffff806125d757fe5b8b8b0990508082141561261d5782841415612606576125f78d8d8d612033565b96509650965050505050612665565b61260e61285e565b96509650965050505050612665565b6126547fffffffff00000001000000000000000000000000ffffffffffffffffffffffff8061264857fe5b898d098383868861287c565b809750819850829950505050505050505b96509650969350505050565b60008060006126a0847fffffffff00000001000000000000000000000000ffffffffffffffffffffffff611e04565b90507fffffffff00000001000000000000000000000000ffffffffffffffffffffffff806126ca57fe5b81870992507fffffffff00000001000000000000000000000000ffffffffffffffffffffffff806126f757fe5b818609915050935093915050565b600080600061271a87876001888860016124db565b809350819850829950505050612731878783612671565b925092505094509492505050565b612747612c12565b7fffffffff00000001000000000000000000000000ffffffffffffffffffffffff8061276f57fe5b60016000088160026003811061278157fe5b6020020181815250507fffffffff00000001000000000000000000000000ffffffffffffffffffffffff806127b257fe5b816002600381106127bf57fe5b60200201518409816000600381106127d357fe5b6020020181815250507fffffffff00000001000000000000000000000000ffffffffffffffffffffffff8061280457fe5b8160026003811061281157fe5b602002015183098160016003811061282557fe5b60200201818152505092915050565b600080831480156128455750600082145b156128535760019050612858565b600090505b92915050565b60008060008060016000829250819150809050925092509250909192565b6000806000806000806000807fffffffff00000001000000000000000000000000ffffffffffffffffffffffff806128b057fe5b8a7fffffffff00000001000000000000000000000000ffffffffffffffffffffffff038a0890507fffffffff00000001000000000000000000000000ffffffffffffffffffffffff806128ff57fe5b8b7fffffffff00000001000000000000000000000000ffffffffffffffffffffffff038d0894507fffffffff00000001000000000000000000000000ffffffffffffffffffffffff8061294e57fe5b85860993507fffffffff00000001000000000000000000000000ffffffffffffffffffffffff8061297b57fe5b81820991507fffffffff00000001000000000000000000000000ffffffffffffffffffffffff806129a857fe5b8d830991507fffffffff00000001000000000000000000000000ffffffffffffffffffffffff806129d557fe5b8c8c089a507fffffffff00000001000000000000000000000000ffffffffffffffffffffffff80612a0257fe5b848c099a507fffffffff00000001000000000000000000000000ffffffffffffffffffffffff80612a2f57fe5b8b7fffffffff00000001000000000000000000000000ffffffffffffffffffffffff03830891507fffffffff00000001000000000000000000000000ffffffffffffffffffffffff80612a7e57fe5b82860997507fffffffff00000001000000000000000000000000ffffffffffffffffffffffff80612aab57fe5b85850992507fffffffff00000001000000000000000000000000ffffffffffffffffffffffff80612ad857fe5b848d099b507fffffffff00000001000000000000000000000000ffffffffffffffffffffffff80612b0557fe5b827fffffffff00000001000000000000000000000000ffffffffffffffffffffffff038d089b507fffffffff00000001000000000000000000000000ffffffffffffffffffffffff80612b5457fe5b8c820990507fffffffff00000001000000000000000000000000ffffffffffffffffffffffff80612b8157fe5b838a0998507fffffffff00000001000000000000000000000000ffffffffffffffffffffffff80612bae57fe5b897fffffffff00000001000000000000000000000000ffffffffffffffffffffffff03820896507fffffffff00000001000000000000000000000000ffffffffffffffffffffffff80612bfd57fe5b8d840995505050505050955095509592505050565b6040518060600160405280600390602082028038833980820191505090505090565b828054600181600116156101000203166002900490600052602060002090601f016020900481019282601f10612c7557805160ff1916838001178555612ca3565b82800160010185558215612ca3579182015b82811115612ca2578251825591602001919060010190612c87565b5b509050612cb09190612d34565b5090565b828054600181600116156101000203166002900490600052602060002090601f016020900481019282601f10612cf557805160ff1916838001178555612d23565b82800160010185558215612d23579182015b82811115612d22578251825591602001919060010190612d07565b5b509050612d309190612d34565b5090565b612d5691905b80821115612d52576000816000905550600101612d3a565b5090565b9056fea265627a7a72315820838bb3813c83a766d930e35c5ab55e8f16889f05c7d9d2c052bface7e26968e964736f6c634300050c0032",
  "source": "pragma solidity 0.5.12;\n\ncontract DPKI{\n\n    mapping (bytes32 => address) public publicKeys;\n    mapping (bytes32 => bool) public revokedKeys;\n\n    function addKey(bytes32 keyHash, uint[2] memory rs, uint[2] memory Q) public{\n        require(publicKeys[keyHash] == address(0), 'key existing');\n        require(validateSignature(keyHash, rs, Q) == true, 'signature missmatch');\n        publicKeys[keyHash] = msg.sender;\n    }\n\n\n    // why not having a key can can be shared for revoking keys instead of using msg.sender?\n    function revokeKey(bytes32 keyHash) public{\n        require(publicKeys[keyHash] != address(0), 'key not existing');\n        require(publicKeys[keyHash] == msg.sender, 'no permit to revoke');\n        revokedKeys[keyHash] = true;\n    }\n\n    mapping (address => KeyRing) public keyRings;\n    //maybe define the trust depth of the ring?\n    struct KeyRing{\n        address ringOwner;\n        address[] trustedRings;\n        mapping (bytes32 => mapping(string => Access)) keyAccess;\n    }\n\n    struct Access{\n       string scope;\n       uint expiry;\n    }\n\n    function createKeyRing() public{\n        KeyRing storage keyRing = keyRings[msg.sender];\n        require(keyRing.ringOwner == address(0), 'keyRing existing');\n        keyRing.ringOwner = msg.sender;\n    }\n\n    function giveAccess(bytes32 keyHash, string memory aud, string memory scope, uint expiry) public{\n        KeyRing storage keyRing = keyRings[msg.sender];\n        require(keyRing.ringOwner == msg.sender, 'not keyRing Owner');\n        require(revokedKeys[keyHash] == false, 'key is revoked');\n        keyRing.keyAccess[keyHash][aud] = Access(scope, expiry);\n    }\n\n    function updateExpiry(bytes32 keyHash, string memory aud, uint expiry) public{\n        KeyRing storage keyRing = keyRings[msg.sender];\n        require(keyRing.ringOwner == msg.sender, 'not keyRing Owner');\n        keyRing.keyAccess[keyHash][aud].expiry = expiry;\n    }\n\n    function changeScope(bytes32 keyHash, string memory aud, string memory scope) public{\n        KeyRing storage keyRing = keyRings[msg.sender];\n        require(keyRing.ringOwner == msg.sender, 'not keyRing Owner');\n        require(keyRing.keyAccess[keyHash][aud].expiry != 0, 'no expiry');\n        keyRing.keyAccess[keyHash][aud].scope = scope;\n    }\n\n    function trustRing(address ringAddress) public{\n        KeyRing storage keyRing = keyRings[msg.sender];\n        require(keyRing.ringOwner == msg.sender, 'not keyRing Owner');\n        keyRing.trustedRings.push(ringAddress);\n    }\n\n    function untrustRing(uint index) public{\n        KeyRing storage keyRing = keyRings[msg.sender];\n        require(keyRing.ringOwner == msg.sender, 'not keyRing Owner');\n        delete keyRing.trustedRings[index];\n    }\n\n    function getTrustedRingsCount(address ringAddress) public view returns(uint){\n        address[] memory ringAddresses = keyRings[ringAddress].trustedRings;\n        return (ringAddresses.length);\n    }\n\n    function getTrustedRingAddress(address ringAddress, uint index) public view returns(address){\n        return keyRings[ringAddress].trustedRings[index];\n    }\n\n    /**\n    * @title   EllipticCurve\n    *\n    * @author  Tilman Drerup;\n    *  https://github.com/tdrerup/elliptic-curve-solidity\n    * @notice  Implements elliptic curve math; Parametrized for SECP256R1.\n    *\n    *          Includes components of code by Andreas Olofsson, Alexander Vlasov\n    *          (https://github.com/BANKEX/CurveArithmetics), and Avi Asayag\n    *          (https://github.com/orbs-network/elliptic-curve-solidity)\n    *\n    * @dev     NOTE: To disambiguate public keys when verifying signatures, activate\n    *          condition 'rs[1] > lowSmax' in validateSignature().\n    */\n    // Set parameters for curve.\n    uint constant a = 0xFFFFFFFF00000001000000000000000000000000FFFFFFFFFFFFFFFFFFFFFFFC;\n    uint constant b = 0x5AC635D8AA3A93E7B3EBBD55769886BC651D06B0CC53B0F63BCE3C3E27D2604B;\n    uint constant gx = 0x6B17D1F2E12C4247F8BCE6E563A440F277037D812DEB33A0F4A13945D898C296;\n    uint constant gy = 0x4FE342E2FE1A7F9B8EE7EB4A7C0F9E162BCE33576B315ECECBB6406837BF51F5;\n    uint constant p = 0xFFFFFFFF00000001000000000000000000000000FFFFFFFFFFFFFFFFFFFFFFFF;\n    uint constant n = 0xFFFFFFFF00000000FFFFFFFFFFFFFFFFBCE6FAADA7179E84F3B9CAC2FC632551;\n\n    uint constant lowSmax = 0x7FFFFFFFFFFFFFFFFFFFFFFFFFFFFFFF5D576E7357A4501DDFE92F46681B20A0;\n\n    /**\n     * @dev Inverse of u in the field of modulo m.\n     */\n    function inverseMod(uint u, uint m) private pure\n        returns (uint)\n    {\n        if (u == 0 || u == m || m == 0)\n            return 0;\n        if (u > m)\n            u = u % m;\n\n        int t1;\n        int t2 = 1;\n        uint r1 = m;\n        uint r2 = u;\n        uint q;\n\n        while (r2 != 0) {\n            q = r1 / r2;\n            (t1, t2, r1, r2) = (t2, t1 - int(q) * t2, r2, r1 - q * r2);\n        }\n\n        if (t1 < 0)\n            return (m - uint(-t1));\n\n        return uint(t1);\n    }\n\n    /**\n     * @dev Transform affine coordinates into projective coordinates.\n     */\n    function toProjectivePoint(uint x0, uint y0) private pure\n        returns (uint[3] memory P)\n    {\n        P[2] = addmod(0, 1, p);\n        P[0] = mulmod(x0, P[2], p);\n        P[1] = mulmod(y0, P[2], p);\n    }\n\n    /**\n     * @dev Add two points in affine coordinates and return projective point.\n     */\n    function addAndReturnProjectivePoint(uint x1, uint y1, uint x2, uint y2) private pure\n        returns (uint[3] memory P)\n    {\n        uint x;\n        uint y;\n        (x, y) = add(x1, y1, x2, y2);\n        P = toProjectivePoint(x, y);\n    }\n\n    /**\n     * @dev Transform from projective to affine coordinates.\n     */\n    function toAffinePoint(uint x0, uint y0, uint z0) private pure\n        returns (uint x1, uint y1)\n    {\n        uint z0Inv;\n        z0Inv = inverseMod(z0, p);\n        x1 = mulmod(x0, z0Inv, p);\n        y1 = mulmod(y0, z0Inv, p);\n    }\n\n    /**\n     * @dev Return the zero curve in projective coordinates.\n     */\n    function zeroProj() private pure\n        returns (uint x, uint y, uint z)\n    {\n        return (0, 1, 0);\n    }\n\n    /**\n     * @dev Return the zero curve in affine coordinates.\n     */\n    function zeroAffine() private pure\n        returns (uint x, uint y)\n    {\n        return (0, 0);\n    }\n\n    /**\n     * @dev Check if the curve is the zero curve.\n     */\n    function isZeroCurve(uint x0, uint y0) private pure\n        returns (bool isZero)\n    {\n        if(x0 == 0 && y0 == 0) {\n            return true;\n        }\n        return false;\n    }\n\n    /**\n     * @dev Check if a point in affine coordinates is on the curve.\n     */\n    function isOnCurve(uint x, uint y) private pure\n        returns (bool)\n    {\n        if (0 == x || x == p || 0 == y || y == p) {\n            return false;\n        }\n\n        uint LHS = mulmod(y, y, p); // y^2\n        uint RHS = mulmod(mulmod(x, x, p), x, p); // x^3\n\n        if (a != 0) {\n            RHS = addmod(RHS, mulmod(x, a, p), p); // x^3 + a*x\n        }\n        if (b != 0) {\n            RHS = addmod(RHS, b, p); // x^3 + a*x + b\n        }\n\n        return LHS == RHS;\n    }\n\n    /**\n     * @dev Double an elliptic curve point in projective coordinates. See\n     * https://www.nayuki.io/page/elliptic-curve-point-addition-in-projective-coordinates\n     */\n    function twiceProj(uint x0, uint y0, uint z0) private pure\n        returns (uint x1, uint y1, uint z1)\n    {\n        uint t;\n        uint u;\n        uint v;\n        uint w;\n\n        if(isZeroCurve(x0, y0)) {\n            return zeroProj();\n        }\n\n        u = mulmod(y0, z0, p);\n        u = mulmod(u, 2, p);\n\n        v = mulmod(u, x0, p);\n        v = mulmod(v, y0, p);\n        v = mulmod(v, 2, p);\n\n        x0 = mulmod(x0, x0, p);\n        t = mulmod(x0, 3, p);\n\n        z0 = mulmod(z0, z0, p);\n        z0 = mulmod(z0, a, p);\n        t = addmod(t, z0, p);\n\n        w = mulmod(t, t, p);\n        x0 = mulmod(2, v, p);\n        w = addmod(w, p-x0, p);\n\n        x0 = addmod(v, p-w, p);\n        x0 = mulmod(t, x0, p);\n        y0 = mulmod(y0, u, p);\n        y0 = mulmod(y0, y0, p);\n        y0 = mulmod(2, y0, p);\n        y1 = addmod(x0, p-y0, p);\n\n        x1 = mulmod(u, w, p);\n\n        z1 = mulmod(u, u, p);\n        z1 = mulmod(z1, u, p);\n    }\n\n    /**\n     * @dev Add two elliptic curve points in projective coordinates. See\n     * https://www.nayuki.io/page/elliptic-curve-point-addition-in-projective-coordinates\n     */\n    function addProj(uint x0, uint y0, uint z0, uint x1, uint y1, uint z1) private pure\n        returns (uint x2, uint y2, uint z2)\n    {\n        uint t0;\n        uint t1;\n        uint u0;\n        uint u1;\n\n        if (isZeroCurve(x0, y0)) {\n            return (x1, y1, z1);\n        }\n        else if (isZeroCurve(x1, y1)) {\n            return (x0, y0, z0);\n        }\n\n        t0 = mulmod(y0, z1, p);\n        t1 = mulmod(y1, z0, p);\n\n        u0 = mulmod(x0, z1, p);\n        u1 = mulmod(x1, z0, p);\n\n        if (u0 == u1) {\n            if (t0 == t1) {\n                return twiceProj(x0, y0, z0);\n            }\n            else {\n                return zeroProj();\n            }\n        }\n\n        (x2, y2, z2) = addProj2(mulmod(z0, z1, p), u0, u1, t1, t0);\n    }\n\n    /**\n     * @dev Helper function that splits addProj to avoid too many local variables.\n     */\n    function addProj2(uint v, uint u0, uint u1, uint t1, uint t0) private pure\n        returns (uint x2, uint y2, uint z2)\n    {\n        uint u;\n        uint u2;\n        uint u3;\n        uint w;\n        uint t;\n\n        t = addmod(t0, p-t1, p);\n        u = addmod(u0, p-u1, p);\n        u2 = mulmod(u, u, p);\n\n        w = mulmod(t, t, p);\n        w = mulmod(w, v, p);\n        u1 = addmod(u1, u0, p);\n        u1 = mulmod(u1, u2, p);\n        w = addmod(w, p-u1, p);\n\n        x2 = mulmod(u, w, p);\n\n        u3 = mulmod(u2, u, p);\n        u0 = mulmod(u0, u2, p);\n        u0 = addmod(u0, p-w, p);\n        t = mulmod(t, u0, p);\n        t0 = mulmod(t0, u3, p);\n\n        y2 = addmod(t, p-t0, p);\n\n        z2 = mulmod(u3, v, p);\n    }\n\n    /**\n     * @dev Add two elliptic curve points in affine coordinates.\n     */\n    function add(uint x0, uint y0, uint x1, uint y1) private pure\n        returns (uint, uint)\n    {\n        uint z0;\n\n        (x0, y0, z0) = addProj(x0, y0, 1, x1, y1, 1);\n\n        return toAffinePoint(x0, y0, z0);\n    }\n\n    /**\n     * @dev Double an elliptic curve point in affine coordinates.\n     */\n    function twice(uint x0, uint y0) private pure\n        returns (uint, uint)\n    {\n        uint z0;\n\n        (x0, y0, z0) = twiceProj(x0, y0, 1);\n\n        return toAffinePoint(x0, y0, z0);\n    }\n\n    /**\n     * @dev Multiply an elliptic curve point by a 2 power base (i.e., (2^exp)*P)).\n     */\n    function multiplyPowerBase2(uint x0, uint y0, uint exp) private pure\n        returns (uint, uint)\n    {\n        uint base2X = x0;\n        uint base2Y = y0;\n        uint base2Z = 1;\n\n        for(uint i = 0; i < exp; i++) {\n            (base2X, base2Y, base2Z) = twiceProj(base2X, base2Y, base2Z);\n        }\n\n        return toAffinePoint(base2X, base2Y, base2Z);\n    }\n\n    /**\n     * @dev Multiply an elliptic curve point by a scalar.\n     */\n    function multiplyScalar(uint x0, uint y0, uint scalar) private pure\n        returns (uint x1, uint y1)\n    {\n        if(scalar == 0) {\n            return zeroAffine();\n        }\n        else if (scalar == 1) {\n            return (x0, y0);\n        }\n        else if (scalar == 2) {\n            return twice(x0, y0);\n        }\n\n        uint base2X = x0;\n        uint base2Y = y0;\n        uint base2Z = 1;\n        uint z1 = 1;\n        x1 = x0;\n        y1 = y0;\n\n        if(scalar%2 == 0) {\n            x1 = y1 = 0;\n        }\n\n        scalar = scalar >> 1;\n\n        while(scalar > 0) {\n            (base2X, base2Y, base2Z) = twiceProj(base2X, base2Y, base2Z);\n\n            if(scalar%2 == 1) {\n                (x1, y1, z1) = addProj(base2X, base2Y, base2Z, x1, y1, z1);\n            }\n\n            scalar = scalar >> 1;\n        }\n\n        return toAffinePoint(x1, y1, z1);\n    }\n\n    /**\n     * @dev Multiply the curve's generator point by a scalar.\n     */\n    function multipleGeneratorByScalar(uint scalar) private pure\n        returns (uint, uint)\n    {\n        return multiplyScalar(gx, gy, scalar);\n    }\n\n    /**\n     * @dev Validate combination of message, signature, and public key.\n     */\n    function validateSignature(bytes32 message, uint[2] memory rs, uint[2] memory Q) public pure\n        returns (bool)\n    {\n\n        // To disambiguate between public key solutions, include comment below.\n        if(rs[0] == 0 || rs[0] >= n || rs[1] == 0) {// || rs[1] > lowSmax)\n            return false;\n        }\n        if (!isOnCurve(Q[0], Q[1])) {\n            return false;\n        }\n\n        uint x1;\n        uint x2;\n        uint y1;\n        uint y2;\n\n        uint sInv = inverseMod(rs[1], n);\n        (x1, y1) = multiplyScalar(gx, gy, mulmod(uint(message), sInv, n));\n        (x2, y2) = multiplyScalar(Q[0], Q[1], mulmod(rs[0], sInv, n));\n        uint[3] memory P = addAndReturnProjectivePoint(x1, y1, x2, y2);\n\n        if (P[2] == 0) {\n            return false;\n        }\n\n        uint Px = inverseMod(P[2], p);\n        Px = mulmod(P[0], mulmod(Px, Px, p), p);\n\n        return Px % n == rs[0];\n    }\n}",
  "sourcePath": "/Users/admin/Desktop/MasterThesis/MT/DPKI/contracts/DPKI.sol",
  "compiler": {
    "name": "solc",
    "version": "0.5.12+commit.7709ece9.Emscripten.clang"
  },
  "schemaVersion": "3.0.16",
  "updatedAt": "2019-11-11T17:22:50.495Z",
  "devdoc": {
    "methods": {
      "validateSignature(bytes32,uint256[2],uint256[2])": {
        "details": "Validate combination of message, signature, and public key."
      }
    }
  },
  "userdoc": {
    "methods": {}
  }
}