{
  "contractName": "DPKI",
  "abi": [
    {
      "constant": true,
      "inputs": [
        {
          "internalType": "address",
          "name": "",
          "type": "address"
        }
      ],
      "name": "keyRings",
      "outputs": [
        {
          "internalType": "address",
          "name": "ringOwner",
          "type": "address"
        }
      ],
      "payable": false,
      "stateMutability": "view",
      "type": "function"
    },
    {
      "constant": true,
      "inputs": [
        {
          "internalType": "bytes32",
          "name": "",
          "type": "bytes32"
        }
      ],
      "name": "publicKeys",
      "outputs": [
        {
          "internalType": "address",
          "name": "",
          "type": "address"
        }
      ],
      "payable": false,
      "stateMutability": "view",
      "type": "function"
    },
    {
      "constant": true,
      "inputs": [
        {
          "internalType": "bytes32",
          "name": "",
          "type": "bytes32"
        }
      ],
      "name": "revokedKeys",
      "outputs": [
        {
          "internalType": "bool",
          "name": "",
          "type": "bool"
        }
      ],
      "payable": false,
      "stateMutability": "view",
      "type": "function"
    },
    {
      "constant": true,
      "inputs": [
        {
          "internalType": "bytes32",
          "name": "keyHash",
          "type": "bytes32"
        },
        {
          "internalType": "uint256[2]",
          "name": "rs",
          "type": "uint256[2]"
        },
        {
          "internalType": "uint256[2]",
          "name": "Q",
          "type": "uint256[2]"
        }
      ],
      "name": "addKey",
      "outputs": [
        {
          "internalType": "bytes",
          "name": "",
          "type": "bytes"
        },
        {
          "internalType": "bytes32",
          "name": "",
          "type": "bytes32"
        },
        {
          "internalType": "uint256[2]",
          "name": "",
          "type": "uint256[2]"
        },
        {
          "internalType": "uint256[2]",
          "name": "",
          "type": "uint256[2]"
        }
      ],
      "payable": false,
      "stateMutability": "view",
      "type": "function"
    },
    {
      "constant": false,
      "inputs": [
        {
          "internalType": "bytes32",
          "name": "keyHash",
          "type": "bytes32"
        }
      ],
      "name": "revokeKey",
      "outputs": [],
      "payable": false,
      "stateMutability": "nonpayable",
      "type": "function"
    },
    {
      "constant": true,
      "inputs": [
        {
          "internalType": "address",
          "name": "keyRing",
          "type": "address"
        },
        {
          "internalType": "bytes32",
          "name": "keyHash",
          "type": "bytes32"
        },
        {
          "internalType": "string",
          "name": "aud",
          "type": "string"
        }
      ],
      "name": "verifyAccess",
      "outputs": [
        {
          "internalType": "string",
          "name": "scope",
          "type": "string"
        },
        {
          "internalType": "uint256",
          "name": "expiry",
          "type": "uint256"
        }
      ],
      "payable": false,
      "stateMutability": "view",
      "type": "function"
    },
    {
      "constant": false,
      "inputs": [],
      "name": "createKeyRing",
      "outputs": [],
      "payable": false,
      "stateMutability": "nonpayable",
      "type": "function"
    },
    {
      "constant": false,
      "inputs": [
        {
          "internalType": "bytes32",
          "name": "keyHash",
          "type": "bytes32"
        },
        {
          "internalType": "string",
          "name": "aud",
          "type": "string"
        },
        {
          "internalType": "string",
          "name": "scope",
          "type": "string"
        },
        {
          "internalType": "uint256",
          "name": "expiry",
          "type": "uint256"
        }
      ],
      "name": "giveAccess",
      "outputs": [],
      "payable": false,
      "stateMutability": "nonpayable",
      "type": "function"
    },
    {
      "constant": false,
      "inputs": [
        {
          "internalType": "bytes32",
          "name": "keyHash",
          "type": "bytes32"
        },
        {
          "internalType": "string",
          "name": "aud",
          "type": "string"
        },
        {
          "internalType": "uint256",
          "name": "expiry",
          "type": "uint256"
        }
      ],
      "name": "updateExpiry",
      "outputs": [],
      "payable": false,
      "stateMutability": "nonpayable",
      "type": "function"
    },
    {
      "constant": false,
      "inputs": [
        {
          "internalType": "bytes32",
          "name": "keyHash",
          "type": "bytes32"
        },
        {
          "internalType": "string",
          "name": "aud",
          "type": "string"
        },
        {
          "internalType": "string",
          "name": "scope",
          "type": "string"
        }
      ],
      "name": "changeScope",
      "outputs": [],
      "payable": false,
      "stateMutability": "nonpayable",
      "type": "function"
    },
    {
      "constant": false,
      "inputs": [
        {
          "internalType": "address",
          "name": "ringAddress",
          "type": "address"
        }
      ],
      "name": "trustRing",
      "outputs": [],
      "payable": false,
      "stateMutability": "nonpayable",
      "type": "function"
    },
    {
      "constant": false,
      "inputs": [
        {
          "internalType": "uint256",
          "name": "index",
          "type": "uint256"
        }
      ],
      "name": "untrustRing",
      "outputs": [],
      "payable": false,
      "stateMutability": "nonpayable",
      "type": "function"
    },
    {
      "constant": true,
      "inputs": [
        {
          "internalType": "address",
          "name": "ringAddress",
          "type": "address"
        }
      ],
      "name": "getTrustedRingsCount",
      "outputs": [
        {
          "internalType": "uint256",
          "name": "",
          "type": "uint256"
        }
      ],
      "payable": false,
      "stateMutability": "view",
      "type": "function"
    },
    {
      "constant": true,
      "inputs": [
        {
          "internalType": "address",
          "name": "ringAddress",
          "type": "address"
        },
        {
          "internalType": "uint256",
          "name": "index",
          "type": "uint256"
        }
      ],
      "name": "getTrustedRingAddress",
      "outputs": [
        {
          "internalType": "address",
          "name": "",
          "type": "address"
        }
      ],
      "payable": false,
      "stateMutability": "view",
      "type": "function"
    },
    {
      "constant": true,
      "inputs": [
        {
          "internalType": "bytes32",
          "name": "message",
          "type": "bytes32"
        },
        {
          "internalType": "uint256[2]",
          "name": "rs",
          "type": "uint256[2]"
        },
        {
          "internalType": "uint256[2]",
          "name": "Q",
          "type": "uint256[2]"
        }
      ],
      "name": "validateSignature",
      "outputs": [
        {
          "internalType": "bool",
          "name": "",
          "type": "bool"
        }
      ],
      "payable": false,
      "stateMutability": "pure",
      "type": "function"
    }
  ],
  "bytecode": "0x608060405234801561001057600080fd5b50613378806100206000396000f3fe608060405234801561001057600080fd5b5060043610610112576000357c010000000000000000000000000000000000000000000000000000000090048063798a74ba116100b4578063caf7c50d11610083578063caf7c50d14610920578063f03dc5ef1461094e578063f42f6f2f146109bc578063f662bcf014610b2157610112565b8063798a74ba146105585780639ee616b5146106e6578063afb07a671461084c578063c749a35b1461089257610112565b806336bd9fe8116100f057806336bd9fe8146103065780634186539f14610462578063572f2210146104e65780636d09a3991461051457610112565b806304e960d7146101175780632b165771146101df578063307b05ff146102ae575b600080fd5b6101c5600480360360a081101561012d57600080fd5b810190808035906020019092919080604001906002806020026040519081016040528092919082600260200280828437600081840152601f19601f820116905080830192505050505050919291929080604001906002806020026040519081016040528092919082600260200280828437600081840152601f19601f8201169050808301925050505050509192919290505050610b2b565b604051808215151515815260200191505060405180910390f35b6102ac600480360360608110156101f557600080fd5b81019080803590602001909291908035906020019064010000000081111561021c57600080fd5b82018360208201111561022e57600080fd5b8035906020019184600183028401116401000000008311171561025057600080fd5b91908080601f016020809104026020016040519081016040528093929190818152602001838380828437600081840152601f19601f82011690508083019250505050505050919291929080359060200190929190505050610e4a565b005b6102f0600480360360208110156102c457600080fd5b81019080803573ffffffffffffffffffffffffffffffffffffffff169060200190929190505050610fdc565b6040518082815260200191505060405180910390f35b6104606004803603606081101561031c57600080fd5b81019080803590602001909291908035906020019064010000000081111561034357600080fd5b82018360208201111561035557600080fd5b8035906020019184600183028401116401000000008311171561037757600080fd5b91908080601f016020809104026020016040519081016040528093929190818152602001838380828437600081840152601f19601f820116905080830192505050505050509192919290803590602001906401000000008111156103da57600080fd5b8201836020820111156103ec57600080fd5b8035906020019184600183028401116401000000008311171561040e57600080fd5b91908080601f016020809104026020016040519081016040528093929190818152602001838380828437600081840152601f19601f8201169050808301925050505050505091929192905050506110b3565b005b6104a46004803603602081101561047857600080fd5b81019080803573ffffffffffffffffffffffffffffffffffffffff16906020019092919050505061134b565b604051808273ffffffffffffffffffffffffffffffffffffffff1673ffffffffffffffffffffffffffffffffffffffff16815260200191505060405180910390f35b610512600480360360208110156104fc57600080fd5b8101908080359060200190929190505050611389565b005b6105566004803603602081101561052a57600080fd5b81019080803573ffffffffffffffffffffffffffffffffffffffff16906020019092919050505061155f565b005b610606600480360360a081101561056e57600080fd5b810190808035906020019092919080604001906002806020026040519081016040528092919082600260200280828437600081840152601f19601f820116905080830192505050505050919291929080604001906002806020026040519081016040528092919082600260200280828437600081840152601f19601f82011690508083019250505050505091929192905050506116d3565b604051808060200185815260200184600260200280838360005b8381101561063b578082015181840152602081019050610620565b5050505090500183600260200280838360005b8381101561066957808201518184015260208101905061064e565b50505050905001828103825286818151815260200191508051906020019080838360005b838110156106a857808201518184015260208101905061068d565b50505050905090810190601f1680156106d55780820380516001836020036101000a031916815260200191505b509550505050505060405180910390f35b61084a600480360360808110156106fc57600080fd5b81019080803590602001909291908035906020019064010000000081111561072357600080fd5b82018360208201111561073557600080fd5b8035906020019184600183028401116401000000008311171561075757600080fd5b91908080601f016020809104026020016040519081016040528093929190818152602001838380828437600081840152601f19601f820116905080830192505050505050509192919290803590602001906401000000008111156107ba57600080fd5b8201836020820111156107cc57600080fd5b803590602001918460018302840111640100000000831117156107ee57600080fd5b91908080601f016020809104026020016040519081016040528093929190818152602001838380828437600081840152601f19601f8201169050808301925050505050505091929192908035906020019092919050505061199e565b005b6108786004803603602081101561086257600080fd5b8101908080359060200190929190505050611c02565b604051808215151515815260200191505060405180910390f35b6108de600480360360408110156108a857600080fd5b81019080803573ffffffffffffffffffffffffffffffffffffffff16906020019092919080359060200190929190505050611c22565b604051808273ffffffffffffffffffffffffffffffffffffffff1673ffffffffffffffffffffffffffffffffffffffff16815260200191505060405180910390f35b61094c6004803603602081101561093657600080fd5b8101908080359060200190929190505050611ca4565b005b61097a6004803603602081101561096457600080fd5b8101908080359060200190929190505050611dec565b604051808273ffffffffffffffffffffffffffffffffffffffff1673ffffffffffffffffffffffffffffffffffffffff16815260200191505060405180910390f35b610a9f600480360360608110156109d257600080fd5b81019080803573ffffffffffffffffffffffffffffffffffffffff1690602001909291908035906020019092919080359060200190640100000000811115610a1957600080fd5b820183602082011115610a2b57600080fd5b80359060200191846001830284011164010000000083111715610a4d57600080fd5b91908080601f016020809104026020016040519081016040528093929190818152602001838380828437600081840152601f19601f820116905080830192505050505050509192919290505050611e1f565b6040518080602001838152602001828103825284818151815260200191508051906020019080838360005b83811015610ae5578082015181840152602081019050610aca565b50505050905090810190601f168015610b125780820380516001836020036101000a031916815260200191505b50935050505060405180910390f35b610b2961202c565b005b60008083600060028110610b3b57fe5b60200201511480610b7d57507fffffffff00000000ffffffffffffffffbce6faada7179e84f3b9cac2fc63255183600060028110610b7557fe5b602002015110155b80610b995750600083600160028110610b9257fe5b6020020151145b15610ba75760009050610e43565b610bd382600060028110610bb757fe5b602002015183600160028110610bc957fe5b602002015161217b565b610be05760009050610e43565b6000806000806000610c2388600160028110610bf857fe5b60200201517fffffffff00000000ffffffffffffffffbce6faada7179e84f3b9cac2fc63255161239a565b9050610c9e7f6b17d1f2e12c4247f8bce6e563a440f277037d812deb33a0f4a13945d898c2967f4fe342e2fe1a7f9b8ee7eb4a7c0f9e162bce33576b315ececbb6406837bf51f57fffffffff00000000ffffffffffffffffbce6faada7179e84f3b9cac2fc63255180610c9257fe5b848d600190040961244a565b8094508196505050610d0e87600060028110610cb657fe5b602002015188600160028110610cc857fe5b60200201517fffffffff00000000ffffffffffffffffbce6faada7179e84f3b9cac2fc63255180610cf557fe5b848c600060028110610d0357fe5b60200201510961244a565b8093508195505050610d1e6131b8565b610d2a8685878661255c565b9050600081600260038110610d3b57fe5b60200201511415610d555760009650505050505050610e43565b6000610d9282600260038110610d6757fe5b60200201517fffffffff00000001000000000000000000000000ffffffffffffffffffffffff61239a565b90507fffffffff00000001000000000000000000000000ffffffffffffffffffffffff80610dbc57fe5b7fffffffff00000001000000000000000000000000ffffffffffffffffffffffff80610de457fe5b82830983600060038110610df457fe5b602002015109905089600060028110610e0957fe5b60200201517fffffffff00000000ffffffffffffffffbce6faada7179e84f3b9cac2fc6325518281610e3757fe5b06149750505050505050505b9392505050565b6000600260003373ffffffffffffffffffffffffffffffffffffffff1673ffffffffffffffffffffffffffffffffffffffff16815260200190815260200160002090503373ffffffffffffffffffffffffffffffffffffffff168160000160009054906101000a900473ffffffffffffffffffffffffffffffffffffffff1673ffffffffffffffffffffffffffffffffffffffff1614610f52576040517f08c379a00000000000000000000000000000000000000000000000000000000081526004018080602001828103825260118152602001807f6e6f74206b657952696e67204f776e657200000000000000000000000000000081525060200191505060405180910390fd5b81816002016000868152602001908152602001600020846040518082805190602001908083835b60208310610f9c5780518252602082019150602081019050602083039250610f79565b6001836020036101000a03801982511681845116808217855250505050505090500191505090815260200160405180910390206001018190555050505050565b60006060600260008473ffffffffffffffffffffffffffffffffffffffff1673ffffffffffffffffffffffffffffffffffffffff1681526020019081526020016000206001018054806020026020016040519081016040528092919081815260200182805480156110a257602002820191906000526020600020905b8160009054906101000a900473ffffffffffffffffffffffffffffffffffffffff1673ffffffffffffffffffffffffffffffffffffffff1681526020019060010190808311611058575b505050505090508051915050919050565b6000600260003373ffffffffffffffffffffffffffffffffffffffff1673ffffffffffffffffffffffffffffffffffffffff16815260200190815260200160002090503373ffffffffffffffffffffffffffffffffffffffff168160000160009054906101000a900473ffffffffffffffffffffffffffffffffffffffff1673ffffffffffffffffffffffffffffffffffffffff16146111bb576040517f08c379a00000000000000000000000000000000000000000000000000000000081526004018080602001828103825260118152602001807f6e6f74206b657952696e67204f776e657200000000000000000000000000000081525060200191505060405180910390fd5b6000816002016000868152602001908152602001600020846040518082805190602001908083835b6020831061120657805182526020820191506020810190506020830392506111e3565b6001836020036101000a03801982511681845116808217855250505050505090500191505090815260200160405180910390206001015414156112b1576040517f08c379a00000000000000000000000000000000000000000000000000000000081526004018080602001828103825260098152602001807f6e6f20657870697279000000000000000000000000000000000000000000000081525060200191505060405180910390fd5b81816002016000868152602001908152602001600020846040518082805190602001908083835b602083106112fb57805182526020820191506020810190506020830392506112d8565b6001836020036101000a038019825116818451168082178552505050505050905001915050908152602001604051809103902060000190805190602001906113449291906131da565b5050505050565b60026020528060005260406000206000915090508060000160009054906101000a900473ffffffffffffffffffffffffffffffffffffffff16905081565b600073ffffffffffffffffffffffffffffffffffffffff1660008083815260200190815260200160002060009054906101000a900473ffffffffffffffffffffffffffffffffffffffff1673ffffffffffffffffffffffffffffffffffffffff16141561145e576040517f08c379a00000000000000000000000000000000000000000000000000000000081526004018080602001828103825260108152602001807f6b6579206e6f74206578697374696e670000000000000000000000000000000081525060200191505060405180910390fd5b3373ffffffffffffffffffffffffffffffffffffffff1660008083815260200190815260200160002060009054906101000a900473ffffffffffffffffffffffffffffffffffffffff1673ffffffffffffffffffffffffffffffffffffffff1614611531576040517f08c379a00000000000000000000000000000000000000000000000000000000081526004018080602001828103825260138152602001807f6e6f207065726d697420746f207265766f6b650000000000000000000000000081525060200191505060405180910390fd5b600180600083815260200190815260200160002060006101000a81548160ff02191690831515021790555050565b6000600260003373ffffffffffffffffffffffffffffffffffffffff1673ffffffffffffffffffffffffffffffffffffffff16815260200190815260200160002090503373ffffffffffffffffffffffffffffffffffffffff168160000160009054906101000a900473ffffffffffffffffffffffffffffffffffffffff1673ffffffffffffffffffffffffffffffffffffffff1614611667576040517f08c379a00000000000000000000000000000000000000000000000000000000081526004018080602001828103825260118152602001807f6e6f74206b657952696e67204f776e657200000000000000000000000000000081525060200191505060405180910390fd5b806001018290806001815401808255809150509060018203906000526020600020016000909192909190916101000a81548173ffffffffffffffffffffffffffffffffffffffff021916908373ffffffffffffffffffffffffffffffffffffffff160217905550505050565b606060006116df61325a565b6116e761325a565b6060856000600281106116f657fe5b60200201518660016002811061170857fe5b60200201516040516020018083815260200182815260200192505050604051602081830303815290604052905060006002826040518082805190602001908083835b6020831061176d578051825260208201915060208101905060208303925061174a565b6001836020036101000a038019825116818451168082178552505050505050905001915050602060405180830381855afa1580156117af573d6000803e3d6000fd5b5050506040513d60208110156117c457600080fd5b8101908080519060200190929190505050905088811461182f576040517f08c379a00000000000000000000000000000000000000000000000000000000081526004018080602001828103825260228152602001806133226022913960400191505060405180910390fd5b600073ffffffffffffffffffffffffffffffffffffffff1660008083815260200190815260200160002060009054906101000a900473ffffffffffffffffffffffffffffffffffffffff1673ffffffffffffffffffffffffffffffffffffffff1614611903576040517f08c379a000000000000000000000000000000000000000000000000000000000815260040180806020018281038252600c8152602001807f6b6579206578697374696e67000000000000000000000000000000000000000081525060200191505060405180910390fd5b60011515611912828a8a610b2b565b151514611987576040517f08c379a00000000000000000000000000000000000000000000000000000000081526004018080602001828103825260138152602001807f7369676e6174757265206d6973736d617463680000000000000000000000000081525060200191505060405180910390fd5b818189899550955095509550505093509350935093565b6000600260003373ffffffffffffffffffffffffffffffffffffffff1673ffffffffffffffffffffffffffffffffffffffff16815260200190815260200160002090503373ffffffffffffffffffffffffffffffffffffffff168160000160009054906101000a900473ffffffffffffffffffffffffffffffffffffffff1673ffffffffffffffffffffffffffffffffffffffff1614611aa6576040517f08c379a00000000000000000000000000000000000000000000000000000000081526004018080602001828103825260118152602001807f6e6f74206b657952696e67204f776e657200000000000000000000000000000081525060200191505060405180910390fd5b600015156001600087815260200190815260200160002060009054906101000a900460ff16151514611b40576040517f08c379a000000000000000000000000000000000000000000000000000000000815260040180806020018281038252600e8152602001807f6b6579206973207265766f6b656400000000000000000000000000000000000081525060200191505060405180910390fd5b604051806040016040528084815260200183815250816002016000878152602001908152602001600020856040518082805190602001908083835b60208310611b9e5780518252602082019150602081019050602083039250611b7b565b6001836020036101000a03801982511681845116808217855250505050505090500191505090815260200160405180910390206000820151816000019080519060200190611bed92919061327c565b50602082015181600101559050505050505050565b60016020528060005260406000206000915054906101000a900460ff1681565b6000600260008473ffffffffffffffffffffffffffffffffffffffff1673ffffffffffffffffffffffffffffffffffffffff1681526020019081526020016000206001018281548110611c7157fe5b9060005260206000200160009054906101000a900473ffffffffffffffffffffffffffffffffffffffff16905092915050565b6000600260003373ffffffffffffffffffffffffffffffffffffffff1673ffffffffffffffffffffffffffffffffffffffff16815260200190815260200160002090503373ffffffffffffffffffffffffffffffffffffffff168160000160009054906101000a900473ffffffffffffffffffffffffffffffffffffffff1673ffffffffffffffffffffffffffffffffffffffff1614611dac576040517f08c379a00000000000000000000000000000000000000000000000000000000081526004018080602001828103825260118152602001807f6e6f74206b657952696e67204f776e657200000000000000000000000000000081525060200191505060405180910390fd5b806001018281548110611dbb57fe5b9060005260206000200160006101000a81549073ffffffffffffffffffffffffffffffffffffffff02191690555050565b60006020528060005260406000206000915054906101000a900473ffffffffffffffffffffffffffffffffffffffff1681565b606060008015156001600086815260200190815260200160002060009054906101000a900460ff16151514611ebc576040517f08c379a000000000000000000000000000000000000000000000000000000000815260040180806020018281038252600e8152602001807f6b6579206973207265766f6b656400000000000000000000000000000000000081525060200191505060405180910390fd5b6000600260008773ffffffffffffffffffffffffffffffffffffffff1673ffffffffffffffffffffffffffffffffffffffff1681526020019081526020016000206002016000868152602001908152602001600020846040518082805190602001908083835b60208310611f455780518252602082019150602081019050602083039250611f22565b6001836020036101000a03801982511681845116808217855250505050505090500191505090815260200160405180910390209050806000018160010154818054600181600116156101000203166002900480601f0160208091040260200160405190810160405280929190818152602001828054600181600116156101000203166002900480156120185780601f10611fed57610100808354040283529160200191612018565b820191906000526020600020905b815481529060010190602001808311611ffb57829003601f168201915b505050505091509250925050935093915050565b6000600260003373ffffffffffffffffffffffffffffffffffffffff1673ffffffffffffffffffffffffffffffffffffffff1681526020019081526020016000209050600073ffffffffffffffffffffffffffffffffffffffff168160000160009054906101000a900473ffffffffffffffffffffffffffffffffffffffff1673ffffffffffffffffffffffffffffffffffffffff1614612135576040517f08c379a00000000000000000000000000000000000000000000000000000000081526004018080602001828103825260108152602001807f6b657952696e67206578697374696e670000000000000000000000000000000081525060200191505060405180910390fd5b338160000160006101000a81548173ffffffffffffffffffffffffffffffffffffffff021916908373ffffffffffffffffffffffffffffffffffffffff16021790555050565b600082600014806121ab57507fffffffff00000001000000000000000000000000ffffffffffffffffffffffff83145b806121b65750816000145b806121e057507fffffffff00000001000000000000000000000000ffffffffffffffffffffffff82145b156121ee5760009050612394565b60007fffffffff00000001000000000000000000000000ffffffffffffffffffffffff8061221857fe5b838409905060007fffffffff00000001000000000000000000000000ffffffffffffffffffffffff8061224757fe5b857fffffffff00000001000000000000000000000000ffffffffffffffffffffffff8061227057fe5b87880909905060007fffffffff00000001000000000000000000000000fffffffffffffffffffffffc14612316577fffffffff00000001000000000000000000000000ffffffffffffffffffffffff806122c657fe5b7fffffffff00000001000000000000000000000000ffffffffffffffffffffffff806122ee57fe5b7fffffffff00000001000000000000000000000000fffffffffffffffffffffffc8709820890505b60007f5ac635d8aa3a93e7b3ebbd55769886bc651d06b0cc53b0f63bce3c3e27d2604b1461238c577fffffffff00000001000000000000000000000000ffffffffffffffffffffffff8061236657fe5b7f5ac635d8aa3a93e7b3ebbd55769886bc651d06b0cc53b0f63bce3c3e27d2604b820890505b808214925050505b92915050565b6000808314806123a957508183145b806123b45750600082145b156123c25760009050612444565b818311156123d7578183816123d357fe5b0692505b600080600190506000849050600086905060005b60008214612420578183816123fc57fe5b049050838482028603838484028603809550819650829750839850505050506123eb565b600085121561243b5784600003870395505050505050612444565b84955050505050505b92915050565b60008060008314156124675761245e612591565b91509150612554565b600183141561247b57848491509150612554565b60028314156124975761248e85856125a5565b91509150612554565b600085905060008590506000600190506000600190508895508794506000600288816124bf57fe5b0614156124ce57600094508495505b600187908060020a820491505096505b6000871115612540576124f28484846125d9565b80945081955082965050505060016002888161250a57fe5b06141561252c5761251f848484898986612a81565b8093508197508298505050505b600187908060020a820491505096506124de565b61254b868683612c17565b95509550505050505b935093915050565b6125646131b8565b60008061257387878787612cab565b80925081935050506125858282612ce5565b92505050949350505050565b600080600080819150809050915091509091565b60008060006125b6858560016125d9565b8093508196508297505050506125cd858583612c17565b92509250509250929050565b60008060008060008060006125ee8a8a612dda565b1561260a576125fb612e04565b96509650965050505050612a78565b7fffffffff00000001000000000000000000000000ffffffffffffffffffffffff8061263257fe5b888a0992507fffffffff00000001000000000000000000000000ffffffffffffffffffffffff8061265f57fe5b6002840992507fffffffff00000001000000000000000000000000ffffffffffffffffffffffff8061268d57fe5b8a840991507fffffffff00000001000000000000000000000000ffffffffffffffffffffffff806126ba57fe5b89830991507fffffffff00000001000000000000000000000000ffffffffffffffffffffffff806126e757fe5b6002830991507fffffffff00000001000000000000000000000000ffffffffffffffffffffffff8061271557fe5b8a8b0999507fffffffff00000001000000000000000000000000ffffffffffffffffffffffff8061274257fe5b60038b0993507fffffffff00000001000000000000000000000000ffffffffffffffffffffffff8061277057fe5b88890997507fffffffff00000001000000000000000000000000ffffffffffffffffffffffff8061279d57fe5b7fffffffff00000001000000000000000000000000fffffffffffffffffffffffc890997507fffffffff00000001000000000000000000000000ffffffffffffffffffffffff806127ea57fe5b88850893507fffffffff00000001000000000000000000000000ffffffffffffffffffffffff8061281757fe5b84850990507fffffffff00000001000000000000000000000000ffffffffffffffffffffffff8061284457fe5b8260020999507fffffffff00000001000000000000000000000000ffffffffffffffffffffffff8061287257fe5b8a7fffffffff00000001000000000000000000000000ffffffffffffffffffffffff03820890507fffffffff00000001000000000000000000000000ffffffffffffffffffffffff806128c157fe5b817fffffffff00000001000000000000000000000000ffffffffffffffffffffffff03830899507fffffffff00000001000000000000000000000000ffffffffffffffffffffffff8061291057fe5b8a850999507fffffffff00000001000000000000000000000000ffffffffffffffffffffffff8061293d57fe5b838a0998507fffffffff00000001000000000000000000000000ffffffffffffffffffffffff8061296a57fe5b898a0998507fffffffff00000001000000000000000000000000ffffffffffffffffffffffff8061299757fe5b8960020998507fffffffff00000001000000000000000000000000ffffffffffffffffffffffff806129c557fe5b897fffffffff00000001000000000000000000000000ffffffffffffffffffffffff038b0895507fffffffff00000001000000000000000000000000ffffffffffffffffffffffff80612a1457fe5b81840996507fffffffff00000001000000000000000000000000ffffffffffffffffffffffff80612a4157fe5b83840994507fffffffff00000001000000000000000000000000ffffffffffffffffffffffff80612a6e57fe5b8386099450505050505b93509350939050565b6000806000806000806000612a968d8d612dda565b15612aad5789898996509650965050505050612c0b565b612ab78a8a612dda565b15612ace578c8c8c96509650965050505050612c0b565b7fffffffff00000001000000000000000000000000ffffffffffffffffffffffff80612af657fe5b888d0993507fffffffff00000001000000000000000000000000ffffffffffffffffffffffff80612b2357fe5b8b8a0992507fffffffff00000001000000000000000000000000ffffffffffffffffffffffff80612b5057fe5b888e0991507fffffffff00000001000000000000000000000000ffffffffffffffffffffffff80612b7d57fe5b8b8b09905080821415612bc35782841415612bac57612b9d8d8d8d6125d9565b96509650965050505050612c0b565b612bb4612e04565b96509650965050505050612c0b565b612bfa7fffffffff00000001000000000000000000000000ffffffffffffffffffffffff80612bee57fe5b898d0983838688612e22565b809750819850829950505050505050505b96509650969350505050565b6000806000612c46847fffffffff00000001000000000000000000000000ffffffffffffffffffffffff61239a565b90507fffffffff00000001000000000000000000000000ffffffffffffffffffffffff80612c7057fe5b81870992507fffffffff00000001000000000000000000000000ffffffffffffffffffffffff80612c9d57fe5b818609915050935093915050565b6000806000612cc08787600188886001612a81565b809350819850829950505050612cd7878783612c17565b925092505094509492505050565b612ced6131b8565b7fffffffff00000001000000000000000000000000ffffffffffffffffffffffff80612d1557fe5b600160000881600260038110612d2757fe5b6020020181815250507fffffffff00000001000000000000000000000000ffffffffffffffffffffffff80612d5857fe5b81600260038110612d6557fe5b6020020151840981600060038110612d7957fe5b6020020181815250507fffffffff00000001000000000000000000000000ffffffffffffffffffffffff80612daa57fe5b81600260038110612db757fe5b6020020151830981600160038110612dcb57fe5b60200201818152505092915050565b60008083148015612deb5750600082145b15612df95760019050612dfe565b600090505b92915050565b60008060008060016000829250819150809050925092509250909192565b6000806000806000806000807fffffffff00000001000000000000000000000000ffffffffffffffffffffffff80612e5657fe5b8a7fffffffff00000001000000000000000000000000ffffffffffffffffffffffff038a0890507fffffffff00000001000000000000000000000000ffffffffffffffffffffffff80612ea557fe5b8b7fffffffff00000001000000000000000000000000ffffffffffffffffffffffff038d0894507fffffffff00000001000000000000000000000000ffffffffffffffffffffffff80612ef457fe5b85860993507fffffffff00000001000000000000000000000000ffffffffffffffffffffffff80612f2157fe5b81820991507fffffffff00000001000000000000000000000000ffffffffffffffffffffffff80612f4e57fe5b8d830991507fffffffff00000001000000000000000000000000ffffffffffffffffffffffff80612f7b57fe5b8c8c089a507fffffffff00000001000000000000000000000000ffffffffffffffffffffffff80612fa857fe5b848c099a507fffffffff00000001000000000000000000000000ffffffffffffffffffffffff80612fd557fe5b8b7fffffffff00000001000000000000000000000000ffffffffffffffffffffffff03830891507fffffffff00000001000000000000000000000000ffffffffffffffffffffffff8061302457fe5b82860997507fffffffff00000001000000000000000000000000ffffffffffffffffffffffff8061305157fe5b85850992507fffffffff00000001000000000000000000000000ffffffffffffffffffffffff8061307e57fe5b848d099b507fffffffff00000001000000000000000000000000ffffffffffffffffffffffff806130ab57fe5b827fffffffff00000001000000000000000000000000ffffffffffffffffffffffff038d089b507fffffffff00000001000000000000000000000000ffffffffffffffffffffffff806130fa57fe5b8c820990507fffffffff00000001000000000000000000000000ffffffffffffffffffffffff8061312757fe5b838a0998507fffffffff00000001000000000000000000000000ffffffffffffffffffffffff8061315457fe5b897fffffffff00000001000000000000000000000000ffffffffffffffffffffffff03820896507fffffffff00000001000000000000000000000000ffffffffffffffffffffffff806131a357fe5b8d840995505050505050955095509592505050565b6040518060600160405280600390602082028038833980820191505090505090565b828054600181600116156101000203166002900490600052602060002090601f016020900481019282601f1061321b57805160ff1916838001178555613249565b82800160010185558215613249579182015b8281111561324857825182559160200191906001019061322d565b5b50905061325691906132fc565b5090565b6040518060400160405280600290602082028038833980820191505090505090565b828054600181600116156101000203166002900490600052602060002090601f016020900481019282601f106132bd57805160ff19168380011785556132eb565b828001600101855582156132eb579182015b828111156132ea5782518255916020019190600101906132cf565b5b5090506132f891906132fc565b5090565b61331e91905b8082111561331a576000816000905550600101613302565b5090565b9056fe48617368206d6973736d6174636820776974682070726f7669646564206b65792051a265627a7a723158206ca89fa665bd7ccbe9eeab0b9dee8153ae16694215b2340e5f8a8a6070110b0264736f6c634300050c0032",
  "source": "pragma solidity 0.5.12;\n\ncontract DPKI{\n\n    mapping (bytes32 => address) public publicKeys;\n    mapping (bytes32 => bool) public revokedKeys;\n\n    function addKey(bytes32 keyHash, uint[2] memory rs, uint[2] memory Q) public view returns (bytes memory, bytes32,uint[2] memory, uint[2] memory){\n        bytes memory b = abi.encodePacked(Q[0],Q[1]);\n        bytes32 hashQ = sha256(b);\n        require(hashQ == keyHash, 'Hash missmatch with provided key Q');\n        require(publicKeys[hashQ] == address(0), 'key existing');\n        require(validateSignature(hashQ, rs, Q) == true, 'signature missmatch');\n        //publicKeys[keyHash] = msg.sender;\n        return (b, hashQ, rs, Q);\n    }\n\n\n    // why not having a key can can be shared for revoking keys instead of using msg.sender?\n    function revokeKey(bytes32 keyHash) public{\n        require(publicKeys[keyHash] != address(0), 'key not existing');\n        require(publicKeys[keyHash] == msg.sender, 'no permit to revoke');\n        revokedKeys[keyHash] = true;\n    }\n\n    mapping (address => KeyRing) public keyRings;\n    //maybe define the trust depth of the ring?\n    struct KeyRing{\n        address ringOwner;\n        address[] trustedRings;\n        mapping (bytes32 => mapping(string => Access)) keyAccess;\n    }\n\n    struct Access{\n       string scope;\n       uint expiry;\n    }\n\n    function verifyAccess(address keyRing, bytes32 keyHash, string memory aud) public view returns(string memory scope, uint expiry){\n        require(revokedKeys[keyHash] == false, 'key is revoked');\n        Access storage access = keyRings[keyRing].keyAccess[keyHash][aud];\n        return (access.scope, access.expiry);\n    }\n\n    function createKeyRing() public{\n        KeyRing storage keyRing = keyRings[msg.sender];\n        require(keyRing.ringOwner == address(0), 'keyRing existing');\n        keyRing.ringOwner = msg.sender;\n    }\n\n    function giveAccess(bytes32 keyHash, string memory aud, string memory scope, uint expiry) public{\n        KeyRing storage keyRing = keyRings[msg.sender];\n        require(keyRing.ringOwner == msg.sender, 'not keyRing Owner');\n        require(revokedKeys[keyHash] == false, 'key is revoked');\n        keyRing.keyAccess[keyHash][aud] = Access(scope, expiry);\n    }\n\n    function updateExpiry(bytes32 keyHash, string memory aud, uint expiry) public{\n        KeyRing storage keyRing = keyRings[msg.sender];\n        require(keyRing.ringOwner == msg.sender, 'not keyRing Owner');\n        keyRing.keyAccess[keyHash][aud].expiry = expiry;\n    }\n\n    function changeScope(bytes32 keyHash, string memory aud, string memory scope) public{\n        KeyRing storage keyRing = keyRings[msg.sender];\n        require(keyRing.ringOwner == msg.sender, 'not keyRing Owner');\n        require(keyRing.keyAccess[keyHash][aud].expiry != 0, 'no expiry');\n        keyRing.keyAccess[keyHash][aud].scope = scope;\n    }\n\n    function trustRing(address ringAddress) public{\n        KeyRing storage keyRing = keyRings[msg.sender];\n        require(keyRing.ringOwner == msg.sender, 'not keyRing Owner');\n        keyRing.trustedRings.push(ringAddress);\n    }\n\n    function untrustRing(uint index) public{\n        KeyRing storage keyRing = keyRings[msg.sender];\n        require(keyRing.ringOwner == msg.sender, 'not keyRing Owner');\n        delete keyRing.trustedRings[index];\n    }\n\n    function getTrustedRingsCount(address ringAddress) public view returns(uint){\n        address[] memory ringAddresses = keyRings[ringAddress].trustedRings;\n        return (ringAddresses.length);\n    }\n\n    function getTrustedRingAddress(address ringAddress, uint index) public view returns(address){\n        return keyRings[ringAddress].trustedRings[index];\n    }\n\n    /**\n    * @title   EllipticCurve\n    *\n    * @author  Tilman Drerup;\n    *  https://github.com/tdrerup/elliptic-curve-solidity\n    * @notice  Implements elliptic curve math; Parametrized for SECP256R1.\n    *\n    *          Includes components of code by Andreas Olofsson, Alexander Vlasov\n    *          (https://github.com/BANKEX/CurveArithmetics), and Avi Asayag\n    *          (https://github.com/orbs-network/elliptic-curve-solidity)\n    *\n    * @dev     NOTE: To disambiguate public keys when verifying signatures, activate\n    *          condition 'rs[1] > lowSmax' in validateSignature().\n    */\n    // Set parameters for curve.\n    uint constant a = 0xFFFFFFFF00000001000000000000000000000000FFFFFFFFFFFFFFFFFFFFFFFC;\n    uint constant b = 0x5AC635D8AA3A93E7B3EBBD55769886BC651D06B0CC53B0F63BCE3C3E27D2604B;\n    uint constant gx = 0x6B17D1F2E12C4247F8BCE6E563A440F277037D812DEB33A0F4A13945D898C296;\n    uint constant gy = 0x4FE342E2FE1A7F9B8EE7EB4A7C0F9E162BCE33576B315ECECBB6406837BF51F5;\n    uint constant p = 0xFFFFFFFF00000001000000000000000000000000FFFFFFFFFFFFFFFFFFFFFFFF;\n    uint constant n = 0xFFFFFFFF00000000FFFFFFFFFFFFFFFFBCE6FAADA7179E84F3B9CAC2FC632551;\n\n    uint constant lowSmax = 0x7FFFFFFFFFFFFFFFFFFFFFFFFFFFFFFF5D576E7357A4501DDFE92F46681B20A0;\n\n    /**\n     * @dev Inverse of u in the field of modulo m.\n     */\n    function inverseMod(uint u, uint m) private pure\n        returns (uint)\n    {\n        if (u == 0 || u == m || m == 0)\n            return 0;\n        if (u > m)\n            u = u % m;\n\n        int t1;\n        int t2 = 1;\n        uint r1 = m;\n        uint r2 = u;\n        uint q;\n\n        while (r2 != 0) {\n            q = r1 / r2;\n            (t1, t2, r1, r2) = (t2, t1 - int(q) * t2, r2, r1 - q * r2);\n        }\n\n        if (t1 < 0)\n            return (m - uint(-t1));\n\n        return uint(t1);\n    }\n\n    /**\n     * @dev Transform affine coordinates into projective coordinates.\n     */\n    function toProjectivePoint(uint x0, uint y0) private pure\n        returns (uint[3] memory P)\n    {\n        P[2] = addmod(0, 1, p);\n        P[0] = mulmod(x0, P[2], p);\n        P[1] = mulmod(y0, P[2], p);\n    }\n\n    /**\n     * @dev Add two points in affine coordinates and return projective point.\n     */\n    function addAndReturnProjectivePoint(uint x1, uint y1, uint x2, uint y2) private pure\n        returns (uint[3] memory P)\n    {\n        uint x;\n        uint y;\n        (x, y) = add(x1, y1, x2, y2);\n        P = toProjectivePoint(x, y);\n    }\n\n    /**\n     * @dev Transform from projective to affine coordinates.\n     */\n    function toAffinePoint(uint x0, uint y0, uint z0) private pure\n        returns (uint x1, uint y1)\n    {\n        uint z0Inv;\n        z0Inv = inverseMod(z0, p);\n        x1 = mulmod(x0, z0Inv, p);\n        y1 = mulmod(y0, z0Inv, p);\n    }\n\n    /**\n     * @dev Return the zero curve in projective coordinates.\n     */\n    function zeroProj() private pure\n        returns (uint x, uint y, uint z)\n    {\n        return (0, 1, 0);\n    }\n\n    /**\n     * @dev Return the zero curve in affine coordinates.\n     */\n    function zeroAffine() private pure\n        returns (uint x, uint y)\n    {\n        return (0, 0);\n    }\n\n    /**\n     * @dev Check if the curve is the zero curve.\n     */\n    function isZeroCurve(uint x0, uint y0) private pure\n        returns (bool isZero)\n    {\n        if(x0 == 0 && y0 == 0) {\n            return true;\n        }\n        return false;\n    }\n\n    /**\n     * @dev Check if a point in affine coordinates is on the curve.\n     */\n    function isOnCurve(uint x, uint y) private pure\n        returns (bool)\n    {\n        if (0 == x || x == p || 0 == y || y == p) {\n            return false;\n        }\n\n        uint LHS = mulmod(y, y, p); // y^2\n        uint RHS = mulmod(mulmod(x, x, p), x, p); // x^3\n\n        if (a != 0) {\n            RHS = addmod(RHS, mulmod(x, a, p), p); // x^3 + a*x\n        }\n        if (b != 0) {\n            RHS = addmod(RHS, b, p); // x^3 + a*x + b\n        }\n\n        return LHS == RHS;\n    }\n\n    /**\n     * @dev Double an elliptic curve point in projective coordinates. See\n     * https://www.nayuki.io/page/elliptic-curve-point-addition-in-projective-coordinates\n     */\n    function twiceProj(uint x0, uint y0, uint z0) private pure\n        returns (uint x1, uint y1, uint z1)\n    {\n        uint t;\n        uint u;\n        uint v;\n        uint w;\n\n        if(isZeroCurve(x0, y0)) {\n            return zeroProj();\n        }\n\n        u = mulmod(y0, z0, p);\n        u = mulmod(u, 2, p);\n\n        v = mulmod(u, x0, p);\n        v = mulmod(v, y0, p);\n        v = mulmod(v, 2, p);\n\n        x0 = mulmod(x0, x0, p);\n        t = mulmod(x0, 3, p);\n\n        z0 = mulmod(z0, z0, p);\n        z0 = mulmod(z0, a, p);\n        t = addmod(t, z0, p);\n\n        w = mulmod(t, t, p);\n        x0 = mulmod(2, v, p);\n        w = addmod(w, p-x0, p);\n\n        x0 = addmod(v, p-w, p);\n        x0 = mulmod(t, x0, p);\n        y0 = mulmod(y0, u, p);\n        y0 = mulmod(y0, y0, p);\n        y0 = mulmod(2, y0, p);\n        y1 = addmod(x0, p-y0, p);\n\n        x1 = mulmod(u, w, p);\n\n        z1 = mulmod(u, u, p);\n        z1 = mulmod(z1, u, p);\n    }\n\n    /**\n     * @dev Add two elliptic curve points in projective coordinates. See\n     * https://www.nayuki.io/page/elliptic-curve-point-addition-in-projective-coordinates\n     */\n    function addProj(uint x0, uint y0, uint z0, uint x1, uint y1, uint z1) private pure\n        returns (uint x2, uint y2, uint z2)\n    {\n        uint t0;\n        uint t1;\n        uint u0;\n        uint u1;\n\n        if (isZeroCurve(x0, y0)) {\n            return (x1, y1, z1);\n        }\n        else if (isZeroCurve(x1, y1)) {\n            return (x0, y0, z0);\n        }\n\n        t0 = mulmod(y0, z1, p);\n        t1 = mulmod(y1, z0, p);\n\n        u0 = mulmod(x0, z1, p);\n        u1 = mulmod(x1, z0, p);\n\n        if (u0 == u1) {\n            if (t0 == t1) {\n                return twiceProj(x0, y0, z0);\n            }\n            else {\n                return zeroProj();\n            }\n        }\n\n        (x2, y2, z2) = addProj2(mulmod(z0, z1, p), u0, u1, t1, t0);\n    }\n\n    /**\n     * @dev Helper function that splits addProj to avoid too many local variables.\n     */\n    function addProj2(uint v, uint u0, uint u1, uint t1, uint t0) private pure\n        returns (uint x2, uint y2, uint z2)\n    {\n        uint u;\n        uint u2;\n        uint u3;\n        uint w;\n        uint t;\n\n        t = addmod(t0, p-t1, p);\n        u = addmod(u0, p-u1, p);\n        u2 = mulmod(u, u, p);\n\n        w = mulmod(t, t, p);\n        w = mulmod(w, v, p);\n        u1 = addmod(u1, u0, p);\n        u1 = mulmod(u1, u2, p);\n        w = addmod(w, p-u1, p);\n\n        x2 = mulmod(u, w, p);\n\n        u3 = mulmod(u2, u, p);\n        u0 = mulmod(u0, u2, p);\n        u0 = addmod(u0, p-w, p);\n        t = mulmod(t, u0, p);\n        t0 = mulmod(t0, u3, p);\n\n        y2 = addmod(t, p-t0, p);\n\n        z2 = mulmod(u3, v, p);\n    }\n\n    /**\n     * @dev Add two elliptic curve points in affine coordinates.\n     */\n    function add(uint x0, uint y0, uint x1, uint y1) private pure\n        returns (uint, uint)\n    {\n        uint z0;\n\n        (x0, y0, z0) = addProj(x0, y0, 1, x1, y1, 1);\n\n        return toAffinePoint(x0, y0, z0);\n    }\n\n    /**\n     * @dev Double an elliptic curve point in affine coordinates.\n     */\n    function twice(uint x0, uint y0) private pure\n        returns (uint, uint)\n    {\n        uint z0;\n\n        (x0, y0, z0) = twiceProj(x0, y0, 1);\n\n        return toAffinePoint(x0, y0, z0);\n    }\n\n    /**\n     * @dev Multiply an elliptic curve point by a 2 power base (i.e., (2^exp)*P)).\n     */\n    function multiplyPowerBase2(uint x0, uint y0, uint exp) private pure\n        returns (uint, uint)\n    {\n        uint base2X = x0;\n        uint base2Y = y0;\n        uint base2Z = 1;\n\n        for(uint i = 0; i < exp; i++) {\n            (base2X, base2Y, base2Z) = twiceProj(base2X, base2Y, base2Z);\n        }\n\n        return toAffinePoint(base2X, base2Y, base2Z);\n    }\n\n    /**\n     * @dev Multiply an elliptic curve point by a scalar.\n     */\n    function multiplyScalar(uint x0, uint y0, uint scalar) private pure\n        returns (uint x1, uint y1)\n    {\n        if(scalar == 0) {\n            return zeroAffine();\n        }\n        else if (scalar == 1) {\n            return (x0, y0);\n        }\n        else if (scalar == 2) {\n            return twice(x0, y0);\n        }\n\n        uint base2X = x0;\n        uint base2Y = y0;\n        uint base2Z = 1;\n        uint z1 = 1;\n        x1 = x0;\n        y1 = y0;\n\n        if(scalar%2 == 0) {\n            x1 = y1 = 0;\n        }\n\n        scalar = scalar >> 1;\n\n        while(scalar > 0) {\n            (base2X, base2Y, base2Z) = twiceProj(base2X, base2Y, base2Z);\n\n            if(scalar%2 == 1) {\n                (x1, y1, z1) = addProj(base2X, base2Y, base2Z, x1, y1, z1);\n            }\n\n            scalar = scalar >> 1;\n        }\n\n        return toAffinePoint(x1, y1, z1);\n    }\n\n    /**\n     * @dev Multiply the curve's generator point by a scalar.\n     */\n    function multipleGeneratorByScalar(uint scalar) private pure\n        returns (uint, uint)\n    {\n        return multiplyScalar(gx, gy, scalar);\n    }\n\n    /**\n     * @dev Validate combination of message, signature, and public key.\n     */\n    function validateSignature(bytes32 message, uint[2] memory rs, uint[2] memory Q) public pure\n        returns (bool)\n    {\n\n        // To disambiguate between public key solutions, include comment below.\n        if(rs[0] == 0 || rs[0] >= n || rs[1] == 0) {// || rs[1] > lowSmax)\n            return false;\n        }\n        if (!isOnCurve(Q[0], Q[1])) {\n            return false;\n        }\n\n        uint x1;\n        uint x2;\n        uint y1;\n        uint y2;\n\n        uint sInv = inverseMod(rs[1], n);\n        (x1, y1) = multiplyScalar(gx, gy, mulmod(uint(message), sInv, n));\n        (x2, y2) = multiplyScalar(Q[0], Q[1], mulmod(rs[0], sInv, n));\n        uint[3] memory P = addAndReturnProjectivePoint(x1, y1, x2, y2);\n\n        if (P[2] == 0) {\n            return false;\n        }\n\n        uint Px = inverseMod(P[2], p);\n        Px = mulmod(P[0], mulmod(Px, Px, p), p);\n\n        return Px % n == rs[0];\n    }\n}",
  "sourcePath": "/Users/admin/Desktop/MasterThesis/MT/DPKI/contracts/DPKI.sol",
  "compiler": {
    "name": "solc",
    "version": "0.5.12+commit.7709ece9.Emscripten.clang"
  },
  "schemaVersion": "3.0.1",
  "updatedAt": "2020-06-15T09:30:48.515Z",
  "devdoc": {
    "methods": {
      "validateSignature(bytes32,uint256[2],uint256[2])": {
        "details": "Validate combination of message, signature, and public key."
      }
    }
  },
  "userdoc": {
    "methods": {}
  }
}