{
  "contractName": "DPKI",
  "abi": [
    {
      "constant": true,
      "inputs": [
        {
          "internalType": "address",
          "name": "",
          "type": "address"
        }
      ],
      "name": "keyRings",
      "outputs": [
        {
          "internalType": "address",
          "name": "ringOwner",
          "type": "address"
        }
      ],
      "payable": false,
      "stateMutability": "view",
      "type": "function"
    },
    {
      "constant": true,
      "inputs": [
        {
          "internalType": "uint256",
          "name": "",
          "type": "uint256"
        }
      ],
      "name": "publicKeys",
      "outputs": [
        {
          "internalType": "address",
          "name": "",
          "type": "address"
        }
      ],
      "payable": false,
      "stateMutability": "view",
      "type": "function"
    },
    {
      "constant": true,
      "inputs": [
        {
          "internalType": "uint256",
          "name": "",
          "type": "uint256"
        }
      ],
      "name": "revokedKeys",
      "outputs": [
        {
          "internalType": "bool",
          "name": "",
          "type": "bool"
        }
      ],
      "payable": false,
      "stateMutability": "view",
      "type": "function"
    },
    {
      "constant": false,
      "inputs": [
        {
          "internalType": "uint256",
          "name": "keyHash",
          "type": "uint256"
        }
      ],
      "name": "addKey",
      "outputs": [],
      "payable": false,
      "stateMutability": "nonpayable",
      "type": "function"
    },
    {
      "constant": false,
      "inputs": [
        {
          "internalType": "uint256",
          "name": "keyHash",
          "type": "uint256"
        }
      ],
      "name": "revokeKey",
      "outputs": [],
      "payable": false,
      "stateMutability": "nonpayable",
      "type": "function"
    },
    {
      "constant": false,
      "inputs": [],
      "name": "createKeyRing",
      "outputs": [],
      "payable": false,
      "stateMutability": "nonpayable",
      "type": "function"
    },
    {
      "constant": false,
      "inputs": [
        {
          "internalType": "uint256",
          "name": "keyHash",
          "type": "uint256"
        },
        {
          "internalType": "string",
          "name": "aud",
          "type": "string"
        },
        {
          "internalType": "string",
          "name": "scope",
          "type": "string"
        },
        {
          "internalType": "uint256",
          "name": "expiry",
          "type": "uint256"
        }
      ],
      "name": "giveAccess",
      "outputs": [],
      "payable": false,
      "stateMutability": "nonpayable",
      "type": "function"
    },
    {
      "constant": false,
      "inputs": [
        {
          "internalType": "uint256",
          "name": "keyHash",
          "type": "uint256"
        },
        {
          "internalType": "string",
          "name": "aud",
          "type": "string"
        },
        {
          "internalType": "uint256",
          "name": "expiry",
          "type": "uint256"
        }
      ],
      "name": "updateExpiry",
      "outputs": [],
      "payable": false,
      "stateMutability": "nonpayable",
      "type": "function"
    },
    {
      "constant": false,
      "inputs": [
        {
          "internalType": "uint256",
          "name": "keyHash",
          "type": "uint256"
        },
        {
          "internalType": "string",
          "name": "aud",
          "type": "string"
        },
        {
          "internalType": "string",
          "name": "scope",
          "type": "string"
        }
      ],
      "name": "changeScope",
      "outputs": [],
      "payable": false,
      "stateMutability": "nonpayable",
      "type": "function"
    },
    {
      "constant": false,
      "inputs": [
        {
          "internalType": "address",
          "name": "ringAddress",
          "type": "address"
        }
      ],
      "name": "trustRing",
      "outputs": [],
      "payable": false,
      "stateMutability": "nonpayable",
      "type": "function"
    },
    {
      "constant": false,
      "inputs": [
        {
          "internalType": "uint256",
          "name": "index",
          "type": "uint256"
        }
      ],
      "name": "untrustRing",
      "outputs": [],
      "payable": false,
      "stateMutability": "nonpayable",
      "type": "function"
    },
    {
      "constant": true,
      "inputs": [
        {
          "internalType": "address",
          "name": "ringAddress",
          "type": "address"
        }
      ],
      "name": "getTrustedRingsCount",
      "outputs": [
        {
          "internalType": "uint256",
          "name": "",
          "type": "uint256"
        }
      ],
      "payable": false,
      "stateMutability": "view",
      "type": "function"
    },
    {
      "constant": true,
      "inputs": [
        {
          "internalType": "address",
          "name": "ringAddress",
          "type": "address"
        },
        {
          "internalType": "uint256",
          "name": "index",
          "type": "uint256"
        }
      ],
      "name": "getTrustedRingAddress",
      "outputs": [
        {
          "internalType": "address",
          "name": "",
          "type": "address"
        }
      ],
      "payable": false,
      "stateMutability": "view",
      "type": "function"
    }
  ],
  "bytecode": "0x608060405234801561001057600080fd5b50611836806100206000396000f3fe608060405234801561001057600080fd5b50600436106100cf5760003560e01c8063981e1cda1161008c578063caf7c50d11610066578063caf7c50d14610626578063cf07a4dd14610654578063f662bcf014610723578063f72c0bc71461072d576100cf565b8063981e1cda146103c4578063c680f4101461052a578063c749a35b14610598576100cf565b80632b2bfb1b146100d4578063307b05ff146102305780634186539f1461028857806352e5cd951461030c5780635f4662051461033a5780636d09a39914610380575b600080fd5b61022e600480360360608110156100ea57600080fd5b81019080803590602001909291908035906020019064010000000081111561011157600080fd5b82018360208201111561012357600080fd5b8035906020019184600183028401116401000000008311171561014557600080fd5b91908080601f016020809104026020016040519081016040528093929190818152602001838380828437600081840152601f19601f820116905080830192505050505050509192919290803590602001906401000000008111156101a857600080fd5b8201836020820111156101ba57600080fd5b803590602001918460018302840111640100000000831117156101dc57600080fd5b91908080601f016020809104026020016040519081016040528093929190818152602001838380828437600081840152601f19601f82011690508083019250505050505050919291929050505061075b565b005b6102726004803603602081101561024657600080fd5b81019080803573ffffffffffffffffffffffffffffffffffffffff1690602001909291905050506109f3565b6040518082815260200191505060405180910390f35b6102ca6004803603602081101561029e57600080fd5b81019080803573ffffffffffffffffffffffffffffffffffffffff169060200190929190505050610aca565b604051808273ffffffffffffffffffffffffffffffffffffffff1673ffffffffffffffffffffffffffffffffffffffff16815260200191505060405180910390f35b6103386004803603602081101561032257600080fd5b8101908080359060200190929190505050610b08565b005b6103666004803603602081101561035057600080fd5b8101908080359060200190929190505050610cde565b604051808215151515815260200191505060405180910390f35b6103c26004803603602081101561039657600080fd5b81019080803573ffffffffffffffffffffffffffffffffffffffff169060200190929190505050610cfe565b005b610528600480360360808110156103da57600080fd5b81019080803590602001909291908035906020019064010000000081111561040157600080fd5b82018360208201111561041357600080fd5b8035906020019184600183028401116401000000008311171561043557600080fd5b91908080601f016020809104026020016040519081016040528093929190818152602001838380828437600081840152601f19601f8201169050808301925050505050505091929192908035906020019064010000000081111561049857600080fd5b8201836020820111156104aa57600080fd5b803590602001918460018302840111640100000000831117156104cc57600080fd5b91908080601f016020809104026020016040519081016040528093929190818152602001838380828437600081840152601f19601f82011690508083019250505050505050919291929080359060200190929190505050610e72565b005b6105566004803603602081101561054057600080fd5b81019080803590602001909291905050506110d6565b604051808273ffffffffffffffffffffffffffffffffffffffff1673ffffffffffffffffffffffffffffffffffffffff16815260200191505060405180910390f35b6105e4600480360360408110156105ae57600080fd5b81019080803573ffffffffffffffffffffffffffffffffffffffff16906020019092919080359060200190929190505050611109565b604051808273ffffffffffffffffffffffffffffffffffffffff1673ffffffffffffffffffffffffffffffffffffffff16815260200191505060405180910390f35b6106526004803603602081101561063c57600080fd5b810190808035906020019092919050505061118b565b005b6107216004803603606081101561066a57600080fd5b81019080803590602001909291908035906020019064010000000081111561069157600080fd5b8201836020820111156106a357600080fd5b803590602001918460018302840111640100000000831117156106c557600080fd5b91908080601f016020809104026020016040519081016040528093929190818152602001838380828437600081840152601f19601f820116905080830192505050505050509192919290803590602001909291905050506112d3565b005b61072b611465565b005b6107596004803603602081101561074357600080fd5b81019080803590602001909291905050506115b4565b005b6000600260003373ffffffffffffffffffffffffffffffffffffffff1673ffffffffffffffffffffffffffffffffffffffff16815260200190815260200160002090503373ffffffffffffffffffffffffffffffffffffffff168160000160009054906101000a900473ffffffffffffffffffffffffffffffffffffffff1673ffffffffffffffffffffffffffffffffffffffff1614610863576040517f08c379a00000000000000000000000000000000000000000000000000000000081526004018080602001828103825260118152602001807f6e6f74206b657952696e67204f776e657200000000000000000000000000000081525060200191505060405180910390fd5b6000816002016000868152602001908152602001600020846040518082805190602001908083835b602083106108ae578051825260208201915060208101905060208303925061088b565b6001836020036101000a0380198251168184511680821785525050505050509050019150509081526020016040518091039020600101541415610959576040517f08c379a00000000000000000000000000000000000000000000000000000000081526004018080602001828103825260098152602001807f6e6f20657870697279000000000000000000000000000000000000000000000081525060200191505060405180910390fd5b81816002016000868152602001908152602001600020846040518082805190602001908083835b602083106109a35780518252602082019150602081019050602083039250610980565b6001836020036101000a038019825116818451168082178552505050505050905001915050908152602001604051809103902060000190805190602001906109ec9291906116dc565b5050505050565b60006060600260008473ffffffffffffffffffffffffffffffffffffffff1673ffffffffffffffffffffffffffffffffffffffff168152602001908152602001600020600101805480602002602001604051908101604052809291908181526020018280548015610ab957602002820191906000526020600020905b8160009054906101000a900473ffffffffffffffffffffffffffffffffffffffff1673ffffffffffffffffffffffffffffffffffffffff1681526020019060010190808311610a6f575b505050505090508051915050919050565b60026020528060005260406000206000915090508060000160009054906101000a900473ffffffffffffffffffffffffffffffffffffffff16905081565b600073ffffffffffffffffffffffffffffffffffffffff1660008083815260200190815260200160002060009054906101000a900473ffffffffffffffffffffffffffffffffffffffff1673ffffffffffffffffffffffffffffffffffffffff161415610bdd576040517f08c379a00000000000000000000000000000000000000000000000000000000081526004018080602001828103825260108152602001807f6b6579206e6f74206578697374696e670000000000000000000000000000000081525060200191505060405180910390fd5b3373ffffffffffffffffffffffffffffffffffffffff1660008083815260200190815260200160002060009054906101000a900473ffffffffffffffffffffffffffffffffffffffff1673ffffffffffffffffffffffffffffffffffffffff1614610cb0576040517f08c379a00000000000000000000000000000000000000000000000000000000081526004018080602001828103825260138152602001807f6e6f207065726d697420746f207265766f6b650000000000000000000000000081525060200191505060405180910390fd5b600180600083815260200190815260200160002060006101000a81548160ff02191690831515021790555050565b60016020528060005260406000206000915054906101000a900460ff1681565b6000600260003373ffffffffffffffffffffffffffffffffffffffff1673ffffffffffffffffffffffffffffffffffffffff16815260200190815260200160002090503373ffffffffffffffffffffffffffffffffffffffff168160000160009054906101000a900473ffffffffffffffffffffffffffffffffffffffff1673ffffffffffffffffffffffffffffffffffffffff1614610e06576040517f08c379a00000000000000000000000000000000000000000000000000000000081526004018080602001828103825260118152602001807f6e6f74206b657952696e67204f776e657200000000000000000000000000000081525060200191505060405180910390fd5b806001018290806001815401808255809150509060018203906000526020600020016000909192909190916101000a81548173ffffffffffffffffffffffffffffffffffffffff021916908373ffffffffffffffffffffffffffffffffffffffff160217905550505050565b6000600260003373ffffffffffffffffffffffffffffffffffffffff1673ffffffffffffffffffffffffffffffffffffffff16815260200190815260200160002090503373ffffffffffffffffffffffffffffffffffffffff168160000160009054906101000a900473ffffffffffffffffffffffffffffffffffffffff1673ffffffffffffffffffffffffffffffffffffffff1614610f7a576040517f08c379a00000000000000000000000000000000000000000000000000000000081526004018080602001828103825260118152602001807f6e6f74206b657952696e67204f776e657200000000000000000000000000000081525060200191505060405180910390fd5b600015156001600087815260200190815260200160002060009054906101000a900460ff16151514611014576040517f08c379a000000000000000000000000000000000000000000000000000000000815260040180806020018281038252600e8152602001807f6b6579206973207265766f6b656400000000000000000000000000000000000081525060200191505060405180910390fd5b604051806040016040528084815260200183815250816002016000878152602001908152602001600020856040518082805190602001908083835b60208310611072578051825260208201915060208101905060208303925061104f565b6001836020036101000a038019825116818451168082178552505050505050905001915050908152602001604051809103902060008201518160000190805190602001906110c192919061175c565b50602082015181600101559050505050505050565b60006020528060005260406000206000915054906101000a900473ffffffffffffffffffffffffffffffffffffffff1681565b6000600260008473ffffffffffffffffffffffffffffffffffffffff1673ffffffffffffffffffffffffffffffffffffffff168152602001908152602001600020600101828154811061115857fe5b9060005260206000200160009054906101000a900473ffffffffffffffffffffffffffffffffffffffff16905092915050565b6000600260003373ffffffffffffffffffffffffffffffffffffffff1673ffffffffffffffffffffffffffffffffffffffff16815260200190815260200160002090503373ffffffffffffffffffffffffffffffffffffffff168160000160009054906101000a900473ffffffffffffffffffffffffffffffffffffffff1673ffffffffffffffffffffffffffffffffffffffff1614611293576040517f08c379a00000000000000000000000000000000000000000000000000000000081526004018080602001828103825260118152602001807f6e6f74206b657952696e67204f776e657200000000000000000000000000000081525060200191505060405180910390fd5b8060010182815481106112a257fe5b9060005260206000200160006101000a81549073ffffffffffffffffffffffffffffffffffffffff02191690555050565b6000600260003373ffffffffffffffffffffffffffffffffffffffff1673ffffffffffffffffffffffffffffffffffffffff16815260200190815260200160002090503373ffffffffffffffffffffffffffffffffffffffff168160000160009054906101000a900473ffffffffffffffffffffffffffffffffffffffff1673ffffffffffffffffffffffffffffffffffffffff16146113db576040517f08c379a00000000000000000000000000000000000000000000000000000000081526004018080602001828103825260118152602001807f6e6f74206b657952696e67204f776e657200000000000000000000000000000081525060200191505060405180910390fd5b81816002016000868152602001908152602001600020846040518082805190602001908083835b602083106114255780518252602082019150602081019050602083039250611402565b6001836020036101000a03801982511681845116808217855250505050505090500191505090815260200160405180910390206001018190555050505050565b6000600260003373ffffffffffffffffffffffffffffffffffffffff1673ffffffffffffffffffffffffffffffffffffffff1681526020019081526020016000209050600073ffffffffffffffffffffffffffffffffffffffff168160000160009054906101000a900473ffffffffffffffffffffffffffffffffffffffff1673ffffffffffffffffffffffffffffffffffffffff161461156e576040517f08c379a00000000000000000000000000000000000000000000000000000000081526004018080602001828103825260108152602001807f6b657952696e67206578697374696e670000000000000000000000000000000081525060200191505060405180910390fd5b338160000160006101000a81548173ffffffffffffffffffffffffffffffffffffffff021916908373ffffffffffffffffffffffffffffffffffffffff16021790555050565b600073ffffffffffffffffffffffffffffffffffffffff1660008083815260200190815260200160002060009054906101000a900473ffffffffffffffffffffffffffffffffffffffff1673ffffffffffffffffffffffffffffffffffffffff1614611688576040517f08c379a000000000000000000000000000000000000000000000000000000000815260040180806020018281038252600c8152602001807f6b6579206578697374696e67000000000000000000000000000000000000000081525060200191505060405180910390fd5b3360008083815260200190815260200160002060006101000a81548173ffffffffffffffffffffffffffffffffffffffff021916908373ffffffffffffffffffffffffffffffffffffffff16021790555050565b828054600181600116156101000203166002900490600052602060002090601f016020900481019282601f1061171d57805160ff191683800117855561174b565b8280016001018555821561174b579182015b8281111561174a57825182559160200191906001019061172f565b5b50905061175891906117dc565b5090565b828054600181600116156101000203166002900490600052602060002090601f016020900481019282601f1061179d57805160ff19168380011785556117cb565b828001600101855582156117cb579182015b828111156117ca5782518255916020019190600101906117af565b5b5090506117d891906117dc565b5090565b6117fe91905b808211156117fa5760008160009055506001016117e2565b5090565b9056fea265627a7a7231582085a55542b829f412f9bc104b39a621c0a8133d8dd6bf031b5386771a8476a61764736f6c634300050c0032",
  "source": "pragma solidity 0.5.12;\n\ncontract DPKI{\n\n    mapping (uint => address) public publicKeys;\n    mapping (uint => bool) public revokedKeys;\n\n    function addKey(uint keyHash) public{\n        require(publicKeys[keyHash] == address(0), 'key existing');\n        publicKeys[keyHash] = msg.sender;\n    }\n\n    // why not having a key can can be shared for revoking keys instead of using msg.sender?\n    function revokeKey(uint keyHash) public{\n        require(publicKeys[keyHash] != address(0), 'key not existing');\n        require(publicKeys[keyHash] == msg.sender, 'no permit to revoke');\n        revokedKeys[keyHash] = true;\n    }\n\n    mapping (address => KeyRing) public keyRings;\n    //maybe define the trust depth of the ring?\n    struct KeyRing{\n        address ringOwner;\n        address[] trustedRings;\n        mapping (uint => mapping(string => Access)) keyAccess;\n    }\n\n    struct Access{\n       string scope;\n       uint expiry;\n    }\n\n    function createKeyRing() public{\n        KeyRing storage keyRing = keyRings[msg.sender];\n        require(keyRing.ringOwner == address(0), 'keyRing existing');\n        keyRing.ringOwner = msg.sender;\n    }\n\n    function giveAccess(uint keyHash, string memory aud, string memory scope, uint expiry) public{\n        KeyRing storage keyRing = keyRings[msg.sender];\n        require(keyRing.ringOwner == msg.sender, 'not keyRing Owner');\n        require(revokedKeys[keyHash] == false, 'key is revoked');\n        keyRing.keyAccess[keyHash][aud] = Access(scope, expiry);\n    }\n\n    function updateExpiry(uint keyHash, string memory aud, uint expiry) public{\n        KeyRing storage keyRing = keyRings[msg.sender];\n        require(keyRing.ringOwner == msg.sender, 'not keyRing Owner');\n        keyRing.keyAccess[keyHash][aud].expiry = expiry;\n    }\n\n    function changeScope(uint keyHash, string memory aud, string memory scope) public{\n        KeyRing storage keyRing = keyRings[msg.sender];\n        require(keyRing.ringOwner == msg.sender, 'not keyRing Owner');\n        require(keyRing.keyAccess[keyHash][aud].expiry != 0, 'no expiry');\n        keyRing.keyAccess[keyHash][aud].scope = scope;\n    }\n\n    function trustRing(address ringAddress) public{\n        KeyRing storage keyRing = keyRings[msg.sender];\n        require(keyRing.ringOwner == msg.sender, 'not keyRing Owner');\n        keyRing.trustedRings.push(ringAddress);\n    }\n\n    function untrustRing(uint index) public{\n        KeyRing storage keyRing = keyRings[msg.sender];\n        require(keyRing.ringOwner == msg.sender, 'not keyRing Owner');\n        delete keyRing.trustedRings[index];\n    }\n\n    function getTrustedRingsCount(address ringAddress) public view returns(uint){\n        address[] memory ringAddresses = keyRings[ringAddress].trustedRings;\n        return (ringAddresses.length);\n    }\n\n    function getTrustedRingAddress(address ringAddress, uint index) public view returns(address){\n        return keyRings[ringAddress].trustedRings[index];\n    }\n}",
  "sourcePath": "/Users/admin/Desktop/MasterThesis/MT/DPKI/contracts/DPKI.sol",
  "compiler": {
    "name": "solc",
    "version": "0.5.12+commit.7709ece9.Emscripten.clang"
  },
  "schemaVersion": "3.0.16",
  "updatedAt": "2019-11-09T11:51:37.183Z",
  "devdoc": {
    "methods": {}
  },
  "userdoc": {
    "methods": {}
  }
}