{
  "contractName": "EllipticCurve",
  "abi": [
    {
      "constant": true,
      "inputs": [
        {
          "internalType": "uint256",
          "name": "x0",
          "type": "uint256"
        },
        {
          "internalType": "uint256",
          "name": "y0",
          "type": "uint256"
        }
      ],
      "name": "toProjectivePoint",
      "outputs": [
        {
          "internalType": "uint256[3]",
          "name": "P",
          "type": "uint256[3]"
        }
      ],
      "payable": false,
      "stateMutability": "pure",
      "type": "function"
    },
    {
      "constant": true,
      "inputs": [
        {
          "internalType": "uint256",
          "name": "x1",
          "type": "uint256"
        },
        {
          "internalType": "uint256",
          "name": "y1",
          "type": "uint256"
        },
        {
          "internalType": "uint256",
          "name": "x2",
          "type": "uint256"
        },
        {
          "internalType": "uint256",
          "name": "y2",
          "type": "uint256"
        }
      ],
      "name": "addAndReturnProjectivePoint",
      "outputs": [
        {
          "internalType": "uint256[3]",
          "name": "P",
          "type": "uint256[3]"
        }
      ],
      "payable": false,
      "stateMutability": "pure",
      "type": "function"
    },
    {
      "constant": true,
      "inputs": [
        {
          "internalType": "uint256",
          "name": "x0",
          "type": "uint256"
        },
        {
          "internalType": "uint256",
          "name": "y0",
          "type": "uint256"
        },
        {
          "internalType": "uint256",
          "name": "z0",
          "type": "uint256"
        }
      ],
      "name": "toAffinePoint",
      "outputs": [
        {
          "internalType": "uint256",
          "name": "x1",
          "type": "uint256"
        },
        {
          "internalType": "uint256",
          "name": "y1",
          "type": "uint256"
        }
      ],
      "payable": false,
      "stateMutability": "pure",
      "type": "function"
    },
    {
      "constant": true,
      "inputs": [],
      "name": "zeroProj",
      "outputs": [
        {
          "internalType": "uint256",
          "name": "x",
          "type": "uint256"
        },
        {
          "internalType": "uint256",
          "name": "y",
          "type": "uint256"
        },
        {
          "internalType": "uint256",
          "name": "z",
          "type": "uint256"
        }
      ],
      "payable": false,
      "stateMutability": "pure",
      "type": "function"
    },
    {
      "constant": true,
      "inputs": [],
      "name": "zeroAffine",
      "outputs": [
        {
          "internalType": "uint256",
          "name": "x",
          "type": "uint256"
        },
        {
          "internalType": "uint256",
          "name": "y",
          "type": "uint256"
        }
      ],
      "payable": false,
      "stateMutability": "pure",
      "type": "function"
    },
    {
      "constant": true,
      "inputs": [
        {
          "internalType": "uint256",
          "name": "x0",
          "type": "uint256"
        },
        {
          "internalType": "uint256",
          "name": "y0",
          "type": "uint256"
        }
      ],
      "name": "isZeroCurve",
      "outputs": [
        {
          "internalType": "bool",
          "name": "isZero",
          "type": "bool"
        }
      ],
      "payable": false,
      "stateMutability": "pure",
      "type": "function"
    },
    {
      "constant": true,
      "inputs": [
        {
          "internalType": "uint256",
          "name": "x",
          "type": "uint256"
        },
        {
          "internalType": "uint256",
          "name": "y",
          "type": "uint256"
        }
      ],
      "name": "isOnCurve",
      "outputs": [
        {
          "internalType": "bool",
          "name": "",
          "type": "bool"
        }
      ],
      "payable": false,
      "stateMutability": "pure",
      "type": "function"
    },
    {
      "constant": true,
      "inputs": [
        {
          "internalType": "uint256",
          "name": "x0",
          "type": "uint256"
        },
        {
          "internalType": "uint256",
          "name": "y0",
          "type": "uint256"
        },
        {
          "internalType": "uint256",
          "name": "z0",
          "type": "uint256"
        }
      ],
      "name": "twiceProj",
      "outputs": [
        {
          "internalType": "uint256",
          "name": "x1",
          "type": "uint256"
        },
        {
          "internalType": "uint256",
          "name": "y1",
          "type": "uint256"
        },
        {
          "internalType": "uint256",
          "name": "z1",
          "type": "uint256"
        }
      ],
      "payable": false,
      "stateMutability": "pure",
      "type": "function"
    },
    {
      "constant": true,
      "inputs": [
        {
          "internalType": "uint256",
          "name": "x0",
          "type": "uint256"
        },
        {
          "internalType": "uint256",
          "name": "y0",
          "type": "uint256"
        },
        {
          "internalType": "uint256",
          "name": "z0",
          "type": "uint256"
        },
        {
          "internalType": "uint256",
          "name": "x1",
          "type": "uint256"
        },
        {
          "internalType": "uint256",
          "name": "y1",
          "type": "uint256"
        },
        {
          "internalType": "uint256",
          "name": "z1",
          "type": "uint256"
        }
      ],
      "name": "addProj",
      "outputs": [
        {
          "internalType": "uint256",
          "name": "x2",
          "type": "uint256"
        },
        {
          "internalType": "uint256",
          "name": "y2",
          "type": "uint256"
        },
        {
          "internalType": "uint256",
          "name": "z2",
          "type": "uint256"
        }
      ],
      "payable": false,
      "stateMutability": "pure",
      "type": "function"
    },
    {
      "constant": true,
      "inputs": [
        {
          "internalType": "uint256",
          "name": "x0",
          "type": "uint256"
        },
        {
          "internalType": "uint256",
          "name": "y0",
          "type": "uint256"
        },
        {
          "internalType": "uint256",
          "name": "x1",
          "type": "uint256"
        },
        {
          "internalType": "uint256",
          "name": "y1",
          "type": "uint256"
        }
      ],
      "name": "add",
      "outputs": [
        {
          "internalType": "uint256",
          "name": "",
          "type": "uint256"
        },
        {
          "internalType": "uint256",
          "name": "",
          "type": "uint256"
        }
      ],
      "payable": false,
      "stateMutability": "pure",
      "type": "function"
    },
    {
      "constant": true,
      "inputs": [
        {
          "internalType": "uint256",
          "name": "x0",
          "type": "uint256"
        },
        {
          "internalType": "uint256",
          "name": "y0",
          "type": "uint256"
        }
      ],
      "name": "twice",
      "outputs": [
        {
          "internalType": "uint256",
          "name": "",
          "type": "uint256"
        },
        {
          "internalType": "uint256",
          "name": "",
          "type": "uint256"
        }
      ],
      "payable": false,
      "stateMutability": "pure",
      "type": "function"
    },
    {
      "constant": true,
      "inputs": [
        {
          "internalType": "uint256",
          "name": "x0",
          "type": "uint256"
        },
        {
          "internalType": "uint256",
          "name": "y0",
          "type": "uint256"
        },
        {
          "internalType": "uint256",
          "name": "exp",
          "type": "uint256"
        }
      ],
      "name": "multiplyPowerBase2",
      "outputs": [
        {
          "internalType": "uint256",
          "name": "",
          "type": "uint256"
        },
        {
          "internalType": "uint256",
          "name": "",
          "type": "uint256"
        }
      ],
      "payable": false,
      "stateMutability": "pure",
      "type": "function"
    },
    {
      "constant": true,
      "inputs": [
        {
          "internalType": "uint256",
          "name": "x0",
          "type": "uint256"
        },
        {
          "internalType": "uint256",
          "name": "y0",
          "type": "uint256"
        },
        {
          "internalType": "uint256",
          "name": "scalar",
          "type": "uint256"
        }
      ],
      "name": "multiplyScalar",
      "outputs": [
        {
          "internalType": "uint256",
          "name": "x1",
          "type": "uint256"
        },
        {
          "internalType": "uint256",
          "name": "y1",
          "type": "uint256"
        }
      ],
      "payable": false,
      "stateMutability": "pure",
      "type": "function"
    },
    {
      "constant": true,
      "inputs": [
        {
          "internalType": "uint256",
          "name": "scalar",
          "type": "uint256"
        }
      ],
      "name": "multipleGeneratorByScalar",
      "outputs": [
        {
          "internalType": "uint256",
          "name": "",
          "type": "uint256"
        },
        {
          "internalType": "uint256",
          "name": "",
          "type": "uint256"
        }
      ],
      "payable": false,
      "stateMutability": "pure",
      "type": "function"
    },
    {
      "constant": true,
      "inputs": [
        {
          "internalType": "bytes32",
          "name": "message",
          "type": "bytes32"
        },
        {
          "internalType": "uint256[2]",
          "name": "rs",
          "type": "uint256[2]"
        },
        {
          "internalType": "uint256[2]",
          "name": "Q",
          "type": "uint256[2]"
        }
      ],
      "name": "validateSignature",
      "outputs": [
        {
          "internalType": "bool",
          "name": "",
          "type": "bool"
        }
      ],
      "payable": false,
      "stateMutability": "pure",
      "type": "function"
    }
  ],
  "bytecode": "0x608060405234801561001057600080fd5b50611b08806100206000396000f3fe608060405234801561001057600080fd5b50600436106100f55760003560e01c8063713eca2811610097578063c30cfa2d11610066578063c30cfa2d14610512578063c80edca414610562578063e022d77c146105c6578063f214aba01461062d576100f5565b8063713eca281461039457806372fb4a141461041c5780637ec8da8d1461047957806384dfba46146104ed576100f5565b80630b0dbcfa116100d35780630b0dbcfa1461025e57806314c67060146102ae578063322b24aa146102da578063675ca04314610337576100f5565b806304e960d7146100fa57806309d3ef31146101c25780630afb4ddc14610215575b600080fd5b6101a8600480360360a081101561011057600080fd5b810190808035906020019092919080604001906002806020026040519081016040528092919082600260200280828437600081840152601f19601f820116905080830192505050505050919291929080604001906002806020026040519081016040528092919082600260200280828437600081840152601f19601f82011690508083019250505050505091929192905050506106af565b604051808215151515815260200191505060405180910390f35b6101f8600480360360408110156101d857600080fd5b8101908080359060200190929190803590602001909291905050506109cd565b604051808381526020018281526020019250505060405180910390f35b6102416004803603602081101561022b57600080fd5b8101908080359060200190929190505050610a01565b604051808381526020018281526020019250505060405180910390f35b6102946004803603604081101561027457600080fd5b810190808035906020019092919080359060200190929190505050610a58565b604051808215151515815260200191505060405180910390f35b6102b6610c77565b60405180848152602001838152602001828152602001935050505060405180910390f35b61031a600480360360608110156102f057600080fd5b81019080803590602001909291908035906020019092919080359060200190929190505050610c95565b604051808381526020018281526020019250505060405180910390f35b6103776004803603606081101561034d57600080fd5b81019080803590602001909291908035906020019092919080359060200190929190505050610cf5565b604051808381526020018281526020019250505060405180910390f35b6103de600480360360808110156103aa57600080fd5b8101908080359060200190929190803590602001909291908035906020019092919080359060200190929190505050610d89565b6040518082600360200280838360005b838110156104095780820151818401526020810190506103ee565b5050505090500191505060405180910390f35b61045c6004803603606081101561043257600080fd5b81019080803590602001909291908035906020019092919080359060200190929190505050610dbe565b604051808381526020018281526020019250505060405180910390f35b6104af6004803603604081101561048f57600080fd5b810190808035906020019092919080359060200190929190505050610ec0565b6040518082600360200280838360005b838110156104da5780820151818401526020810190506104bf565b5050505090500191505060405180910390f35b6104f5610fb5565b604051808381526020018281526020019250505060405180910390f35b6105486004803603604081101561052857600080fd5b810190808035906020019092919080359060200190929190505050610fc9565b604051808215151515815260200191505060405180910390f35b6105a26004803603606081101561057857600080fd5b81019080803590602001909291908035906020019092919080359060200190929190505050610ff3565b60405180848152602001838152602001828152602001935050505060405180910390f35b610610600480360360808110156105dc57600080fd5b810190808035906020019092919080359060200190929190803590602001909291908035906020019092919050505061149b565b604051808381526020018281526020019250505060405180910390f35b61068b600480360360c081101561064357600080fd5b810190808035906020019092919080359060200190929190803590602001909291908035906020019092919080359060200190929190803590602001909291905050506114d5565b60405180848152602001838152602001828152602001935050505060405180910390f35b600080836000600281106106bf57fe5b6020020151148061070157507fffffffff00000000ffffffffffffffffbce6faada7179e84f3b9cac2fc632551836000600281106106f957fe5b602002015110155b8061071d575060008360016002811061071657fe5b6020020151145b1561072b57600090506109c6565b6107578260006002811061073b57fe5b60200201518360016002811061074d57fe5b6020020151610a58565b61076457600090506109c6565b60008060008060006107a78860016002811061077c57fe5b60200201517fffffffff00000000ffffffffffffffffbce6faada7179e84f3b9cac2fc63255161166b565b90506108217f6b17d1f2e12c4247f8bce6e563a440f277037d812deb33a0f4a13945d898c2967f4fe342e2fe1a7f9b8ee7eb4a7c0f9e162bce33576b315ececbb6406837bf51f57fffffffff00000000ffffffffffffffffbce6faada7179e84f3b9cac2fc6325518061081657fe5b848d60001c09610dbe565b80945081965050506108918760006002811061083957fe5b60200201518860016002811061084b57fe5b60200201517fffffffff00000000ffffffffffffffffbce6faada7179e84f3b9cac2fc6325518061087857fe5b848c60006002811061088657fe5b602002015109610dbe565b80935081955050506108a1611ab1565b6108ad86858786610d89565b90506000816002600381106108be57fe5b602002015114156108d857600096505050505050506109c6565b6000610915826002600381106108ea57fe5b60200201517fffffffff00000001000000000000000000000000ffffffffffffffffffffffff61166b565b90507fffffffff00000001000000000000000000000000ffffffffffffffffffffffff8061093f57fe5b7fffffffff00000001000000000000000000000000ffffffffffffffffffffffff8061096757fe5b8283098360006003811061097757fe5b60200201510990508960006002811061098c57fe5b60200201517fffffffff00000000ffffffffffffffffbce6faada7179e84f3b9cac2fc63255182816109ba57fe5b06149750505050505050505b9392505050565b60008060006109de85856001610ff3565b8093508196508297505050506109f5858583610cf5565b92509250509250929050565b600080610a4f7f6b17d1f2e12c4247f8bce6e563a440f277037d812deb33a0f4a13945d898c2967f4fe342e2fe1a7f9b8ee7eb4a7c0f9e162bce33576b315ececbb6406837bf51f585610dbe565b91509150915091565b60008260001480610a8857507fffffffff00000001000000000000000000000000ffffffffffffffffffffffff83145b80610a935750816000145b80610abd57507fffffffff00000001000000000000000000000000ffffffffffffffffffffffff82145b15610acb5760009050610c71565b60007fffffffff00000001000000000000000000000000ffffffffffffffffffffffff80610af557fe5b838409905060007fffffffff00000001000000000000000000000000ffffffffffffffffffffffff80610b2457fe5b857fffffffff00000001000000000000000000000000ffffffffffffffffffffffff80610b4d57fe5b87880909905060007fffffffff00000001000000000000000000000000fffffffffffffffffffffffc14610bf3577fffffffff00000001000000000000000000000000ffffffffffffffffffffffff80610ba357fe5b7fffffffff00000001000000000000000000000000ffffffffffffffffffffffff80610bcb57fe5b7fffffffff00000001000000000000000000000000fffffffffffffffffffffffc8709820890505b60007f5ac635d8aa3a93e7b3ebbd55769886bc651d06b0cc53b0f63bce3c3e27d2604b14610c69577fffffffff00000001000000000000000000000000ffffffffffffffffffffffff80610c4357fe5b7f5ac635d8aa3a93e7b3ebbd55769886bc651d06b0cc53b0f63bce3c3e27d2604b820890505b808214925050505b92915050565b60008060008060016000829250819150809050925092509250909192565b6000806000859050600085905060006001905060008090505b86811015610cda57610cc1848484610ff3565b8094508195508296505050508080600101915050610cae565b50610ce6838383610cf5565b94509450505050935093915050565b6000806000610d24847fffffffff00000001000000000000000000000000ffffffffffffffffffffffff61166b565b90507fffffffff00000001000000000000000000000000ffffffffffffffffffffffff80610d4e57fe5b81870992507fffffffff00000001000000000000000000000000ffffffffffffffffffffffff80610d7b57fe5b818609915050935093915050565b610d91611ab1565b600080610da08787878761149b565b8092508193505050610db28282610ec0565b92505050949350505050565b6000806000831415610ddb57610dd2610fb5565b91509150610eb8565b6001831415610def57848491509150610eb8565b6002831415610e0b57610e0285856109cd565b91509150610eb8565b60008590506000859050600060019050600060019050889550879450600060028881610e3357fe5b061415610e4257600094508495505b600187901c96505b6000871115610ea457610e5e848484610ff3565b809450819550829650505050600160028881610e7657fe5b061415610e9857610e8b8484848989866114d5565b8093508197508298505050505b600187901c9650610e4a565b610eaf868683610cf5565b95509550505050505b935093915050565b610ec8611ab1565b7fffffffff00000001000000000000000000000000ffffffffffffffffffffffff80610ef057fe5b600160000881600260038110610f0257fe5b6020020181815250507fffffffff00000001000000000000000000000000ffffffffffffffffffffffff80610f3357fe5b81600260038110610f4057fe5b6020020151840981600060038110610f5457fe5b6020020181815250507fffffffff00000001000000000000000000000000ffffffffffffffffffffffff80610f8557fe5b81600260038110610f9257fe5b6020020151830981600160038110610fa657fe5b60200201818152505092915050565b600080600080819150809050915091509091565b60008083148015610fda5750600082145b15610fe85760019050610fed565b600090505b92915050565b60008060008060008060006110088a8a610fc9565b1561102457611015610c77565b96509650965050505050611492565b7fffffffff00000001000000000000000000000000ffffffffffffffffffffffff8061104c57fe5b888a0992507fffffffff00000001000000000000000000000000ffffffffffffffffffffffff8061107957fe5b6002840992507fffffffff00000001000000000000000000000000ffffffffffffffffffffffff806110a757fe5b8a840991507fffffffff00000001000000000000000000000000ffffffffffffffffffffffff806110d457fe5b89830991507fffffffff00000001000000000000000000000000ffffffffffffffffffffffff8061110157fe5b6002830991507fffffffff00000001000000000000000000000000ffffffffffffffffffffffff8061112f57fe5b8a8b0999507fffffffff00000001000000000000000000000000ffffffffffffffffffffffff8061115c57fe5b60038b0993507fffffffff00000001000000000000000000000000ffffffffffffffffffffffff8061118a57fe5b88890997507fffffffff00000001000000000000000000000000ffffffffffffffffffffffff806111b757fe5b7fffffffff00000001000000000000000000000000fffffffffffffffffffffffc890997507fffffffff00000001000000000000000000000000ffffffffffffffffffffffff8061120457fe5b88850893507fffffffff00000001000000000000000000000000ffffffffffffffffffffffff8061123157fe5b84850990507fffffffff00000001000000000000000000000000ffffffffffffffffffffffff8061125e57fe5b8260020999507fffffffff00000001000000000000000000000000ffffffffffffffffffffffff8061128c57fe5b8a7fffffffff00000001000000000000000000000000ffffffffffffffffffffffff03820890507fffffffff00000001000000000000000000000000ffffffffffffffffffffffff806112db57fe5b817fffffffff00000001000000000000000000000000ffffffffffffffffffffffff03830899507fffffffff00000001000000000000000000000000ffffffffffffffffffffffff8061132a57fe5b8a850999507fffffffff00000001000000000000000000000000ffffffffffffffffffffffff8061135757fe5b838a0998507fffffffff00000001000000000000000000000000ffffffffffffffffffffffff8061138457fe5b898a0998507fffffffff00000001000000000000000000000000ffffffffffffffffffffffff806113b157fe5b8960020998507fffffffff00000001000000000000000000000000ffffffffffffffffffffffff806113df57fe5b897fffffffff00000001000000000000000000000000ffffffffffffffffffffffff038b0895507fffffffff00000001000000000000000000000000ffffffffffffffffffffffff8061142e57fe5b81840996507fffffffff00000001000000000000000000000000ffffffffffffffffffffffff8061145b57fe5b83840994507fffffffff00000001000000000000000000000000ffffffffffffffffffffffff8061148857fe5b8386099450505050505b93509350939050565b60008060006114b087876001888860016114d5565b8093508198508299505050506114c7878783610cf5565b925092505094509492505050565b60008060008060008060006114ea8d8d610fc9565b15611501578989899650965096505050505061165f565b61150b8a8a610fc9565b15611522578c8c8c9650965096505050505061165f565b7fffffffff00000001000000000000000000000000ffffffffffffffffffffffff8061154a57fe5b888d0993507fffffffff00000001000000000000000000000000ffffffffffffffffffffffff8061157757fe5b8b8a0992507fffffffff00000001000000000000000000000000ffffffffffffffffffffffff806115a457fe5b888e0991507fffffffff00000001000000000000000000000000ffffffffffffffffffffffff806115d157fe5b8b8b099050808214156116175782841415611600576115f18d8d8d610ff3565b9650965096505050505061165f565b611608610c77565b9650965096505050505061165f565b61164e7fffffffff00000001000000000000000000000000ffffffffffffffffffffffff8061164257fe5b898d098383868861171b565b809750819850829950505050505050505b96509650969350505050565b60008083148061167a57508183145b806116855750600082145b156116935760009050611715565b818311156116a8578183816116a457fe5b0692505b600080600190506000849050600086905060005b600082146116f1578183816116cd57fe5b049050838482028603838484028603809550819650829750839850505050506116bc565b600085121561170c5784600003870395505050505050611715565b84955050505050505b92915050565b6000806000806000806000807fffffffff00000001000000000000000000000000ffffffffffffffffffffffff8061174f57fe5b8a7fffffffff00000001000000000000000000000000ffffffffffffffffffffffff038a0890507fffffffff00000001000000000000000000000000ffffffffffffffffffffffff8061179e57fe5b8b7fffffffff00000001000000000000000000000000ffffffffffffffffffffffff038d0894507fffffffff00000001000000000000000000000000ffffffffffffffffffffffff806117ed57fe5b85860993507fffffffff00000001000000000000000000000000ffffffffffffffffffffffff8061181a57fe5b81820991507fffffffff00000001000000000000000000000000ffffffffffffffffffffffff8061184757fe5b8d830991507fffffffff00000001000000000000000000000000ffffffffffffffffffffffff8061187457fe5b8c8c089a507fffffffff00000001000000000000000000000000ffffffffffffffffffffffff806118a157fe5b848c099a507fffffffff00000001000000000000000000000000ffffffffffffffffffffffff806118ce57fe5b8b7fffffffff00000001000000000000000000000000ffffffffffffffffffffffff03830891507fffffffff00000001000000000000000000000000ffffffffffffffffffffffff8061191d57fe5b82860997507fffffffff00000001000000000000000000000000ffffffffffffffffffffffff8061194a57fe5b85850992507fffffffff00000001000000000000000000000000ffffffffffffffffffffffff8061197757fe5b848d099b507fffffffff00000001000000000000000000000000ffffffffffffffffffffffff806119a457fe5b827fffffffff00000001000000000000000000000000ffffffffffffffffffffffff038d089b507fffffffff00000001000000000000000000000000ffffffffffffffffffffffff806119f357fe5b8c820990507fffffffff00000001000000000000000000000000ffffffffffffffffffffffff80611a2057fe5b838a0998507fffffffff00000001000000000000000000000000ffffffffffffffffffffffff80611a4d57fe5b897fffffffff00000001000000000000000000000000ffffffffffffffffffffffff03820896507fffffffff00000001000000000000000000000000ffffffffffffffffffffffff80611a9c57fe5b8d840995505050505050955095509592505050565b604051806060016040528060039060208202803883398082019150509050509056fea265627a7a723158208258ef9c047a898322e20c457b3f9c02c99b313977d44e2f80deffb21841eb9c64736f6c634300050c0032",
  "source": "pragma solidity ^0.5.12;\n\n/**\n * @title   EllipticCurve\n *\n * @author  Tilman Drerup;\n *\n * @notice  Implements elliptic curve math; Parametrized for SECP256R1.\n *\n *          Includes components of code by Andreas Olofsson, Alexander Vlasov\n *          (https://github.com/BANKEX/CurveArithmetics), and Avi Asayag\n *          (https://github.com/orbs-network/elliptic-curve-solidity)\n *\n * @dev     NOTE: To disambiguate public keys when verifying signatures, activate\n *          condition 'rs[1] > lowSmax' in validateSignature().\n */\ncontract EllipticCurve {\n\n    // Set parameters for curve.\n    uint constant a = 0xFFFFFFFF00000001000000000000000000000000FFFFFFFFFFFFFFFFFFFFFFFC;\n    uint constant b = 0x5AC635D8AA3A93E7B3EBBD55769886BC651D06B0CC53B0F63BCE3C3E27D2604B;\n    uint constant gx = 0x6B17D1F2E12C4247F8BCE6E563A440F277037D812DEB33A0F4A13945D898C296;\n    uint constant gy = 0x4FE342E2FE1A7F9B8EE7EB4A7C0F9E162BCE33576B315ECECBB6406837BF51F5;\n    uint constant p = 0xFFFFFFFF00000001000000000000000000000000FFFFFFFFFFFFFFFFFFFFFFFF;\n    uint constant n = 0xFFFFFFFF00000000FFFFFFFFFFFFFFFFBCE6FAADA7179E84F3B9CAC2FC632551;\n\n    uint constant lowSmax = 0x7FFFFFFFFFFFFFFFFFFFFFFFFFFFFFFF5D576E7357A4501DDFE92F46681B20A0;\n\n    /**\n     * @dev Inverse of u in the field of modulo m.\n     */\n    function inverseMod(uint u, uint m) internal pure\n        returns (uint)\n    {\n        if (u == 0 || u == m || m == 0)\n            return 0;\n        if (u > m)\n            u = u % m;\n\n        int t1;\n        int t2 = 1;\n        uint r1 = m;\n        uint r2 = u;\n        uint q;\n\n        while (r2 != 0) {\n            q = r1 / r2;\n            (t1, t2, r1, r2) = (t2, t1 - int(q) * t2, r2, r1 - q * r2);\n        }\n\n        if (t1 < 0)\n            return (m - uint(-t1));\n\n        return uint(t1);\n    }\n\n    /**\n     * @dev Transform affine coordinates into projective coordinates.\n     */\n    function toProjectivePoint(uint x0, uint y0) public pure\n        returns (uint[3] memory P)\n    {\n        P[2] = addmod(0, 1, p);\n        P[0] = mulmod(x0, P[2], p);\n        P[1] = mulmod(y0, P[2], p);\n    }\n\n    /**\n     * @dev Add two points in affine coordinates and return projective point.\n     */\n    function addAndReturnProjectivePoint(uint x1, uint y1, uint x2, uint y2) public pure\n        returns (uint[3] memory P)\n    {\n        uint x;\n        uint y;\n        (x, y) = add(x1, y1, x2, y2);\n        P = toProjectivePoint(x, y);\n    }\n\n    /**\n     * @dev Transform from projective to affine coordinates.\n     */\n    function toAffinePoint(uint x0, uint y0, uint z0) public pure\n        returns (uint x1, uint y1)\n    {\n        uint z0Inv;\n        z0Inv = inverseMod(z0, p);\n        x1 = mulmod(x0, z0Inv, p);\n        y1 = mulmod(y0, z0Inv, p);\n    }\n\n    /**\n     * @dev Return the zero curve in projective coordinates.\n     */\n    function zeroProj() public pure\n        returns (uint x, uint y, uint z)\n    {\n        return (0, 1, 0);\n    }\n\n    /**\n     * @dev Return the zero curve in affine coordinates.\n     */\n    function zeroAffine() public pure\n        returns (uint x, uint y)\n    {\n        return (0, 0);\n    }\n\n    /**\n     * @dev Check if the curve is the zero curve.\n     */\n    function isZeroCurve(uint x0, uint y0) public pure\n        returns (bool isZero)\n    {\n        if(x0 == 0 && y0 == 0) {\n            return true;\n        }\n        return false;\n    }\n\n    /**\n     * @dev Check if a point in affine coordinates is on the curve.\n     */\n    function isOnCurve(uint x, uint y) public pure\n        returns (bool)\n    {\n        if (0 == x || x == p || 0 == y || y == p) {\n            return false;\n        }\n\n        uint LHS = mulmod(y, y, p); // y^2\n        uint RHS = mulmod(mulmod(x, x, p), x, p); // x^3\n\n        if (a != 0) {\n            RHS = addmod(RHS, mulmod(x, a, p), p); // x^3 + a*x\n        }\n        if (b != 0) {\n            RHS = addmod(RHS, b, p); // x^3 + a*x + b\n        }\n\n        return LHS == RHS;\n    }\n\n    /**\n     * @dev Double an elliptic curve point in projective coordinates. See\n     * https://www.nayuki.io/page/elliptic-curve-point-addition-in-projective-coordinates\n     */\n    function twiceProj(uint x0, uint y0, uint z0) public pure\n        returns (uint x1, uint y1, uint z1)\n    {\n        uint t;\n        uint u;\n        uint v;\n        uint w;\n\n        if(isZeroCurve(x0, y0)) {\n            return zeroProj();\n        }\n\n        u = mulmod(y0, z0, p);\n        u = mulmod(u, 2, p);\n\n        v = mulmod(u, x0, p);\n        v = mulmod(v, y0, p);\n        v = mulmod(v, 2, p);\n\n        x0 = mulmod(x0, x0, p);\n        t = mulmod(x0, 3, p);\n\n        z0 = mulmod(z0, z0, p);\n        z0 = mulmod(z0, a, p);\n        t = addmod(t, z0, p);\n\n        w = mulmod(t, t, p);\n        x0 = mulmod(2, v, p);\n        w = addmod(w, p-x0, p);\n\n        x0 = addmod(v, p-w, p);\n        x0 = mulmod(t, x0, p);\n        y0 = mulmod(y0, u, p);\n        y0 = mulmod(y0, y0, p);\n        y0 = mulmod(2, y0, p);\n        y1 = addmod(x0, p-y0, p);\n\n        x1 = mulmod(u, w, p);\n\n        z1 = mulmod(u, u, p);\n        z1 = mulmod(z1, u, p);\n    }\n\n    /**\n     * @dev Add two elliptic curve points in projective coordinates. See\n     * https://www.nayuki.io/page/elliptic-curve-point-addition-in-projective-coordinates\n     */\n    function addProj(uint x0, uint y0, uint z0, uint x1, uint y1, uint z1) public pure\n        returns (uint x2, uint y2, uint z2)\n    {\n        uint t0;\n        uint t1;\n        uint u0;\n        uint u1;\n\n        if (isZeroCurve(x0, y0)) {\n            return (x1, y1, z1);\n        }\n        else if (isZeroCurve(x1, y1)) {\n            return (x0, y0, z0);\n        }\n\n        t0 = mulmod(y0, z1, p);\n        t1 = mulmod(y1, z0, p);\n\n        u0 = mulmod(x0, z1, p);\n        u1 = mulmod(x1, z0, p);\n\n        if (u0 == u1) {\n            if (t0 == t1) {\n                return twiceProj(x0, y0, z0);\n            }\n            else {\n                return zeroProj();\n            }\n        }\n\n        (x2, y2, z2) = addProj2(mulmod(z0, z1, p), u0, u1, t1, t0);\n    }\n\n    /**\n     * @dev Helper function that splits addProj to avoid too many local variables.\n     */\n    function addProj2(uint v, uint u0, uint u1, uint t1, uint t0) private pure\n        returns (uint x2, uint y2, uint z2)\n    {\n        uint u;\n        uint u2;\n        uint u3;\n        uint w;\n        uint t;\n\n        t = addmod(t0, p-t1, p);\n        u = addmod(u0, p-u1, p);\n        u2 = mulmod(u, u, p);\n\n        w = mulmod(t, t, p);\n        w = mulmod(w, v, p);\n        u1 = addmod(u1, u0, p);\n        u1 = mulmod(u1, u2, p);\n        w = addmod(w, p-u1, p);\n\n        x2 = mulmod(u, w, p);\n\n        u3 = mulmod(u2, u, p);\n        u0 = mulmod(u0, u2, p);\n        u0 = addmod(u0, p-w, p);\n        t = mulmod(t, u0, p);\n        t0 = mulmod(t0, u3, p);\n\n        y2 = addmod(t, p-t0, p);\n\n        z2 = mulmod(u3, v, p);\n    }\n\n    /**\n     * @dev Add two elliptic curve points in affine coordinates.\n     */\n    function add(uint x0, uint y0, uint x1, uint y1) public pure\n        returns (uint, uint)\n    {\n        uint z0;\n\n        (x0, y0, z0) = addProj(x0, y0, 1, x1, y1, 1);\n\n        return toAffinePoint(x0, y0, z0);\n    }\n\n    /**\n     * @dev Double an elliptic curve point in affine coordinates.\n     */\n    function twice(uint x0, uint y0) public pure\n        returns (uint, uint)\n    {\n        uint z0;\n\n        (x0, y0, z0) = twiceProj(x0, y0, 1);\n\n        return toAffinePoint(x0, y0, z0);\n    }\n\n    /**\n     * @dev Multiply an elliptic curve point by a 2 power base (i.e., (2^exp)*P)).\n     */\n    function multiplyPowerBase2(uint x0, uint y0, uint exp) public pure\n        returns (uint, uint)\n    {\n        uint base2X = x0;\n        uint base2Y = y0;\n        uint base2Z = 1;\n\n        for(uint i = 0; i < exp; i++) {\n            (base2X, base2Y, base2Z) = twiceProj(base2X, base2Y, base2Z);\n        }\n\n        return toAffinePoint(base2X, base2Y, base2Z);\n    }\n\n    /**\n     * @dev Multiply an elliptic curve point by a scalar.\n     */\n    function multiplyScalar(uint x0, uint y0, uint scalar) public pure\n        returns (uint x1, uint y1)\n    {\n        if(scalar == 0) {\n            return zeroAffine();\n        }\n        else if (scalar == 1) {\n            return (x0, y0);\n        }\n        else if (scalar == 2) {\n            return twice(x0, y0);\n        }\n\n        uint base2X = x0;\n        uint base2Y = y0;\n        uint base2Z = 1;\n        uint z1 = 1;\n        x1 = x0;\n        y1 = y0;\n\n        if(scalar%2 == 0) {\n            x1 = y1 = 0;\n        }\n\n        scalar = scalar >> 1;\n\n        while(scalar > 0) {\n            (base2X, base2Y, base2Z) = twiceProj(base2X, base2Y, base2Z);\n\n            if(scalar%2 == 1) {\n                (x1, y1, z1) = addProj(base2X, base2Y, base2Z, x1, y1, z1);\n            }\n\n            scalar = scalar >> 1;\n        }\n\n        return toAffinePoint(x1, y1, z1);\n    }\n\n    /**\n     * @dev Multiply the curve's generator point by a scalar.\n     */\n    function multipleGeneratorByScalar(uint scalar) public pure\n        returns (uint, uint)\n    {\n        return multiplyScalar(gx, gy, scalar);\n    }\n\n    /**\n     * @dev Validate combination of message, signature, and public key.\n     */\n    function validateSignature(bytes32 message, uint[2] memory rs, uint[2] memory Q) public pure\n        returns (bool)\n    {\n\n        // To disambiguate between public key solutions, include comment below.\n        if(rs[0] == 0 || rs[0] >= n || rs[1] == 0) {// || rs[1] > lowSmax)\n            return false;\n        }\n        if (!isOnCurve(Q[0], Q[1])) {\n            return false;\n        }\n\n        uint x1;\n        uint x2;\n        uint y1;\n        uint y2;\n\n        uint sInv = inverseMod(rs[1], n);\n        (x1, y1) = multiplyScalar(gx, gy, mulmod(uint(message), sInv, n));\n        (x2, y2) = multiplyScalar(Q[0], Q[1], mulmod(rs[0], sInv, n));\n        uint[3] memory P = addAndReturnProjectivePoint(x1, y1, x2, y2);\n\n        if (P[2] == 0) {\n            return false;\n        }\n\n        uint Px = inverseMod(P[2], p);\n        Px = mulmod(P[0], mulmod(Px, Px, p), p);\n\n        return Px % n == rs[0];\n    }\n}",
  "sourcePath": "/Users/admin/Desktop/MasterThesis/MT/DPKI/contracts/EllipticCurve.sol",
  "compiler": {
    "name": "solc",
    "version": "0.5.12+commit.7709ece9.Emscripten.clang"
  },
  "schemaVersion": "3.0.16",
  "updatedAt": "2019-11-09T11:51:37.205Z",
  "devdoc": {
    "author": "Tilman Drerup;",
    "details": "NOTE: To disambiguate public keys when verifying signatures, activate         condition 'rs[1] > lowSmax' in validateSignature().",
    "methods": {
      "add(uint256,uint256,uint256,uint256)": {
        "details": "Add two elliptic curve points in affine coordinates."
      },
      "addAndReturnProjectivePoint(uint256,uint256,uint256,uint256)": {
        "details": "Add two points in affine coordinates and return projective point."
      },
      "addProj(uint256,uint256,uint256,uint256,uint256,uint256)": {
        "details": "Add two elliptic curve points in projective coordinates. See https://www.nayuki.io/page/elliptic-curve-point-addition-in-projective-coordinates"
      },
      "isOnCurve(uint256,uint256)": {
        "details": "Check if a point in affine coordinates is on the curve."
      },
      "isZeroCurve(uint256,uint256)": {
        "details": "Check if the curve is the zero curve."
      },
      "multipleGeneratorByScalar(uint256)": {
        "details": "Multiply the curve's generator point by a scalar."
      },
      "multiplyPowerBase2(uint256,uint256,uint256)": {
        "details": "Multiply an elliptic curve point by a 2 power base (i.e., (2^exp)*P))."
      },
      "multiplyScalar(uint256,uint256,uint256)": {
        "details": "Multiply an elliptic curve point by a scalar."
      },
      "toAffinePoint(uint256,uint256,uint256)": {
        "details": "Transform from projective to affine coordinates."
      },
      "toProjectivePoint(uint256,uint256)": {
        "details": "Transform affine coordinates into projective coordinates."
      },
      "twice(uint256,uint256)": {
        "details": "Double an elliptic curve point in affine coordinates."
      },
      "twiceProj(uint256,uint256,uint256)": {
        "details": "Double an elliptic curve point in projective coordinates. See https://www.nayuki.io/page/elliptic-curve-point-addition-in-projective-coordinates"
      },
      "validateSignature(bytes32,uint256[2],uint256[2])": {
        "details": "Validate combination of message, signature, and public key."
      },
      "zeroAffine()": {
        "details": "Return the zero curve in affine coordinates."
      },
      "zeroProj()": {
        "details": "Return the zero curve in projective coordinates."
      }
    },
    "title": "EllipticCurve"
  },
  "userdoc": {
    "methods": {},
    "notice": "Implements elliptic curve math; Parametrized for SECP256R1. *          Includes components of code by Andreas Olofsson, Alexander Vlasov         (https://github.com/BANKEX/CurveArithmetics), and Avi Asayag         (https://github.com/orbs-network/elliptic-curve-solidity)"
  }
}