{
  "contractName": "KeyRing",
  "abi": [
    {
      "constant": false,
      "inputs": [
        {
          "internalType": "uint256",
          "name": "x",
          "type": "uint256"
        },
        {
          "internalType": "uint256",
          "name": "y",
          "type": "uint256"
        },
        {
          "internalType": "uint256",
          "name": "signature",
          "type": "uint256"
        }
      ],
      "name": "createKeyRing",
      "outputs": [],
      "payable": false,
      "stateMutability": "nonpayable",
      "type": "function"
    },
    {
      "constant": false,
      "inputs": [
        {
          "internalType": "uint256",
          "name": "x",
          "type": "uint256"
        },
        {
          "internalType": "uint256",
          "name": "y",
          "type": "uint256"
        },
        {
          "internalType": "address",
          "name": "subject",
          "type": "address"
        },
        {
          "internalType": "uint256",
          "name": "signature",
          "type": "uint256"
        },
        {
          "internalType": "uint256",
          "name": "expiry",
          "type": "uint256"
        }
      ],
      "name": "addPublicKey",
      "outputs": [],
      "payable": false,
      "stateMutability": "nonpayable",
      "type": "function"
    },
    {
      "constant": false,
      "inputs": [
        {
          "internalType": "uint256",
          "name": "x",
          "type": "uint256"
        },
        {
          "internalType": "uint256",
          "name": "y",
          "type": "uint256"
        },
        {
          "internalType": "uint256",
          "name": "signature",
          "type": "uint256"
        }
      ],
      "name": "addSignature",
      "outputs": [],
      "payable": false,
      "stateMutability": "nonpayable",
      "type": "function"
    }
  ],
  "bytecode": "0x608060405234801561001057600080fd5b50610766806100206000396000f3fe608060405234801561001057600080fd5b50600436106100415760003560e01c80633ea635ba14610046578063ee5ea51414610088578063f8f47d55146100ca575b600080fd5b6100866004803603606081101561005c57600080fd5b81019080803590602001909291908035906020019092919080359060200190929190505050610136565b005b6100c86004803603606081101561009e57600080fd5b81019080803590602001909291908035906020019092919080359060200190929190505050610363565b005b610134600480360360a08110156100e057600080fd5b810190808035906020019092919080359060200190929190803573ffffffffffffffffffffffffffffffffffffffff169060200190929190803590602001909291908035906020019092919050505061043c565b005b600015156000800160149054906101000a900460ff161515146101c1576040517f08c379a00000000000000000000000000000000000000000000000000000000081526004018080602001828103825260108152602001807f6b657952696e67206578697374696e670000000000000000000000000000000081525060200191505060405180910390fd5b336000800160006101000a81548173ffffffffffffffffffffffffffffffffffffffff021916908373ffffffffffffffffffffffffffffffffffffffff1602179055503360006001016000858152602001908152602001600020600084815260200190815260200160002060000160006101000a81548173ffffffffffffffffffffffffffffffffffffffff021916908373ffffffffffffffffffffffffffffffffffffffff16021790555060006001016000848152602001908152602001600020600083815260200190815260200160002060010160405180604001604052803373ffffffffffffffffffffffffffffffffffffffff168152602001838152509080600181540180825580915050906001820390600052602060002090600202016000909192909190915060008201518160000160006101000a81548173ffffffffffffffffffffffffffffffffffffffff021916908373ffffffffffffffffffffffffffffffffffffffff1602179055506020820151816001015550505060016000800160146101000a81548160ff021916908315150217905550505050565b60006001016000848152602001908152602001600020600083815260200190815260200160002060010160405180604001604052803373ffffffffffffffffffffffffffffffffffffffff168152602001838152509080600181540180825580915050906001820390600052602060002090600202016000909192909190915060008201518160000160006101000a81548173ffffffffffffffffffffffffffffffffffffffff021916908373ffffffffffffffffffffffffffffffffffffffff16021790555060208201518160010155505050505050565b6000800160009054906101000a900473ffffffffffffffffffffffffffffffffffffffff1673ffffffffffffffffffffffffffffffffffffffff163373ffffffffffffffffffffffffffffffffffffffff1614610501576040517f08c379a00000000000000000000000000000000000000000000000000000000081526004018080602001828103825260208152602001807f6f6e6c79207468652072696e67206f776e65722063616e20616464206b65797381525060200191505060405180910390fd5b600073ffffffffffffffffffffffffffffffffffffffff1660006001016000878152602001908152602001600020600086815260200190815260200160002060000160009054906101000a900473ffffffffffffffffffffffffffffffffffffffff1673ffffffffffffffffffffffffffffffffffffffff16146105ed576040517f08c379a000000000000000000000000000000000000000000000000000000000815260040180806020018281038252600c8152602001807f6b6579206578697374696e67000000000000000000000000000000000000000081525060200191505060405180910390fd5b8260006001016000878152602001908152602001600020600086815260200190815260200160002060000160006101000a81548173ffffffffffffffffffffffffffffffffffffffff021916908373ffffffffffffffffffffffffffffffffffffffff16021790555060006001016000868152602001908152602001600020600085815260200190815260200160002060010160405180604001604052808573ffffffffffffffffffffffffffffffffffffffff168152602001848152509080600181540180825580915050906001820390600052602060002090600202016000909192909190915060008201518160000160006101000a81548173ffffffffffffffffffffffffffffffffffffffff021916908373ffffffffffffffffffffffffffffffffffffffff16021790555060208201518160010155505050505050505056fea265627a7a7231582073e2c09036b3f3bbfd7fee32b0889c1fcd0c8dd4fbb5aab67e8a174d9949e4de64736f6c634300050b0032",
  "source": "pragma solidity 0.5.11;\n\ncontract KeyRing{\n\n    KeyRing keyRing;\n    address ringOwnerId;\n    //for simplicity: one address maps to one public key\n    struct KeyRing{\n        address ringOwnerId;\n        bool isSet;\n        mapping (uint => mapping(uint => PublicKey)) publicKeys;\n    }\n\n    struct PublicKey{\n        address keyOwnerId;\n        Signature[] signatures;\n    }\n\n    struct Signature{\n        address signerId;\n        uint signature;\n    }\n\n    function createKeyRing(uint x, uint y, uint signature) public{\n        require(keyRing.isSet == false, 'keyRing existing');\n        keyRing.ringOwnerId = msg.sender;\n        keyRing.publicKeys[x][y].keyOwnerId = msg.sender;\n        keyRing.publicKeys[x][y].signatures.push(Signature(msg.sender, signature));\n        keyRing.isSet = true;\n    }\n\n    function addPublicKey(uint x, uint y, address subject, uint signature, uint expiry) public {\n        require(msg.sender == keyRing.ringOwnerId, 'only the ring owner can add keys');\n        require(keyRing.publicKeys[x][y].keyOwnerId == address(0), 'key existing');\n        keyRing.publicKeys[x][y].keyOwnerId = subject;\n        keyRing.publicKeys[x][y].signatures.push(Signature(subject, signature));\n    }\n\n    function addSignature(uint x, uint y, uint signature) public{\n        keyRing.publicKeys[x][y].signatures.push(Signature(msg.sender, signature));\n    }\n}",
  "sourcePath": "/Users/admin/Desktop/MasterThesis/DPKI/contracts/KeyRing.sol",
  "compiler": {
    "name": "solc",
    "version": "0.5.11+commit.c082d0b4.Emscripten.clang"
  },
  "schemaVersion": "3.0.16",
  "updatedAt": "2019-10-21T10:25:37.476Z",
  "devdoc": {
    "methods": {}
  },
  "userdoc": {
    "methods": {}
  }
}